:020000040800F2
:10000000D82A0020ED4C0008BF020008C1020008F9
:10001000C5020008C9020008CD0200080000000067
:10002000000000000000000000000000D1020008F5
:10003000D302000800000000D5020008D702000823
:10004000074D0008074D0008074D0008074D000840
:10005000074D0008074D0008074D0008074D000830
:10006000074D0008074D0008074D0008074D000820
:10007000074D0008074D0008074D0008074D000810
:10008000074D0008074D0008074D0008074D000800
:10009000074D0008074D0008074D0008074D0008F0
:1000A000074D0008074D0008074D0008074D0008E0
:1000B0004D0B0008074D0008074D0008074D0008CC
:1000C000074D0008074D0008074D0008074D0008C0
:1000D000074D0008BD0C0008074D0008074D00083B
:1000E000074D0008074D0008074D0008074D0008A0
:1000F000074D0008074D0008074D0008074D000890
:10010000074D0008074D0008074D0008074D00087F
:10011000074D0008074D0008074D0008074D00086F
:10012000074D0008074D0008074D0008074D00085F
:1001300000F002F800F0B4F80AA090E8000C824445
:100140008344AAF10107DA4501D100F0A9F8AFF222
:10015000090EBAE80F0013F0010F18BFFB1A43F0A5
:10016000010318476C7B00008C7B000010F8013BFA
:100170000A4413F0030408BF10F8014B1D1108BF17
:1001800010F8015B641E05D010F8016B641E01F8C5
:10019000016BF9D1002D15D010F8014B03F00C03C1
:1001A0000C2BA1EB04040ABF10F8013BA4EB831451
:1001B000A4EB032405F1010314F8016B5B1E01F8A5
:1001C000016BF9D5914238BF10F8013BD1D370478C
:1001D0000023002400250026103A28BF78C1FBD850
:1001E000520728BF30C148BF0B6070476E2906F028
:1001F0000C84702906F07785662907F0FB84652951
:1002000007F0F884672907F0F5846129AFF30080CF
:1002100003681B0A28BF41F08001692906F0468265
:10022000642906F04382752906F040826F2906F0A2
:100230000585782906F04385E92906F09F84E4299D
:1002400006F09C84F52906F09984EF2906F00285D2
:10025000F82906F042850368DB0928BF41F08001D8
:10026000632906F00E84732906F01384E32906F04F
:10027000A187F32906F0A687002070471FB506F076
:10028000F7FF04000020002107F09EFC401C606086
:100290000020002107F082FCE0601FBD10B510BDFA
:1002A00006F0B8FF1146FFF7E9FF00F01AFC07F06F
:1002B00091F803B4FFF7F2FF03BC00F09BFC70471A
:1002C00000BFFEE700BFFEE700BFFEE700BFFEE79E
:1002D000704770477047704708B501214FF4FE70B2
:1002E00002F0C0FF0121084602F0BCFF012169486D
:1002F00002F0ADFD4FF68010ADF8000048208DF8FB
:10030000030003208DF802006946634802F0CEFC2A
:100310004FF40050ADF8000048208DF80300032092
:100320008DF8020069465D4802F0C0FC7E20ADF801
:10033000000010208DF8030003208DF802006946AC
:10034000554802F0B3FC4FF6FF70ADF800001020E6
:100350008DF8030003208DF802006946504802F032
:10036000A5FC4FF6FF70ADF8000010208DF80300DB
:1003700003208DF8020069464A4802F097FC4FF6C8
:10038000FF70ADF8000010208DF8030003208DF8F9
:1003900002006946444802F089FC4FF6FF70ADF850
:1003A000000010208DF8030003208DF8020069463C
:1003B0003E4802F07BFC4FF6FF70ADF800001020C5
:1003C0008DF8030003208DF802006946384802F0DA
:1003D0006DFC4DF6FF70ADF8000010208DF80300A5
:1003E00003208DF8020069462C4802F05FFC4FF4B0
:1003F0008041294802F009FD4FF6FF71284802F0BC
:1004000002FD4FF6FF71274802F0FDFC4FF6FF7129
:10041000254802F0F8FC4FF6FF71244802F0F3FC87
:1004200041F6FF71224802F0EEFC43F6FF711B48D3
:1004300002F0E9FC4FF48041174802F0E4FC4FF46D
:100440000061154802F0DFFC4FF48061134802F0B0
:10045000DCFC4FF40061114802F0D7FC4FF48051EE
:100460000E4802F0D2FC08BD70B505460C4645F2B8
:10047000555002F069FD284602F069FD204602F061
:1004800069FD02F06AFD02F06DFD70BD10B502F06D
:1004900064FD10BD00023000000801400020014052
:1004A000000C014000100140001401400018014000
:1004B000001C014020B5FD48008800F400400028E1
:1004C0007ED0FB480078732818D1F948407874280A
:1004D00014D1F7488078612810D1F548C078722887
:1004E0000CD1F3480079742808D1F14840790D28DF
:1004F00004D10120EF498874EF490870EC48007876
:10050000722816D1EA484078652812D1E8488078E8
:1005100073280ED1E648C07865280AD1E4480079EE
:10052000742806D1E24840790D2802D10120E34920
:100530008874DF480078742819D1DD484078652830
:1005400015D1DB488078732811D1D948C078742838
:100550000DD1D74800790D2809D1D54840790A280E
:1005600005D10120D6498874D6A006F02DF8D048D0
:100570000078412815D1CE4840784E2811D1CC487A
:10058000807849280DD1D04A11681268521CCE4D8E
:100590002A60CE4A10681268521CCC4D2A6000F0C6
:1005A0007FFFC348007873280CD1C1484078652884
:1005B00008D1BF488078652804D10120C44900E0F3
:1005C00072E18874BA48007873280ED1B848407830
:1005D00065280AD1B6488078662806D14FF47A702B
:1005E000BC490860BCA005F0EFFFB1480078732853
:1005F00010D1AF48407865280CD1AD488078672885
:1006000008D1BA480068401CB8490860084600682C
:1006100001F0AFF9A6480078732810D1A4484078BB
:1006200065280CD1A2488078682808D1AF480068B6
:10063000401EAE4908600846006801F09AF99C48DF
:10064000007873280CD19A484078652808D19848DA
:100650008078692804D12146A448006801F097F900
:100660009348007873280CD191484078652808D1C8
:100670008F4880786A2804D121469C48006801F0A0
:1006800086F98B48007873280ED189484078652810
:100690000AD1874880786B2806D12021944802F03F
:1006A000B4FB94A005F090FF8148007873280BD12B
:1006B0007F484078632807D17D488078612803D13E
:1006C0003221012001F01CF97948007873280BD100
:1006D00077484078632807D175488078622803D12D
:1006E0006421332001F00CF97148007873280BD194
:1006F0006F484078632807D16D488078632803D11C
:100700009621652001F0FCF86948007873280BD128
:1007100067484078632807D165488078642803D10A
:10072000C821972001F0ECF861480078612817D1C2
:100730005F484078642813D15D48807864280FD1E1
:100740005B48C07832280BD159480079302807D14E
:100750006CA005F039FF65480068143063490860F3
:100760006BA1534806F0A2F820B917226421082093
:1007700001F093F869A14E4806F098F828B96BA0EB
:1007800005F022FF6D4801F0D6F86DA1484806F04B
:100790008DF820B915226421082001F09BF86BA187
:1007A000434806F083F810B96C4801F012F840484D
:1007B00000786A2809D13E484078372805D13C485E
:1007C0008078612801D101F0DBFB3948007864288A
:1007D00015D137484078652811D13548807862288E
:1007E0000DD13348C078752809D131480079672880
:1007F00005D100205A4908705AA005F0E5FE2C48A2
:1008000000786A2822D12A48407837281ED1284803
:10081000807862281AD157A005F0D6FE584B594A65
:1008200059A15AA001F000FE594B5A4A5AA15BA0A7
:1008300001F0FAFD5A4B5B4A5BA15CA001F0F4FDAC
:100840005B4B5C4A5CA15DA001F0EEFD18480078AE
:10085000722815D116484078652811D1144880783F
:1008600074280DD11248C078752809D11048007934
:100870006E2805D100205249087052A005F0A4FE50
:100880000B4800786A280CD109484078362808D1EE
:1008900007488078612804D14FA005F095FE01F04B
:1008A000C1FC00200149088020BD00001800002084
:1008B000D01B0020B4200020CB1B0020D42000201F
:1008C000342100206A6A00000C000020080000208B
:1008D0001421002044000020736574207468652092
:1008E000707574206C6F6E670000000010000020AF
:1008F000000C0140736574206770696F6235207465
:100900006F20300069742077617320776F726B00FD
:1009100066696E64476E640D0A0000005343414EE1
:100920005369676E616C5F310D0A00007363616E1D
:100930007369676E616C5F31000000001001002078
:100940007866696E64676E640D0A00007866696E89
:10095000645369676E616C0D0A000000500000204E
:100960002500002073657420646562756720300D72
:100970000A000000746573746A37620D0A00000093
:10098000A4130020841000204A3141004A3741005E
:1009900004190020141600204A3142004A37420050
:1009A000840A002014080020553141004A364100D5
:1009B000A40E0020640C0020553142004A3642004B
:1009C0004C0000207365742072657475726E6F72CE
:1009D000203D300D0A000000746573746A36610DA5
:1009E0000A00000070470EB50121084602F047FCDE
:1009F0000920ADF8040041F61F40ADF800000020CA
:100A0000ADF80600ADF8020069464FF0804002F0F4
:100A100061FD01221146900703F0D3F801218807F8
:100A200003F0B4F80EBD08B500214FF0006001F0EE
:100A30007EFE4FF4C06001F043FE1C208DF80000E4
:100A400000208DF801008DF8020001208DF80300D0
:100A5000684601F03AFE08BD10B502F095FA4FF471
:100A6000803002F0B1FA02F0EEFA0446012C2FD1E8
:100A7000102003F081FD022003F06AFD002002F047
:100A800028FB002002F037FBA00202F02BFB4FF402
:100A9000E011200402F000FB012002F009FB00BF7E
:100AA000392002F0B4FA0028FAD0022002F003FB49
:100AB00000BF02F009FB0828FBD1012002F00AFC6C
:100AC0000121084602F0DBFB01213D2002F0CAFBB8
:100AD00010BD10B5FFF7C0FFFFF7A5FFFFF783FFBD
:100AE00010BDFFF7F6FF4FF4165000F095F8FFF732
:100AF000F3FB00F0ADFF05F084FC04F091F9012058
:100B00002449887424A005F05FFD1EE004F01AF962
:100B100005F073F8264A2749274804F0D6FBFFF76B
:100B2000C9FC264A2649274804F0A2F9194A264951
:100B3000264804F091FA264A2649274804F01BFC6F
:100B4000264A2749274804F05EFCDFE710B501215B
:100B5000880703F0E4FA012812D10121800703F08D
:100B6000EFFA21480068401C1F4908601F480068D0
:100B7000401C1E4908601E480068401C1C49086053
:100B800010BD0021184A116000BF17490968814251
:100B9000FBD37047D42000200D0A20737461727457
:100BA0002076657273696F6E2033210D0A00000094
:100BB000F4200020B21B0020E41F0020B4200020FD
:100BC000B01B0020C41F0020B11B0020D41F002038
:100BD00014210020B31B0020F41F0020342100202A
:100BE000B41B00200420002000000020AC1B0020CB
:100BF000CC1B002000BF704770B504460D46A1B263
:100C00004A4803F0DDFB00BF8021484803F046FC62
:100C10000028F9D0204670BD10B586B004460121E9
:100C200044F2040002F01EFB4FF40070ADF8140013
:100C300003208DF8160018208DF8170005A93C48F0
:100C400002F034F84FF48060ADF8140004208DF801
:100C5000170005A9364802F029F825208DF8000074
:100C600003208DF801008DF8020001208DF80300AB
:100C7000684601F02AFD01940020ADF80800ADF8A7
:100C80000A00ADF80C00ADF810000C20ADF80E0015
:100C900001A9264803F09BFA012240F2255123487E
:100CA00003F02DFB012240F22441204803F027FBF2
:100CB00001211E4803F017FB06B010BD10B500BFA0
:100CC00040F22551194803F0FFFB88B11748001D79
:100CD0000088C1B2174802880088401C154B188054
:100CE0001548815440F22551104803F0E4FB19E007
:100CF00040F224410D4803F0E7FB98B10F4800880B
:100D000040F400400D4908800A4800880C490880DA
:100D100000200849088005480088C4B20348001D27
:100D20000088C4B210BD0146704700000038014081
:100D3000000801401A000020D01B002018000020ED
:100D40001C00002002464FF4347105E0024600E02A
:100D5000521E002AFCD1491E0029F7DC7047582991
:100D600061D108285DD2DFE800F004101B252F3A7E
:100D700045500122F74B1A600022F74BC3F894212B
:100D80000122F44B08331A604CE00122F14B1A6047
:100D9000F14BC3F894210022EE4B08331A6041E076
:100DA0000122EC4B1A60EC4BC3F89421E94B083359
:100DB0001A6037E00022E74B1A60E74BC3F8942132
:100DC000E44B08331A602DE00022E24B1A60012246
:100DD000E14BC3F89421DF4B08331A6022E0012273
:100DE000DC4B1A600022DC4BC3F89421D94B08334A
:100DF0001A6017E00022D74B1A60D74BC3F8942132
:100E00000122D44B08331A600CE00022D14B1A6047
:100E10000122D14BC3F894210022CE4B08331A6033
:100E200000E000BF00BF592969D1082865D2DFE87A
:100E300000F004111D28333F4B570122C54B0C3BDA
:100E40001A600022C44BC3F888210122C14B1B1F2A
:100E50001A6053E00122BF4B0C3B1A60BE4BC3F833
:100E600088210022BB4B1B1F1A6047E00122B94BAF
:100E70000C3B1A60B84BC3F88821B64B1B1F1A6095
:100E80003CE00022B34B0C3B1A60B34BC3F8882103
:100E9000B04B1B1F1A6031E00022AE4B0C3B1A60B6
:100EA0000122AD4BC3F88821AA4B1B1F1A6025E015
:100EB0000122A84B0C3B1A600022A74BC3F88821E3
:100EC000A44B1B1F1A6019E00022A24B0C3B1A60B6
:100ED000A14BC3F8882101229E4B1B1F1A600DE015
:100EE00000229C4B0C3B1A6001229B4BC3F88821CB
:100EF0000022984B1B1F1A6000E000BF00BF704724
:100F00000121964A1160964AC2F88411934A083228
:100F10001160121D1160121D1160121D1160121D51
:100F20001160121D1160121D1160121D11608D4A99
:100F30001160121D1160121D1160884A3432116057
:100F4000121D1160121D1160874A1160121D11607F
:100F5000121D1160121D1160121D1160121D116011
:100F6000121D1160121D1160121D1160121D116001
:100F7000121D1160121D1160121D1160121D1160F1
:100F8000121D1160121D1160784A1160121D11604E
:100F9000121D1160121D1160121D1160121D1160D1
:100FA000121D1160121D1160121D1160121D1160C1
:100FB0006F4A1160121D1160121D11602D286FD231
:100FC000DFE800F0171B20252A2F34393E43484C18
:100FD00051565B6065696F74797E83888D92979CAA
:100FE000A1A6ABB0B5B9BEC3D8DCE1E6F0F5FAFE18
:100FF000EB000021594A1160EDE00021574A121D13
:101000001160E8E00021554A08321160E3E0002158
:10101000524A0C321160DEE00021504A1032116059
:10102000D9E000214D4A14321160D4E000214B4A2E
:1010300018321160CFE00021484A1C321160CAE02A
:101040000021464A20321160C5E00021434A243283
:101050001160C0E00021434A1160BCE00021414A18
:10106000121D1160B7E000213E4A08321160B2E063
:1010700000213A4A34321160ADE00021374A38325B
:101080001160A8E00021354A3C321160A3E0002144
:10109000354A11609FE00021334A121D11609AE029
:1010A00098E00021304A0832116094E000212E4A75
:1010B0000C3211608FE000212B4A103211608AE05F
:1010C0000021294A1432116085E00021264A183295
:1010D000116080E00021244A1C3211607BE0002175
:1010E000214A2032116076E000211F4A243211602B
:1010F00071E000211C4A283211606CE000211A4A7C
:101100002C32116067E00021174A3032116062E032
:101110000021154A343211605DE00021124A383254
:10112000116058E00021104A3C32116053E0002168
:101130000E4A11604FE000210C4A121D11604AE076
:1011400000210A4A0832116045E00021074A0C32AA
:10115000116040E0900121420000214280012242C2
:1011600000002242948121428001234280012442D6
:10117000B48123420021FE4A11602CE00021FC4A88
:10118000121D116027E00021F94A0832116022E0A7
:101190000021F74A0C3211601DE016E010E00BE070
:1011A00005E0FFE70021F24A1032116013E0002150
:1011B000EF4A143211600EE00021EE4A11600AE09D
:1011C0000021EC4A121D116005E00021E94A0832B5
:1011D000116000E000BF00BF704710B50446012059
:1011E000E5490860E549C1F88401E3490831086030
:1011F000091D0860091D0860E1490860091D0860B3
:10120000091D0860DC4920310860091D0860091DBE
:101210000860091D0860091D0860091D0860091D96
:101220000860091D0860D7490860091D0860091D8C
:101230000860091D0860091D0860091D0860091D76
:101240000860091D0860091D0860091D0860091D66
:101250000860091D0860091D0860091D0860091D56
:101260000860091D0860C34934390860091D086019
:10127000091D0860091D0860091D0860091D086036
:10128000091D0860091D0860091D0860091D086026
:10129000091D0860091D0860091D08602D2C72D207
:1012A000DFE804F0171C21262B30363B40454A4F1F
:1012B00054595E63686C72777C81868B90959A9F97
:1012C000A4A9AEB3B8BDC2C7CCD1D6DBE0E5EAF184
:1012D000F6000121AC4801F098FDDFE00221AA48A8
:1012E00001F093FDDAE00421A74801F08EFDD5E07E
:1012F0000821A54801F089FDD0E01021A24801F0A5
:1013000084FDCBE04FF48061A04801F07EFDC5E094
:1013100000209B49091D0860C0E000209849083161
:101320000860BBE00020944920310860B6E000204E
:10133000914924310860B1E000208F4928310860CC
:10134000ACE000208C492C310860A7E000208A49DD
:1013500030310860A2E000208749343108609DE008
:10136000002085493831086098E0002082493C31EE
:10137000086093E00020834908608FE000208149E5
:10138000091D08608AE088E000207E490831086075
:1013900084E000207B490C3108607FE0002079491F
:1013A000103108607AE0002076491431086075E059
:1013B000002074491831086070E0002071491C3128
:1013C00008606BE000206F492031086066E0002073
:1013D0006C492431086061E000206A4928310860C6
:1013E0005CE0002067492C31086057E00020654927
:1013F0003031086052E000206249343108604DE02D
:10140000002060493831086048E000205D493C31E7
:10141000086043E000205749343908603EE000206E
:1014200054493039086039E0002052492C390860AD
:1014300034E000204F49283908602FE000204D4952
:10144000243908602AE000204A492039086025E054
:10145000002048491C39086020E00020454918391F
:1014600008601BE0002043491439086016E00020A2
:1014700040491039086011E000203E490C390860ED
:101480000CE005E0FFE700203A490839086005E074
:1014900000203849091F086000E000BF00BF10BDF0
:1014A0002DE9F84304460D46601EC11700EB51714B
:1014B000C910A0EBC106C11700EB5171CF10681E17
:1014C000C11700EB5171C910A0EBC108C11700EBA7
:1014D00051714FEAE1093846FFF712FD59213046B4
:1014E000FFF73DFC4846FFF778FE58214046FFF7DE
:1014F00036FC0320FFF726FC0421002000F001FB4E
:10150000234948800846408800280CDB084640886C
:101510002B4622461FA10090244805F061F823487D
:1015200005F046F802E022A005F04EF81848408881
:10153000BDE8F8832DE9F04705460C462646681EAF
:10154000C11700EB5171C910A0EBC107C11700EB27
:1015500051714FEAE108701EC11700EB5171C910BB
:10156000A0EBC109C11700EB51714FEAE10A21E07C
:1015700090012442B4812342808121420080214293
:10158000A801224280812242000C0140001001404B
:10159000AC1C00200D0A595B2533645D585B253374
:1015A000645D3A2535640D0A00000000921F00209A
:1015B0002E0000004046FFF7A3FC59213846FFF7F4
:1015C000CEFB5046FFF709FE58214846FFF7C7FB00
:1015D0001420FFF7B7FB0421002000F092FAF7492E
:1015E00048804FF44870FFF78BFCF4484088BDE812
:1015F000F0872DE9FE4F05460C4626462746002C6F
:101600000FDD322C0DDC192C04DDA4F11900A4EB44
:101610004000461C192C04DCC4F1190004EB400006
:10162000461C322C0FDD642C0DDC4B2C04DDA4F1A8
:101630004B00A4EB4000461C4B2C04DCC4F14B00D7
:1016400004EB4000461C002D0FDD322D0DDC192D62
:1016500004DDA5F11900A5EB4000471C192D04DCA1
:10166000C5F1190005EB4000471C322D0FDD642D3C
:101670000DDC4B2D04DDA5F14B00A5EB4000471C14
:101680004B2D04DCC5F14B0005EB4000471C781ED8
:10169000C11700EB5171C910A0EBC108C11700EBD5
:1016A00051714FEAE109701EC11700EB5171C91069
:1016B000A0EBC10AC11700EB51714FEAE10B48469C
:1016C000FFF71EFC59214046FFF749FB5846FFF73C
:1016D00084FD58215046FFF742FB0320FFF732FB01
:1016E0000421002000F00DFAB449488008464088E3
:1016F000B3490968884211DBB248007801280DD14E
:10170000AE48408823462A46AFA1CDE90176009035
:10171000B94804F065FFB84804F04AFF4FF4487038
:10172000FFF7EEFBA5484088BDE8FE8F2DE9F041AC
:1017300004460D464FF000082E68276805E0314644
:101740002068FFF7F7FE8046241D2068B0F5FA7F79
:10175000F5D105E038462968FFF7ECFE80462D1DDF
:101760002868B0F5FA7FF5D1BDE8F081024605E0C2
:101770000868904201D101207047091D0868B0F542
:10178000FA7FF5D10020F7E72DE9F0470024002586
:1017900017266427B046B946A246344612E0974958
:1017A0002046FFF7E3FF012800D10AE0454605E0A7
:1017B00029462046FFF7BEFE82466D1C4D45F7DDEB
:1017C00000BF641CBC42EADD8DA004F0FDFEBDE854
:1017D000F0872DE9F047044600254FF017084FF039
:1017E000640917266427AA4612E035460DE08D49A4
:1017F0002846FFF7BBFF012800D105E029462068F5
:1018000000F09AF9824600BF6D1CBD42EFDD241D39
:101810002068B0F5FA7FE8D179A004F0D5FEBDE8E4
:10182000F0872DE9F04700240025012632274FF0EC
:101830000108B946A24634460AE0454605E0294675
:101840002046FFF777FE82466D1C4D45F7DD641C90
:10185000BC42F2DD6AA004F0B7FEBDE8F0872DE9D6
:10186000F04700240025012632274FF00108B94631
:10187000A24634460AE0454605E029462046FFF7E1
:1018800059FE82466D1C4D45F7DD641CBC42F2DDFD
:101890005BA004F099FEBDE8F0872DE9F041054614
:1018A0000E4617460024A0462C460CE0394620463A
:1018B00000F042F98046B8F57A7F03DA39462046CF
:1018C00000F03AF9641CB442F0DD57A004F07CFE4D
:1018D000BDE8F0812DE9F04105460E46174600248B
:1018E000A0462C4605E02146384600F025F9804602
:1018F000641CB442F7DD4CA004F066FEBDE8F08144
:101900002DE9F04104460D4600260027B046264644
:101910000AE0274605E03946304600F00DF98046DA
:101920007F1CAF42F7DD761CAE42F2DD34A004F03E
:101930004BFEBDE8F08170B504462646012500BF88
:1019400014E034460CE02068A84200D10CE0606846
:10195000B0F5FA7F03D1294639A004F035FE241DE5
:101960002068B0F5FA7FEED100BF6D1C642DE8DB76
:1019700070BD10B5044621462046FFF7DBFD10BDC3
:1019800010B504462146204600F0D6F810BD70B5CB
:1019900004460D46012D03D1611E2046FFF780FD50
:1019A0001DB921462046FFF77BFD70BD10B5FFF73E
:1019B00038FF13A004F008FE10BD0000AC1C00208E
:1019C00044000020250000200D0A595B2533645D8A
:1019D000585B2533645D3A2535643B2D2D2D7265AA
:1019E000616C494320706C61636520595B253364E9
:1019F0005D585B2533645D00921F002010010020BC
:101A000068657265206973206F7574207075742025
:101A1000616C6C206F6620726573756C7420200D8C
:101A20000A000000A40100207363616E20746865E1
:101A300020676E64206F76657220200D0A0000001A
:101A40002533642C0000000010B5FFF7AFFF10BD78
:101A500000B587B001214FF4017001F003FC4FF491
:101A6000004001F063FB0120ADF8040000208DF878
:101A7000070001A92E4801F019F92E4800F08EFE4A
:101A8000002002908DF80C008DF80D004FF46020BE
:101A900004900020059001208DF8180002A9254827
:101AA00000F0A3FE0121234800F0CBFE214800F006
:101AB000EAFE00BF1F4800F0EBFE0028FAD11D48E7
:101AC00000F0F0FE00BF1B4800F0F1FE0028FAD144
:101AD00007B000BD10B50446072301222146154872
:101AE00000F01BFF0121134800F0EBFE00BF0221B4
:101AF000104801F057F80028F9D00E4800F074FFA4
:101B000010BD2DE9F04107460C460025002608E0EF
:101B10003846FFF7DFFF05443220FFF713F9701C4A
:101B2000C6B2A642F4DBB5FBF4F080B2BDE8F081AA
:101B300000080140002401402DE9FE4F05460C46F7
:101B400026462746002C0FDD322C0DDC192C04DD37
:101B5000A4F11900A4EB4000461C192C04DCC4F1CC
:101B6000190004EB4000461C322C0FDD642C0DDC08
:101B70004B2C04DDA4F14B00A4EB4000461C4B2C85
:101B800004DCC4F14B0004EB4000461C002D0FDDCB
:101B9000322D0DDC192D04DDA5F11900A5EB400057
:101BA000471C192D04DCC5F1190005EB4000471C4A
:101BB000322D0FDD642D0DDC4B2D04DDA5F14B0026
:101BC000A5EB4000471C4B2D04DCC5F14B0005EB99
:101BD0004000471C781EC11700EB5171C910A0EBE3
:101BE000C108C11700EB51714FEAE109701EC1171E
:101BF00000EB5171C910A0EBC10AC11700EB517184
:101C00004FEAE10B4846FFF77BF959214046FFF7C1
:101C1000A6F85846FFF7E1FA58215046FFF79FF81B
:101C20000520FFF78FF806210020FFF76AFFF6492D
:101C3000488008464088F5490968884211DBF44825
:101C4000007801280DD1F048408823462A46F1A1AA
:101C5000CDE901760090FB4804F0C2FCF94804F09D
:101C6000A7FC4FF44870FFF74BF9E7484088BDE800
:101C7000FE8F2DE9FE4F05460C4626462746642C6E
:101C80000FDD962C0DDC7D2C04DDA4F17D00A4EB92
:101C90004000461C7D2C04DCC4F17D0004EB4000B8
:101CA000461C962C0FDDC82C0DDCAF2C04DDA4F1F6
:101CB000AF00A4EB4000461CAF2C04DCC4F1AF0025
:101CC00004EB4000461C642D0FDD962D0DDC7D2DB0
:101CD00004DDA5F17D00A5EB4000471C7D2D04DC53
:101CE000C5F17D0005EB4000471C962D0FDDC82D8A
:101CF0000DDCAF2D04DDA5F1AF00A5EB4000471CC6
:101D0000AF2D04DCC5F1AF0005EB4000471C781E89
:101D1000C11700EB5171C910A0EBC108C11700EB4E
:101D200051714FEAE109701EC11700EB5171C910E2
:101D3000A0EBC10AC11700EB51714FEAE10B484615
:101D4000FFF7DEF859214046FFF709F85846FFF73C
:101D500044FA58215046FFF702F80520FEF7F2FF3B
:101D60000A210020FFF7CDFEA74948800846408899
:101D7000A6490968884211DBA548007801280DD1E1
:101D8000A148408823462A46A2A1CDE901760090C9
:101D9000AC4804F025FCAB4804F00AFC4FF4487052
:101DA000FFF7AEF898484088BDE8FE8F2DE9FE4F5A
:101DB00005460C4626462746C82C0FDDFA2C0DDCBE
:101DC000E12C04DDA4F1E100A4EB4000461CE12C71
:101DD00004DCC4F1E10004EB4000461CC82D0FDD1B
:101DE000FA2D0DDCE12D04DDA5F1E100A5EB4000AD
:101DF000471CE12D04DCC5F1E10005EB4000471C68
:101E0000781EC11700EB5171C910A0EBC108C117B2
:101E100000EB51714FEAE109701EC11700EB5171DF
:101E2000C910A0EBC10AC11700EB51714FEAE10BD9
:101E30004846FFF765F859214046FEF790FF58469F
:101E4000FFF7CBF958215046FEF789FF0520FEF732
:101E500079FF0A210020FFF754FE6B4948800846AD
:101E600040886A490968884211DB6948007801287E
:101E70000DD16548408823462A4666A1CDE9017602
:101E80000090704804F0ACFB6E4804F091FB5E4893
:101E90004088BDE8FE8F2DE9FE4F05460C462646DC
:101EA0002746C82C0FDDFA2C0DDCE12C04DDA4F153
:101EB000E100A4EB4000461CE12C04DCC4F1E1008D
:101EC00004EB4000461CC82D0FDDFA2D0DDCE12D82
:101ED00004DDA5F1E100A5EB4000471CE12D04DC89
:101EE000C5F1E10005EB4000471C781EC11700EB6F
:101EF0005171C910A0EBC108C11700EB51714FEA35
:101F0000E109701EC11700EB5171C910A0EBC10AA5
:101F1000C11700EB51714FEAE10B4846FEF7F0FFA5
:101F200059214046FEF71BFF5846FFF756F9582146
:101F30005046FEF714FF0520FEF704FF0A2100209B
:101F4000FFF7DFFD30494880084640882F4909687F
:101F5000884211DB2E48007801280DD12A4840889C
:101F600023462A462BA1CDE901760090354804F09E
:101F700037FB344804F01CFB23484088BDE8FE8F43
:101F800070B5314C0025CEE021680846FFF7D4FD3E
:101F90000546B5F57A7F0EDA23681A462BA1294843
:101FA00004F01EFB274804F003FB304800780128AA
:101FB00001D1002070BD2E48007801280BD1B5F565
:101FC0007A7F08DD23681A462AA11E4804F008FB20
:101FD0001C4804F0EDFAD4E90001FFF7ADFD054619
:101FE000B5F5487F68DD2068431C02462AA11548E4
:101FF00004F0F6FA134804F0DBFA1C4800780128D4
:102000005AD10020D6E757E0AC1C00204400002045
:10201000250000200D0A595B2533645D585B25338C
:10202000645D3A2535643B2D2D2D7265616C494305
:1020300020706C61636520595B2533645D585B25B6
:1020400033645D00921F0020500000206661696CBF
:102050003A4A37415B2533645D4A31415B2533643D
:102060005D3A6F70656E2E0D0A0000004C00002076
:10207000240000204A37415B2533645D4A31415BCF
:102080002533645D3A434C4F534520544553542007
:102090004F4B2E0D0A0000006661696C3A4A3741C9
:1020A0005B2533645D4A31415B2533645D3A736877
:1020B0006F72742E0D0A00007748007801280CD149
:1020C000B5F57A7F09DA2068431C024673A17C4883
:1020D00004F086FA7A4804F06BFA15212068FFF7BD
:1020E0002BFD0546B5F5487F0DDD76A174482268C5
:1020F00004F076FA724804F05BFA7A480078012816
:1021000001D1002056E76448007801280AD1B5F5CE
:102110007A7F07DA74A16A48226804F061FA684895
:1021200004F046FA241D2068B0F5FA7F7FF42CAF46
:1021300001203FE72DE9F041744C0027B846002507
:10214000642668E0226891199019FFF792FD054610
:10215000B5F57A7F08DA23681A466DA1584804F06D
:102160003FFA574804F024FA4B48007801280BD175
:10217000B5F57A7F08DD23681A466DA1504804F052
:102180002FFA4F4804F014FA6268911922689019E6
:10219000FFF76FFD0546B5F5487F09DD2068431C54
:1021A00002466CA1464804F01BFA454804F000FAC8
:1021B0003948007801280CD1B5F57A7F09DA206812
:1021C000431C02466BA13E4804F00AFA3C4804F066
:1021D000EFF906F1150122689019FFF74AFD05464F
:1021E000B5F5487F07DD6CA13548226804F0F8F9A1
:1021F000334804F0DDF92848007801280AD1B5F504
:102200007A7F07DA6CA12E48226804F0E9F92C489D
:1022100004F0CEF9241D2068B0F5FA7F92D1012098
:10222000BDE8F0812DE9F0476C4C6D4D4FF0000892
:10223000C1460026C82728E02A68D1192268D0198B
:10224000FFF7B4FD0646B6F57A7F08DA2B6865A17C
:102250001B48226804F0C4F9194804F0A9F90E4893
:10226000007801280BD1B6F57A7F08DD2B6865A1CF
:102270001348226804F0B4F9114804F099F9241DB8
:1022800000BF00BF2D1D00BF00BF2068B0F5FA7F62
:10229000D2D10120BDE8F087240000204A37415BFD
:1022A0002533645D4A31415B2533645D3A4F5045C7
:1022B0004E2054455354204F4B2E0D0A0000000071
:1022C000921F00206661696C3A4A37415B2533648E
:1022D0005D4A31415B2032315D3A73686F72742E12
:1022E0000D0A00004C0000204A37415B2533645D35
:1022F0004A31415B2032315D3A4F50454E205445C2
:102300005354204F4B2E0D0A0000000038020020CD
:102310006661696C3A4A37425B2533645D4A3142F3
:102320005B2533645D3A6F70656E2E0D0A00000008
:102330004A37425B2533645D4A31425B2533645D35
:102340003A434C4F53452054455354204F4B2E0D88
:102350000A0000006661696C3A4A37425B253364C3
:102360005D4A31425B2533645D3A73686F72742E47
:102370000D0A00004A37425B2533645D4A31425BF7
:102380002533645D3A4F50454E2054455354204FF9
:102390004B2E0D0A000000006661696C3A4A374214
:1023A0005B2533645D4A31425B2032315D3A7368AC
:1023B0006F72742E0D0A00004A37425B2533645D4C
:1023C0004A31425B2032315D3A4F50454E205445F0
:1023D0005354204F4B2E0D0A00000000C80500206A
:1023E0005C0600206661696C3A4A36415B253364BD
:1023F0005D5531415B2533645D3A6F70656E2E0D1E
:102400000A0000004A36415B2533645D5531415B6B
:102410002533645D3A434C4F534520544553542073
:102420004F4B2E0D0A0000002DE9FF4F83B00F46E1
:1024300015461E46D5F808800024A1464FF0040B2F
:10244000A24600BF012438E006EB0412D26802EB7A
:10245000080106EB0412926802EB0800FFF76AF825
:10246000814640F24C40814511DDA24606EB041046
:102470004068CDE9007006EB0410036871A178484C
:10248000039A04F0ADF8764804F092F814E0ABF14A
:10249000010BBBF1000F0FD106EB04104068CDE932
:1024A000007006EB041003686EA16D48039A04F0F7
:1024B00097F86B4804F07CF8641C06EB0410006885
:1024C000B0F5FA7FC0D1012497E005EB0412D26881
:1024D00002EB080105EB0412926802EB0800FFF71B
:1024E00029F8814640F24C40814510DD05EB04108F
:1024F0004068CDE9007005EB0410036851A158480D
:10250000039A04F06DF8564804F052F80FE005EB1A
:1025100004104068CDE9007005EB0410036851A178
:102520004F48039A04F05CF84D4804F041F806EB7C
:102530000A12D26802EB080105EB0412926802EB62
:102540000800FEF7F7FF8146B9F5167F10DA06EBB3
:102550000A104068CDE9007005EB0410036839A14A
:102560003F48039A04F03CF83D4804F021F80FE09E
:1025700006EB0A104068CDE9007005EB0410036813
:1025800038A13748039A04F02BF8354804F010F8C6
:10259000621C06EB0212D26802EB080105EB041282
:1025A000926802EB0800FEF7C5FF8146B9F5167F79
:1025B00011DA601C05EB00104068CDE9007005EBF6
:1025C000041003681FA12648039A04F009F8244860
:1025D00003F0EEFF10E0601C05EB00104068CDE951
:1025E000007005EB041003681EA11D48039A03F058
:1025F000F7FF1B4803F0DCFF641C05EB04100068C8
:10260000B0F5FA7F7FF461AF484607B0BDE8F08FC0
:1026100010B51B4B1B4A1CA11CA0FFF705FF1C4B50
:102620001C4A1DA11DA0FFF7FFFE1D4B1D4A1EA148
:102630001EA0FFF7F9FE1E4B1E4A1FA11FA0FFF7A9
:10264000F3FE10BD706173733A25735B2533645DCF
:1026500025735B2533645D3A6F6B0D0A0000000043
:10266000921F00206661696C3A25735B2533645DB7
:1026700025735B2533645D3A6F70656E0D0A00004B
:10268000A4130020841000204A3141004A37410041
:1026900004190020141600204A3142004A37420033
:1026A000840A002014080020553141004A364100B8
:1026B000A40E0020640C0020553142004A3642002E
:1026C00031490143314A1160704770B50021002340
:1026D0000F22C47804B32D4C246804F4E064C4F5DC
:1026E000E064210AC1F10403CA40447804FA03F10A
:1026F0008478144021430901254C0678A1550478BB
:1027000004F01F050124AC4005786D11AD0005F102
:10271000E025C5F8004109E0047804F01F05012414
:10272000AC401C4D0678761145F8264070BD1A4A1B
:102730000A400243154B1B1F1A60704739B1134AF8
:10274000121D12680243114B1B1D1A6006E00F4A4E
:10275000121D126882430D4B1B1D1A60704704281E
:1027600008D14FF0E021096941F004014FF0E02267
:10277000116107E04FF0E021096921F004014FF0F9
:10278000E0221161704700000000FA050CED00E046
:1027900000E400E080E100E080FFFF1F10B5044688
:1027A000FA48844208D10121401500F075FD00214E
:1027B000601500F071FD17E0F548844208D1012151
:1027C000001500F069FD0021201500F065FD0BE00B
:1027D000F048844208D10121C80300F05DFD0021CA
:1027E0004FF4004000F058FD10BD30B50246002007
:1027F00000235068E84C20400D790C6844EA052419
:10280000204350609068E54C2040D1E902542C43AD
:102810004D7944EA450420439060D06A20F470006A
:102820000C7C641EE4B2234340EA0350D06230BD06
:1028300000210160017141718160C1600121017459
:10284000704721B1826842F00102826003E0826831
:1028500022F001028260704721B1826842F48072E6
:10286000826003E0826822F480728260704710B553
:102870000023CBB21AB144681C43446002E04468B0
:102880009C43446010BD816841F00801816070473D
:10289000014600208A6802F008020AB1012000E027
:1028A00000207047816841F0040181607047014653
:1028B00000208A6802F004020AB1012000E0002032
:1028C000704721B1826842F4A002826003E082680E
:1028D00022F4A00282607047014600208A6802F458
:1028E00080020AB1012000E00020704710B50A46BE
:1028F00000210023416821F46041531E41EA433125
:10290000416010BD21B1426842F40062426003E0C0
:10291000426822F4006242607047F0B504460D46FA
:1029200000200021092D11DDE068A5F10A0606EB63
:102930004607072606FA07F18843A5F10A0606EBC3
:10294000460603FA06F10843E0600CE0206905EB57
:102950004507072606FA07F1884305EB450603FA03
:1029600006F108432061072A0FDA606B561E06EB5A
:1029700086071F2606FA07F18843561E06EB8606D1
:1029800005FA06F10843606322E00D2A0FDA206B96
:10299000D61F06EB86071F2606FA07F18843D61FC7
:1029A00006EB860605FA06F10843206310E0E06AAC
:1029B000A2F10D0606EB86071F2606FA07F18843EB
:1029C000A2F10D0606EB860605FA06F10843E06261
:1029D000F0BD21B1826842F48012826003E0826817
:1029E00022F48012826070470146C86C80B2704742
:1029F00066484C300068704721B1426842F48062FA
:102A0000426003E0426822F480624260704721B174
:102A1000426842F48052426003E0426822F48052ED
:102A2000426070470A460021816821F4E041114369
:102A30008160704721B1826842F40042826003E005
:102A4000826822F400428260704721B1826842F4B9
:102A50000212826003E0826822F4021282607047F0
:102A6000014600208A6802F400120AB1012000E049
:102A700000207047F0B504461546002000220026CD
:102A8000092911DDE068A1F10A0707EB470C0727C8
:102A900007FA0CF29043A1F10A0707EB470703FA84
:102AA00007F21043E0600CE0206901EB410C0727BE
:102AB00007FA0CF2904301EB410703FA07F21043C7
:102AC0002061A06BC0F30156EF1C06F1010CA7EBCF
:102AD0000C0707EB870C1F2707FA0CF29043EF1C3B
:102AE00006F1010CA7EB0C0707EB870701FA07F2C9
:102AF0001043A063F0BD10B50A4600210023816B8E
:102B000021F44011531E41EA0351816310BD08B501
:102B1000002300930090009B0B440093009B1A60DD
:102B200008BD08B5024600200090009201F128007F
:102B3000009B184400900098006880B208BD0A46C7
:102B400000214168164B19401143416070474162B2
:102B5000826270470A460021416821F01F0111433B
:102B60004160704740B109490831096841F40001EA
:102B7000064A0832116007E004490831096821F467
:102B80000001024A08321160704700000024014031
:102B900000280140003C0140FFFEF0FFFDF7F1FF7F
:102BA000FFFD3FFF0246002013680B400BB10120E0
:102BB00000E000207047CA430260704770B50246CB
:102BC0000020002300240B125568CEB205EA06044B
:102BD00015681D4015B10CB1012000E0002070BD4A
:102BE00000220A12D34303607047000010B5044668
:102BF000CC48844208D10121042000F04DFB002183
:102C0000042000F049FB46E0C748844208D1012176
:102C1000082000F041FB0021082000F03DFB3AE0D5
:102C2000C248844208D10121102000F035FB002168
:102C3000102000F031FB2EE0BD48844208D1012174
:102C4000202000F029FB0021202000F025FB22E0BD
:102C5000B848844208D10121402000F01DFB00212A
:102C6000402000F019FB16E0B348844208D101214E
:102C7000802000F011FB0021802000F00DFB0AE015
:102C8000AE48844207D10121801500F005FB0021E8
:102C9000A01500F001FB10BD10B50121084600F0A1
:102CA000FBFA0021012000F0F7FA10BD2DE9F041F8
:102CB000024600250026002000230024002791F86A
:102CC00003C00CF00F0591F803C00CF0100CBCF120
:102CD000000F03D091F802C04CEA050591F800C03E
:102CE000BCF1000F31D0146800202BE04FF0010C34
:102CF0000CFA00F3B1F800C00CEA03069E4220D1A2
:102D000083004FF00F0C0CFA03F7BC4305FA03FCE9
:102D10004CEA040491F803C0BCF1280F06D14FF02F
:102D2000010C0CFA00FCC2F814C00AE091F803C0D0
:102D3000BCF1480F05D14FF0010C0CFA00FCC2F8B1
:102D400010C0401C0828D1D31460B1F800C0BCF1F9
:102D5000FF0F34DD546800202EE000F1080C4FF026
:102D6000010808FA0CF3B1F800C00CEA03069E4211
:102D700021D183004FF00F0C0CFA03F7BC4305FA86
:102D800003FC4CEA040491F803C0BCF1280F05D100
:102D900000F1080C08FA0CF8C2F8148091F803C08E
:102DA000BCF1480F07D100F1080C4FF0010808FAF8
:102DB0000CF8C2F81080401C0828CED35460BDE83F
:102DC000F0814FF6FF710180022181700421C170F2
:102DD00070470246002093680B400BB1012000E0D1
:102DE000002070470146886880B270470246002084
:102DF000D3680B400BB1012000E000207047014672
:102E0000C86880B2704701617047416170470AB17C
:102E1000016100E041617047C16070474FF480324A
:102E20000A438261816182618269826970470246D8
:102E30000020434B18684FF68073184040EA021098
:102E400008433F4B186070473E49C8617047F0B572
:102E50000A46002300240021002500F00046B6F1B8
:102E6000004F02D1364EF16901E0354E7168C0F372
:102E7000034583B200F44016B6F5401F08D121F097
:102E800070612F4E766826F070662D4F7E6012E0DE
:102E900000F48016B6F5801F06D1032606FA05F465
:102EA000A14341F0706106E0460D360103FA06F6D3
:102EB000B14341F0706122B1460D360103FA06F6C6
:102EC000314300F00046B6F1004F02D11C4EF161D3
:102ED00001E01B4E7160F0BD30B500228B071C0F66
:102EE0000F2303FA04F2164B08338C1053F82430E6
:102EF0009343134C08348D1044F8253023468C102E
:102F000053F824308C07240F00FA04F423430C4CAC
:102F100008348D1044F8253030BD0A49DC31086092
:102F20007047000000080140000C01400010014003
:102F30000014014000180140001C01400020014025
:102F400000000140000020420E49086070470D4912
:102F5000486070470B49886070474AF6AA200949C3
:102F6000086070474CF6CC4006490860704701463F
:102F70000020044AD2680A400AB1012000E0002083
:102F80007047000000300040DF48006840F001005A
:102F9000DD49086008464068DC490840DA49486075
:102FA00008460068DA490840D749086008460068C2
:102FB00020F4802008600846406820F4FE00486045
:102FC0004FF41F0088607047CF49096821F48031B1
:102FD000CD4A11601146096821F480211160B0F5D5
:102FE000803F03D0B0F5802F0ED106E0C6490968B6
:102FF00041F48031C44A116007E0C349096841F4D3
:10300000A021C14A116000E000BF00BF704710B5A9
:1030100001460022002300204A11012A02D1BA4CA5
:10302000236806E0022A02D1B74C236A01E0B64CBD
:10303000636A01F01F02012494401C400CB101207E
:1030400000E0002010BD38B50020009000240025CD
:1030500000BF3120FFF7DBFF05460098401C0090C1
:103060000098B0F5A06F01D0002DF2D03120FFF70D
:10307000CEFF08B1012400E00024204638BD0146FF
:103080000020A14A106820F0F80040EAC10010605A
:103090007047A04908607047024600209A4B586864
:1030A00020F47C1042EA01031843974B58607047A4
:1030B00098490866704701460020934A506820F0FE
:1030C00003000843506070478F48406800F00C00D0
:1030D0007047014600208C4A506820F0F0000843F9
:1030E0005060704701460020874A506820F4E06035
:1030F00008435060704701460020834A506820F41E
:10310000605040EAC1005060704729B17E4A527A4F
:1031100002437D4B5A7204E07B4A527A82437A4BD7
:103120005A7270477B49D8310860704701460020C9
:10313000754A506820F440400843506070470021B1
:10314000714A20321170704A82F82010012802D092
:1031500004280AD104E001216B4A2032117005E0F5
:103160000521694A2032117000E000BF00BF70479E
:103170006949086070476449096A0143624A1162FB
:103180007047654944390860704730B50021002216
:10319000002400235C4D6D6805F00C0121B1042969
:1031A00005D0082923D105E05C4D056022E05B4D88
:1031B00005601FE0544D6D6805F47012524D6D6846
:1031C00005F48034022505EB92421CB9544D554359
:1031D00005600BE04C4D6D6805F400351DB1504D98
:1031E0005543056002E04D4D5543056002E04B4DEF
:1031F000056000BF00BF444D6D6805F0F00109098E
:10320000484D6B5C0568DD4045603F4D6D6805F4D9
:10321000E061090A434D6B5C4568DD4085603A4DCD
:103220006D6805F46051C90A3E4D6B5C4568DD4030
:10323000C560354D6D6805F44041890B3A4D6B5CB6
:10324000C568B5FBF3F5056130BD29B12E4A526959
:1032500002432D4B5A6104E02B4A526982432A4BA8
:103260005A61704729B1284A92690243264B9A61F4
:1032700004E0254A92698243234B9A61704729B141
:10328000214AD2690243204BDA6104E01E4AD26926
:1032900082431D4BDA61704729B11B4AD268024351
:1032A000194BDA6004E0184AD2688243164BDA60A0
:1032B000704729B1144A12690243134B1A6104E0A2
:1032C000114A12698243104B1A6170471249403902
:1032D000086070470F49C86470470B49C871704750
:1032E0000948406A40F080700749486270470146CB
:1032F0000020054A92680A400AB1012000E000203F
:103300007047014988727047001002400000FFF8C2
:10331000FFFFF6FE000042428004424200127A00A3
:1033200000093D00841B0020941B002010B50446BA
:10333000FE48844208D10121C014FFF7ADFF0021EF
:10334000E014FFF7A9FFC4E0B4F1804F08D10121D8
:103350000846FFF7AEFF00210120FFF7AAFFB8E003
:10336000F348844208D101210220FFF7A2FF002187
:103370000220FFF79EFFACE0EE48844208D1012115
:103380000420FFF796FF00210420FFF792FFA0E042
:10339000E948844208D101210820FFF78AFF002173
:1033A0000820FFF786FF94E0E448844208D1012119
:1033B0001020FFF77EFF00211020FFF77AFF88E042
:1033C000DF48844208D101212020FFF772FF00214D
:1033D0002020FFF76EFF7CE0DA48844208D101210B
:1033E0004014FFF759FF00216014FFF755FF70E00C
:1033F000D548844209D10121C804FFF74DFF0021BF
:103400004FF40020FFF748FF63E0D048844209D121
:1034100001210805FFF740FF00214FF48010FFF75E
:103420003BFF56E0CA48844209D101214805FFF715
:1034300033FF00214FF40010FFF72EFF49E0C5488D
:10344000844208D101214020FFF733FF00214020B2
:10345000FFF72FFF3DE0C048844208D101218020C2
:10346000FFF727FF00218020FFF723FF31E0BB4853
:10347000844208D101218015FFF71BFF0021A01510
:10348000FFF717FF25E0B648844209D1012108045F
:10349000FFF702FF00214FF48030FFF7FDFE18E038
:1034A000B048844209D101214804FFF7F5FE00210C
:1034B0004FF40030FFF7F0FE0BE0AB48844208D138
:1034C00001218804FFF7E8FE00214FF48020FFF778
:1034D000E3FE10BD00220288944B98420ED0994B17
:1034E00098420BD0B0F1804F08D0914B984205D054
:1034F000904B984202D0904B984204D14FF68F7374
:103500001A404B881A438D4B984207D08C4B9842F7
:1035100004D04FF6FF431A40CB881A4302808B88B1
:1035200083850B880385814B98420BD0854B98424D
:1035300008D08B4B984205D08A4B984202D08A4BD8
:10354000984201D10B7A038601238382704770B5BC
:10355000002400220023058C4FF6FE7635400584BA
:10356000028C8388048B4FF68F752C40B51E2C403F
:103570000D882C43751E2A400D892A434D882A4305
:103580006A4DA8420BD06F4DA84208D0744DA84296
:1035900005D0744DA84202D0734DA84213D14FF606
:1035A000F7752A404D892A434FF6FB752A408D88CE
:1035B0002A434FF6FF652B404FF6FF552B408D8970
:1035C0002B43CD892B4383800483CD888586028459
:1035D00070BD70B5002400220023058C4FF6EF76F5
:1035E00035400584028C8388048B48F6FF752C4097
:1035F0004FF6FF452C400D884FF6FF7606EA05256D
:103600002C434FF6DF752A400D8906EA05152A433B
:103610004D8806EA05152A43444DA84202D0494D7B
:10362000A8421DD14FF67F752A404D894FF6FF768F
:1036300006EA05152A434FF6BF752A408D8806EA2B
:1036400005152A434FF6FF352B404FF2FF752B40EF
:103650008D8906EA85052B43CD8906EA85052B432E
:1036600083800483CD880587028470BD70B50024F3
:1036700000220023058C4FF6FF6635400584028C3E
:103680008388848B4FF68F752C404FF6FC752C4049
:103690000D882C434FF6FF552A400D894FF6FF76D3
:1036A00006EA05252A434D8806EA05252A431F4DCB
:1036B000A84202D0234DA8421DD14FF2FF752A40E7
:1036C0004D894FF6FF7606EA05252A434FF6FF356A
:1036D0002A408D8806EA05252A434EF6FF752B40C1
:1036E0004DF6FF752B408D8906EA05152B43CD89D4
:1036F00006EA05152B4383808483CD888587028461
:1037000070BD70B5002200230024058C4EF6FF76B4
:1037100035400584038C8488828B48F6FF752A40E7
:103720004FF6FF452A400D8820E00000002C0140A4
:103730000004004000080040000C00400010004061
:103740000014004000340140004C01400050014092
:103750000054014000180040001C004000200040C0
:103760000040014000440140004801404FF6FF7610
:1037700006EA05252A434DF6FF752B400D8906EA1A
:1037800005352B434D8806EA05352B43FA4DA842F3
:1037900002D0FA4DA84208D14BF6FF752C408D8916
:1037A0004FF6FF7606EA85152C4384808283CD8808
:1037B000A0F84050038470BD828B4FF2FF331A4053
:1037C0008283828B4FF6FF7303EA01231A438283BD
:1037D0007047F0B50C461546002200210026078CE4
:1037E0004EF6FF7C07EA0C070784828B018C4FF6AC
:1037F000FF7707EA043640F6FF473A404FF6FF7777
:1038000007EA05273A434FF6FF7707EA03373A43BB
:10381000D94FB8420ED0D94FB8420BD0B0F1804F3B
:1038200008D0D74FB84205D0D64FB84202D0D64FB5
:10383000B84206D14DF6FF77394046F480573943F8
:1038400005E047F6FF57394044F4805739438283F7
:103850000184F0BD828B4FF6F3731A408283828B12
:103860000A4382837047F0B50C46154600220021BA
:103870000026078C4FF6FF6C07EA0C070784828B43
:10388000018C4FF6FF7707EA04264FF60C773A4093
:103890004FF6FF7707EA03172F433A43B64FB84274
:1038A0000ED0B64FB8420BD0B0F1804F08D0B44F15
:1038B000B84205D0B34FB84202D0B34FB84206D198
:1038C0004FF6FF57394046F48077394305E04FF211
:1038D000FF57394044F48077394382830184F0BD37
:1038E000028B4FF2FF331A400283028B4FF6FF73B5
:1038F00003EA01231A4302837047F0B50C461546CC
:10390000002200210026078C4FF6EF7C07EA0C0707
:103910000784028B018C4FF6FF7707EA041640F606
:10392000FF473A404FF6FF7707EA03373A434FF62F
:10393000FF7707EA05273A438F4FB8420ED08F4FE3
:10394000B8420BD0B0F1804F08D08D4FB84205D0AF
:103950008C4FB84202D08C4FB84206D14FF6DF7779
:10396000394046F01007394305E04FF65F7739409C
:1039700044F01007394302830184F0BD028B4FF6F7
:10398000F3731A400283028B0A4302837047F0B537
:103990000C46154600220021068C4FF6FE773E406D
:1039A0000684028B018C4FF60C7632407E1C06EAB0
:1039B00003162E433243704EB0420ED06F4EB042CB
:1039C0000BD0B0F1804F08D06D4EB04205D06D4E97
:1039D000B04202D06C4EB04206D14FF6FD76314077
:1039E00044F00106314305E04FF6F576314044F0EE
:1039F0000106314302830184F0BD70B505460C46D3
:103A00005D4885420ED05D4885420BD0B5F1804FB0
:103A100008D05B48854205D05A48854202D05A48B2
:103A2000854200D100E000BF208850B92389A288D8
:103A300061882846FFF7ABFFE1882846FFF79EFF25
:103A400025E0208804280AD12389A2886188284695
:103A5000FFF753FFE1882846FFF742FF17E0208871
:103A600008280AD12389A28861882846FFF7FBFE2F
:103A7000E1882846FFF7EEFE09E02389A2886188E5
:103A80002846FFF7A6FEE1882846FFF795FE70BDA1
:103A90002DE9F04105460C4600260127608808B94B
:103AA000022600E00026A088012801D1022700E0BC
:103AB00001272088A0B92389A28861882846FFF7BA
:103AC00066FFE1882846FFF759FF23893A463146C9
:103AD0002846FFF712FFE1882846FFF701FF13E0B1
:103AE0002389A28861882846FFF707FFE1882846D6
:103AF000FFF7F6FE23893A4631462846FFF747FF8F
:103B0000E1882846FFF73AFFBDE8F0810A884B8834
:103B10001A438B881A43CB881A430B891A434B8963
:103B20001A438B891A43A0F8442070474FF6FF715F
:103B3000818000210180C180418001727047002195
:103B4000018041808180C180018141818181C18169
:103B50007047002101804180012181800021C180C6
:103B6000018170470021018041808180C1800181F5
:103B70004181818170470000002C014000340140E8
:103B80000004004000080040000C004021B1028801
:103B900042F00102028004E002884FF6FE731A40F0
:103BA0000280704731B1B0F8442042F40042A0F8DE
:103BB000442005E0B0F84420C2F30E02A0F84420EF
:103BC00070471AB183890B43838102E083898B4359
:103BD000838170478182704741EA0203A0F8483030
:103BE00070471AB183890B43838102E083898B4339
:103BF0008381704701894FF6F87211400181704747
:103C00000A46002101894FF68F7319401143018143
:103C1000704730B504460D4629462046FFF7F0FFB1
:103C2000208940F00700208130BD2DE9F041044695
:103C30000D4616461F46602D06D13B4601223146F1
:103C40002046FFF75AFE05E03B460122314620465A
:103C5000FFF79DFE29462046FFF7D2FF208940F05E
:103C600007002081BDE8F08130B50C4600210189B4
:103C7000C9B24FF6FF7505EA0325154325432943CD
:103C8000018130BD2DE9F04105460E4617469846A4
:103C9000002443463A4631462846FFF7E5FF2C8983
:103CA0004FF6F870044044F007044FF68F7004405C
:103CB00044F070042C81BDE8F081F0B504460D4657
:103CC00016461F463B46324629462046FFF7CCFFA4
:103CD000208940F480402081F0BD018582827047B8
:103CE0000A46002101884FF68F7319401143018065
:103CF0007047F0B50C4615461E46002100220023F1
:103D00000189028B038C4FF6F877394021434FF637
:103D1000FC473A4040F201173A434FF6DD773B400B
:103D20004FF6FF7707EA06172F433B4301810283D3
:103D30000384F0BD0A460021018B4FF68F731940B2
:103D40001143018370470A460021018B48F6FF7337
:103D500019404FF6FF7303EA0223194301837047AA
:103D60000A460021818B4FF68F73194011438183DE
:103D700070470A460021818B48F6FF7319404FF6C1
:103D8000FF7303EA022319438183704721B102883C
:103D900042F08002028004E002884FF67F731A40EE
:103DA0000280704721B1828842F00402828004E0E0
:103DB00082884FF6FB731A408280704721B1828857
:103DC00042F00802828004E082884FF6F7731A40BE
:103DD0008280704721B1828842F00102828004E033
:103DE00082884FF6FE731A40828070470A4600218F
:103DF000018B4FF6F77319401143018370470A4650
:103E00000021018B4FF2FF7319404FF6FF7303EA55
:103E100002231943018370470A460021818B4FF624
:103E2000F77319401143818370470A460021818B43
:103E30004FF2FF7319404FF6FF7303EA0223194351
:103E4000818370470A460021018B4FF6FB731940AE
:103E50001143018370470A460021018B4FF6FF335F
:103E600019404FF6FF7303EA022319430183704799
:103E70000A460021818B4FF6FB7319401143818361
:103E800070470A460021818B4FF6FF3319404FF6E9
:103E9000FF7303EA02231943818370470A46002116
:103EA000018B4FF67F7319401143018370470A4617
:103EB0000021018BC1F30E014FF6FF7303EA0223C9
:103EC0001943018370470A460021818B4FF67F73A7
:103ED00019401143818370470A460021818BC1F349
:103EE0000E014FF6FF7303EA0223194381837047E3
:103EF0000A460021018C4FF6FD73194011430184DD
:103F000070470A460021018C4FF6F77319401143A0
:103F1000018470470A460021018C4FF6DF73194077
:103F20004FF6FF7303EA02131943018470470A46F0
:103F30000021018C4FF67F7319404FF6FF7303EA9F
:103F400002131943018470470A460021018C4FF681
:103F5000FF5319404FF6FF7303EA0223194301840C
:103F600070470A460021018C4FF2FF7319404FF64B
:103F7000FF7303EA02231943018470470A460021B4
:103F8000018C4DF6FF7319404FF6FF7303EA0233BD
:103F900019430184704730B5002301248C40A3B23B
:103FA000048C9C430484048C02FA01F5ADB22C43CA
:103FB000048430BD30B5002304248C40A3B2048CAB
:103FC0009C430484048C02FA01F5ADB22C430484B2
:103FD00030BD70B503460020002418461830012576
:103FE0008D40ACB21D8CA5431D8409B1082909D1AF
:103FF00000EB6100056825F0700505600568154354
:1040000005600EE00D1FC5F34E052844056825F434
:10401000E045056005684FF6FF7606EA022635435F
:10402000056070BD21B1028842F00202028004E006
:1040300002884FF6FD731A400280704721B1028852
:1040400042F00402028004E002884FF6FB731A403B
:104050000280704721B1828842F08002828004E0B1
:1040600082884FF67F731A408280704702884FF62D
:10407000F7731A40028002880A43028070478288E0
:104080004FF68F731A40828082880A43828070477D
:1040900002894FF6F8731A40028102890A430281AD
:1040A000704702894FF67F731A40028102890A43E2
:1040B000028170478184704781857047818670478F
:1040C0000187704781877047A0F8401070470288C9
:1040D0004FF6FF431A40028002880A43028070476D
:1040E0000146888E70470146088F70470146888FC9
:1040F00070470146B1F8400070470146888C704710
:104100000146088D704702460020138A0B400BB110
:10411000012000E000207047CA430282704730B59A
:104120000246002000230024158A05EA0103958930
:1041300005EA010413B10CB1012000E0002030BDFC
:10414000CA4302827047000010B50446FB4884420F
:1041500009D101218803FFF79FF800214FF4804027
:10416000FFF79AF832E0F648844209D10121480469
:10417000FFF79FF800214FF40030FFF79AF825E091
:10418000F048844209D101218804FFF792F8002108
:104190004FF48020FFF78DF818E0EB48844209D1F6
:1041A0000121C804FFF785F800214FF40020FFF734
:1041B00080F80BE0E548844208D101210805FFF7AB
:1041C00078F800214FF48010FFF773F810BD2DE947
:1041D000F04786B005460E460024A24600BFA14621
:1041E0000027B08900B100BF2F462C8A4CF6FF7023
:1041F0000440F08804432C82AC894EF6F31004404E
:10420000B08831890843718908430443AC81AC8A82
:104210004FF6FF400440B0890443AC8201A8FEF78A
:10422000B4FFC648874202D1DDF810A001E0DDF8F6
:104230000CA0A88900F4004040B10AEBCA0000EBD2
:104240000A1031684900B0FBF1F807E00AEBCA0038
:1042500000EB0A1031688900B0FBF1F86420B8FB6C
:10426000F0F004012009642101FB1089A88900F401
:10427000004040B1322000EBC900B0FBF1F000F08B
:104280000700044308E0322000EB09106421B0FB72
:10429000F1F000F00F0004432C8106B0BDE8F08778
:1042A0004FF41651016000218180C18001810C21F1
:1042B000418100218181704710B502460020108A9B
:1042C0004FF2FF0318400B884C8823438C8823430C
:1042D000CC8823431843108210BD00210180418007
:1042E0008180C180704721B1828942F4005282816D
:1042F00004E082894DF6FF731A4082817047F0B561
:104300000346002400260025002040F66A17B94223
:1043100000D100BF1846C1F3421401F01F06012767
:1043200007FA06F5012C01D10C3004E0022C01D172
:10433000103000E014301AB107682F43076002E024
:104340000768AF430760F0BD1AB1838A0B438382CD
:1043500002E0838A8B4383827047028A4FF6F073B0
:104360001A400282028A0A430282704782894FF20F
:10437000FF731A40828182890A438281704721B18A
:10438000828942F00202828104E082894FF6FD7345
:104390001A4082817047028A4FF6DF731A40028208
:1043A000028A0A430282704721B1028A42F48042A3
:1043B000028204E0028A4BF6FF731A4002827047C1
:1043C000C1F308028280704701468888C0F3080064
:1043D0007047818941F0010181817047028BD2B21F
:1043E0000283028B42EA012202837047028B02F4AD
:1043F0007F420283028B0A430283704721B1828A83
:1044000042F02002828204E0828A4FF6DF731A4073
:104410008282704721B1828A42F01002828204E0D7
:10442000828A4FF6EF731A408282704721B1828AE6
:1044300042F00802828204E0828A4FF6F7731A4043
:104440008282704721B1828942F40042828103E076
:104450008289C2F30E028281704721B1828A42F4BE
:104460000062828204E0828A4FF2FF731A408282E5
:104470007047828A4FF6FB731A408282828A0A430F
:104480008282704721B1828A42F00202828204E075
:10449000828A4FF6FD731A408282704702460020DE
:1044A000B1F5007F00D100BF13880B400BB1012094
:1044B00000E00020704701F40072B2F5007F00D1E7
:1044C00000BFCA430280704770B502460024002333
:1044D0000025002040F66A16B14200D100BFC1F3AA
:1044E000421501F01F03012606FA03F3012D02D144
:1044F0009689334006E0022D02D1168A334001E04E
:10450000968A33400C12012606FA04F416883440C9
:1045100013B10CB1012000E0002070BD10B50022E5
:10452000002340F66A14A14200D100BF0A12012400
:104530009440A3B2DC43048010BD00000038014069
:104540000044004000480040004C00400050004043
:1045500001460020FE4A106800F038000843106051
:104560007047FB49096821F00801F94A11601146BA
:104570000968014311607047F549096821F010018D
:10458000F34A116011460968014311607047F14810
:10459000EF494860F04848607047EE48EC49486091
:1045A000ED4848607047EA48006940F08000E849FB
:1045B00008617047E648006940F08000E4490861FE
:1045C00070470420E249C96801F0010109B10120E6
:1045D0000EE0DF49C96801F0040109B1022007E0DB
:1045E000DB49C96801F0100109B1032000E0042093
:1045F000704700B502460423FFF7E3FF034603E0DC
:10460000FFF7DFFF0346521E012B01D1002AF7D12D
:1046100002B90523184600BD30B5044604254FF401
:104620003020FFF7E6FF0546042D17D1C848006982
:1046300040F00200C649086108464461006940F044
:10464000400008614FF43020FFF7D3FF0546C04813
:10465000006941F6FD710840BD490861284630BD3A
:1046600010B504244FF43020FFF7C3FF0446042C98
:1046700016D1B748006940F00400B5490861084602
:10468000006940F0400008614FF43020FFF7B1FFAF
:104690000446AF48006941F6FB710840AC49086127
:1046A000204610BD00B502460423FFF78AFF0346EB
:1046B00003E0FFF786FF0346521E012B01D1002ABB
:1046C000F7D102B90523184600BD10B504244FF4F4
:1046D0003020FFF7E7FF0446042C16D19C48006900
:1046E00040F004009A4908610846006940F0400023
:1046F00008614FF43020FFF7D5FF04469448006965
:1047000041F6FB71084092490861204610BD002027
:104710008F49C96901F0020109B1012000E00020C0
:10472000704730B5A5250424FFF7F1FF00B100253F
:104730004FF43020FFF75DFF0446042C3AD1854842
:1047400083498860844888600846006940F02000FA
:1047500008610846006940F0400008614FF43020CD
:10476000FFF747FF0446042C1BD17948006941F646
:10477000DF710840764908610846006940F0100082
:10478000086176480580E002FFF733FF0446052CF8
:1047900010D06F48006941F6EF7108406C4908611C
:1047A00008E0052C06D06A48006941F6EF71084020
:1047B00067490861204630BD78B506460C46042599
:1047C00000200090E802FFF714FF0546042D24D1D5
:1047D0005F48006940F001005D4908613480E802EB
:1047E000FFF707FF0546042D10D1B01C0090200CE8
:1047F00000990880E802FFF7FCFE0546544800696E
:1048000041F6FE7108405249086106E050480069CF
:1048100041F6FE7108404E490861284678BD70B5E2
:1048200004460D460426F002FFF7E3FE0646042E7A
:1048300011D14748006940F00100454908612580D1
:10484000F002FFF7D6FE06464148006941F6FE71C8
:1048500008403F490861304670BD70B505460E46B8
:104860000424E002FFF7C5FE0446042C17D13948A2
:1048700037498860384888600846006940F0100071
:1048800008612E80E002FFF7B4FE0446052C06D036
:104890002F48006941F6EF7108402D490861204614
:1048A00070BD2DE9F04304464FF6FF763746B0461B
:1048B000B1460425E443E6B2C4F30727C4F307482E
:1048C0004FEA1469E802FFF794FE0546042D49D12A
:1048D00020481F498860204888600846006940F0E9
:1048E00010000861FF2E06D01C4808300680E80240
:1048F000FFF77FFE0546042D08D1FF2F06D017488D
:104900000A300780E802FFF774FE0546042D0AD13D
:10491000B8F1FF0F07D011480C30A0F80080E80272
:10492000FFF767FE0546042D0AD1B9F1FF0F07D046
:104930000A480E30A0F80090E802FFF75AFE05463C
:10494000052D0FD00248006941F6EF71084007E0DD
:104950000020024023016745AB89EFCD00F8FF1F1F
:10496000664908612846BDE8F08330B50546042451
:104970004FF43020FFF73DFE0446042C41D160483F
:104980005E4988605F4888600846006940F0200002
:1049900008610846006940F0400008614FF430208B
:1049A000FFF727FE0446042C22D15448006941F643
:1049B000DF710840514908610846006940F0100065
:1049C00008611DB100205049088002E0A5204E4931
:1049D00008804FF43020FFF70CFE0446052C10D061
:1049E0004648006941F6EF7108404449086108E013
:1049F000052C06D04148006941F6DF7108403F4967
:104A00000861204630BDF0B505460E461746042421
:104A10003B483A4988603B488860E002FFF7E9FD7F
:104A20000446042C19D13548006940F01000334980
:104A3000086147F0F800304328433349891C088057
:104A4000E002FFF7D6FD0446052C06D02B4800698E
:104A500041F6EF710840294908612046F0BD27481A
:104A6000C069800870472548006A704700202349C4
:104A7000096801F0200109B1012000E00020704721
:104A800029B11E4A126902431C4B1A6104E01B4AF9
:104A900012698243194B1A617047014600200129AF
:104AA00008D1164AD26902F001020AB1012008E0D9
:104AB000002006E0114AD2680A400AB1012000E055
:104AC000002070470D49C860704704200B49C96831
:104AD00001F0010109B101200EE00849C96801F0A7
:104AE000040109B1022007E00449C96801F010017E
:104AF00009B1032000E004207047000000200240BC
:104B000023016745AB89EFCD00F8FF1F0CB50020EE
:104B1000019000906C48006840F480306A49086059
:104B200000BF6948006800F4003000900198401C04
:104B30000190009818B90198B0F5A06FF1D16248C2
:104B4000006800F4003010B10120009001E0002066
:104B500000900098012843D15C48006840F01000A4
:104B60005A4908600846006820F0030008600846BB
:104B7000006840F0020008605348406852494860AD
:104B80000846406848600846406840F480604860D5
:104B90000846406820F47C1048600846406840F4AD
:104BA000E81048600846006840F08070086000BF68
:104BB0004548006800F000700028F9D0424840687D
:104BC00020F00300404948600846406840F0020079
:104BD000486000BF3C48406800F00C000828F9D14C
:104BE0000CBD10B5FFF792FF10BD10B53648006838
:104BF00040F00100344908600846406834490840E4
:104C00003149486008460068324908402E4908602A
:104C10000846006820F4802008600846406820F4B8
:104C2000FE0048604FF41F008860FFF7DAFF4FF086
:104C300000602949086010BD10B500210020002245
:104C4000214B5B6803F00C0121B1042906D008292F
:104C500028D107E0214B224C236027E01F4B204C3A
:104C6000236023E0184B5B6803F47010164B5B68FD
:104C700003F48032022303EB904022B9194B4343E3
:104C8000174C23600DE0104B5B6803F4003323B135
:104C9000144B4343124C236003E0104B4343104C2E
:104CA000236003E00D4B0E4C236000BF00BF064B9A
:104CB0005B68C3F303130C4CE15C094B1B68CB40EE
:104CC000074C236010BD000000100240002002408D
:104CD0000000FFF8FFFFF6FE08ED00E000127A008A
:104CE000981B002000093D009C1B002009488047BC
:104CF00009480047FEE7FEE7FEE7FEE7FEE7FEE7BE
:104D0000FEE7FEE7FEE7FEE704480549054A064BD5
:104D100070470000EB4B000831010008D824002048
:104D2000D82A0020D8260020D82600204168491C17
:104D30004160D0E90121914203D1012101600021AC
:104D40004160704700B52648006878B300202449C8
:104D500008602448FFF7EAFF2348FFF7E7FF2348EE
:104D6000FFF7E4FF2248FFF7E1FF2248FFF7DEFFED
:104D70002148FFF7DBFF2148FFF7D8FF2048FFF766
:104D8000D5FF2048FFF7D2FF1F48FFF7CFFF1F488E
:104D9000FFF7CCFF1E48FFF7C9FF1E48FFF7C6FF0D
:104DA0001D48FFF7C3FF1D48FFF7C0FF00BD10B54A
:104DB0000024046044608160C26065241C7010BDE2
:104DC00010B50024046044608160C26064241C70DB
:104DD00010BD0268012A01D1027B0A7070470000F1
:104DE000AC1B0020C41F0020D41F0020E41F0020A3
:104DF000F41F002004200020142000202420002084
:104E00003420002044200020542000206420002072
:104E1000742000208420002094200020A420002062
:104E20000120F7490870F7490870F7490870F749F9
:104E30000870F7490870F7490870F7490870F74992
:104E40000870F7490870F7490870F7490870F74982
:104E50000870F7490870F7490870F7490870002092
:104E6000F649C870012008704870002088707047AB
:104E700070B506460C4615462078342837D007DC36
:104E8000082871D2DFE800F0E5154357728AABBA03
:104E900038286AD006DC352846D0362858D037283E
:104EA00062D16FE0642877D0652876D0C828F7D122
:104EB000CEE0A87C012819D1E1480078012815D15D
:104EC0000020A8744FF40061DE48FDF79CFF4FF40A
:104ED0008051DC48FDF799FF0020DB4988742346A8
:104EE00034224FF4FA713046FFF76AFFB2E0D64839
:104EF000807C01280AD1C102D248FDF786FF2346F3
:104F000002224FF416713046FFF75AFFA2E04FF429
:104F10000041CC48FDF777FF234635224FF4167148
:104F20003046FFF74DFF95E023460322022130462D
:104F3000FFF746FF8EE04FF48061C248FDF763FF44
:104F4000234636224FF416713046FFF739FF81E0D1
:104F50004FF48041BB48FDF756FF2346042202214F
:104F60003046FFF72DFF75E073E02EE04FF48061CF
:104F7000B448FDF748FF2346072203213046FFF7D8
:104F80001FFF67E00020B1498874234605220221F3
:104F90003046FFF715FF5DE050E054E0AB48807C01
:104FA000012811D12021AA48FDF72FFF0421A8488C
:104FB000FDF729FF0020A7498874234638224FF4C3
:104FC00016713046FFF7FCFE44E00020A1498874CA
:104FD0002346062202213046FFF7F2FE3AE09D48C2
:104FE000807C012809D104219948FDF70EFF234652
:104FF000072202213046FFF7E3FE2BE00020904914
:1050000008700120944908700020944988749449DC
:10501000887494480078012806D193A001F0D4FA4E
:1050200000209049087002E091A001F0CDFA2346DB
:10503000012202213046FFF7C3FE0BE02146304635
:10504000FFF7C7FE06E021463046FFF7C2FE01E04B
:1050500000E000BF00BF70BD70B506460D461446A7
:105060002878092870D007DC6FD2DFE800F06E16D0
:105070002C334047545B7000642867D006DC0A2854
:1050800076D00B2875D014285FD1A3E0652871D0A5
:10509000662870D0C828F7D113E1A07C012811D16F
:1050A0006D48007801280DD10020A0744FF4804194
:1050B0006448FDF7AAFE2B4602224FF416713046D3
:1050C000FFF77EFEFFE02B46032202213046FFF76A
:1050D00077FEF8E04FF480615A48FDF796FE2B46C4
:1050E00004224FF416713046FFF76AFEEBE02B46C0
:1050F000052202213046FFF763FEE4E04FF4004151
:105100005048FDF782FE2B4606224FF416713046BA
:10511000FFF756FED7E02B46072202213046FFF765
:105120004FFED0E04FF480514648FDF76CFE4FF43F
:1051300000614448FDF769FE2B4608224FF41671C2
:105140003046FFF73DFEBEE016E0BBE098E04FF4CE
:1051500000613C48FDF759FE4FF480513948FDF796
:1051600054FE2B46142202213046FFF729FEAAE006
:1051700017E020E089E08DE03F48807C01280FD1D6
:1051800001033048FDF741FE4FF400712D48FDF753
:105190003AFE2B460A224FF416713046FFF710FEF6
:1051A00091E00020354988742B460B2202213046BD
:1051B000FFF706FE87E03148807C012809D14102D3
:1051C0002048FDF722FE2B46142202213046FFF72D
:1051D000F7FD78E001201A49087000201E49087088
:1051E000A0741E4988741E4988741FA001F0ECF950
:1051F0002B46012202213046FFF7E2FD63E000006A
:10520000B01B0020B11B0020B21B0020B31B0020EC
:10521000B41B0020B51B0020B61B0020B71B0020CC
:10522000B81B0020B91B0020BA1B0020BB1B0020AC
:10523000BC1B0020BD1B0020BE1B0020C51B002086
:10524000CA1B002000200140F4230020542300202A
:105250000014014094230020C91B0020B42000202A
:10526000D4200020CB1B00206F6B0D0A0000000033
:1052700072656164790D0A00F42200203423002055
:1052800029463046FFF7A5FD1DE029463046FFF7C9
:10529000A0FD18E04FF40071F748FDF7B6FD4FF49C
:1052A0008071F648FDF7AFFD4FF48071F248FDF7CD
:1052B000ACFD2B4602224FF4FA713046FFF780FD19
:1052C00001E000E000BF00BF70BD70B506460D46AE
:1052D00014462878642827D006DC01280BD0022841
:1052E0001AD0062844D11EE0652822D066282AD08C
:1052F000C8283DD13BE0A07C012805D10020A07446
:105300000120DF49087006E0207D012803D100203C
:105310002075DB4908702CE02B460B220521304616
:10532000FFF74EFD25E024E029463046FFF751FD0A
:105330001FE029463046FFF74CFD207F012801D1B0
:105340006620287015E01021CE48FDF75EFD202173
:10535000CC48FDF758FD0821CA48FDF756FD2B46FD
:1053600002224FF4FA713046FFF72AFD01E000E017
:1053700000BF00BF70BD70B506460C4615462078CC
:1053800065281DD004DC012807D0642838D112E03C
:1053900066281FD0C82833D131E0A87C012809D164
:1053A0000020A874FCF702FB2346012202213046AC
:1053B000FFF706FD25E021463046FFF70AFD20E015
:1053C00021463046FFF705FD287F012801D16620E0
:1053D000207016E00121AB48FDF717FD0221A94816
:1053E000FDF711FD4FF48051A348FDF70EFD234654
:1053F00002224FF4FA713046FFF7E2FC01E000E0D0
:1054000000BF00BF70BD70B506460C46154620783B
:10541000012806D0642815D0652818D0C8281CD1CA
:105420001AE0A87C01280CD10020A874FCF782FEA9
:10543000FCF7A6FD2346012240F252313046FFF729
:10544000BFFC0BE021463046FFF7C3FC06E02146D7
:105450003046FFF7BEFC01E000E000BF00BF70BDBA
:1054600070B506460D46144628780B2833D007DC65
:1054700007286ED2DFE800F08A112338525E6700F9
:1054800066286DD004DC64285ED065287ED162E099
:1054900067283BD0C82879D177E0A07C01280DD1BE
:1054A0000020A0744FF480617748FDF7ACFC2B46D8
:1054B000022240F252313046FFF782FC67E04FF49F
:1054C00080617148FDF7A1FC2B460B220521304677
:1054D000FFF776FC5BE00020A0742B46032202213C
:1054E0003046FFF76DFC52E0A07C01280DD1002072
:1054F000A07420774FF400716348FDF784FC2B46BD
:10550000672202213046FFF75BFC40E02B46042275
:1055100040F252313046FFF74AFC38E04FF4007158
:105520005948FDF772FC2B46052232213046FFF721
:1055300047FC2CE00020A0742B460122322130468B
:10554000FFF73EFC23E022E029463046FFF741FC0E
:105550001DE01BE004E029463046FFF73AFC16E068
:105560004FF480714848FDF750FC40214248FDF758
:105570004AFC80214448FDF748FC2B4602224FF4A8
:10558000FA713046FFF71CFC01E000E000BF00BFED
:1055900070BD70B506460D46144628780B2833D0EA
:1055A00007DC072872D2DFE800F095112338525E3D
:1055B0007400662878D004DC64286BD0652865D137
:1055C0006DE067283BD0C828F9D182E0A07C012893
:1055D0000DD10020A0744FF400612B48FDF713FC9F
:1055E0002B46022240F252313046FFF7E9FB72E0CF
:1055F0004FF400612448FDF708FC2B460B220521DF
:105600003046FFF7DDFB66E00020A0742B46032246
:1056100002213046FFF7D4FB5DE0A07C01280DD1CC
:105620000020A07420774FF480511748FDF7EBFB62
:105630002B46672202213046FFF7C2FB4BE02B4688
:10564000042240F252313046FFF7B1FB43E04FF401
:1056500080510D48FDF7D9FB2B46052232213046FB
:10566000FFF7AEFB37E00020A0742B460122322169
:105670003046FFF7A5FB2EE0001001400008014076
:10568000C41B0020001401400020014022E00BE078
:1056900000E020E029463046FFF79BFB1BE029464F
:1056A0003046FFF796FB16E00421FC48FDF7ADFB02
:1056B0000821FA48FDF7A7FB4FF40041F848FDF731
:1056C000A4FB2B4602224FF4FA713046FFF778FB19
:1056D00001E000E000BF00BF70BD70B506460D469A
:1056E000144628780B2831D007DC07286FD2DFE872
:1056F00000F0881122364F5A6300662869D004DC16
:1057000064285AD065287CD15CE0672838D0C82846
:1057100077D175E0A07C01280CD10020A074202155
:10572000DF48FDF770FB2B46022240F25231304633
:10573000FFF746FB66E02021D948FDF766FB2B46C4
:105740000B2205213046FFF73BFB5BE00020A074F5
:105750002B46032202213046FFF732FB52E0A07CA9
:1057600001280CD10020A07420771021CC48FDF72F
:105770004AFB2B46672202213046FFF721FB41E01E
:105780002B46042240F252313046FFF710FB39E03D
:105790001021C348FDF739FB2B4605220A2130466C
:1057A000FFF70EFB2EE00020A0742B4601220A21F9
:1057B0003046FFF705FB25E024E029463046FFF799
:1057C00008FB1FE029463046FFF703FB1AE018E00C
:1057D000FFE74FF48051B248FDF717FB4FF400513B
:1057E000AF48FDF710FB4FF40061AD48FDF70DFB2E
:1057F0002B4602224FF4FA713046FFF7E1FA01E03E
:1058000000E000BF00BF70BD70B506460D461446EF
:1058100028780B2831D007DC07286FD2DFE800F0AA
:10582000881122364F5A6300662869D004DC642848
:105830005AD065287CD15CE0672838D0C82877D159
:1058400075E0A07C01280CD10020A07404219448AC
:10585000FDF7D9FA2B46022240F252313046FFF7CB
:10586000AFFA66E004218E48FDF7CFFA2B460B22F3
:1058700005213046FFF7A4FA5BE00020A0742B4618
:10588000032202213046FFF79BFA52E0A07C012858
:105890000CD10020A074207708218148FDF7B3FACD
:1058A0002B46672202213046FFF78AFA41E02B4659
:1058B000042240F252313046FFF779FA39E00821EC
:1058C0007748FDF7A2FA2B46052232213046FFF732
:1058D00077FA2EE00020A0742B46012232213046B8
:1058E000FFF76EFA25E024E029463046FFF771FA0B
:1058F0001FE029463046FFF76CFA1AE018E0FFE790
:105900004FF480516748FDF780FA4FF40051654825
:10591000FDF779FA4FF400616248FDF776FA2B46FD
:1059200002224FF4FA713046FFF74AFA01E000E034
:1059300000BF00BF70BD70B506460D4614462878FE
:105940000B2830D008DC01280FD002281FD00328F4
:1059500036D0042871D13FE0642846D0652849D06C
:10596000662851D0C82868D166E0A07C01280DD1F6
:105970000020A0744FF400714B48FDF744FA2B4609
:1059800002224FF42F713046FFF71AFA56E04FF417
:1059900000714548FDF739FA2B46042205213046AF
:1059A000FFF70EFA4AE04FF400713F48FDF72BFA7B
:1059B0002B4603224FF42F713046FFF701FA3DE0EA
:1059C0004FF400713848FDF720FA2B4604220221DB
:1059D0003046FFF7F5F931E02B46012232213046FF
:1059E000FFF7EEF90020A07428E029463046FFF7C3
:1059F000F0F923E029463046FFF7EBF9207F012834
:105A000001D16620287019E04FF480412748FDF746
:105A1000FCF94FF400412548FDF7F5F94FF400512A
:105A20002248FDF7F2F92B4602224FF4FA71304674
:105A3000FFF7C6F902E000E000E000BF00BF70BD64
:105A400070B505460C462078032831D004DC0128C7
:105A500007D0022839D112E0642830D0C82834D1C8
:105A600032E04FF480610F48FDF7CFF9FAF70EFDF1
:105A700023460222C8212846FFF7A2F926E04FF468
:105A800080610848FDF7BFF9FAF700FD23460122BF
:105A9000C8212846FFF794F918E0000000200140D3
:105AA00000140140000C01400010014000180140AA
:105AB0002346012203212846FFF782F906E021460A
:105AC0002846FFF786F901E000E000BF00BF70BD87
:105AD000012080F3138800BF00BF0748006800F46E
