:020000040800F2
:10000000F8420020155A0008BF020008C10200088B
:10001000C5020008C9020008CD0200080000000067
:10002000000000000000000000000000D1020008F5
:10003000D302000800000000D5020008D702000823
:100040002F5A00082F5A00082F5A00082F5A00086C
:100050002F5A00082F5A00082F5A00082F5A00085C
:100060002F5A00082F5A00082F5A00082F5A00084C
:100070002F5A00082F5A00082F5A00082F5A00083C
:100080002F5A00082F5A00082F5A00082F5A00082C
:100090002F5A00082F5A00082F5A00082F5A00081C
:1000A0002F5A00082F5A00082F5A00082F5A00080C
:1000B000DD1400082F5A00082F5A00082F5A000894
:1000C0002F5A00082F5A00082F5A00082F5A0008EC
:1000D0002F5A0008D91600082F5A00082F5A000876
:1000E0002F5A00082F5A00082F5A00082F5A0008CC
:1000F0002F5A00082F5A00082F5A00082F5A0008BC
:100100002F5A00082F5A00082F5A00082F5A0008AB
:100110002F5A00082F5A00082F5A00082F5A00089B
:100120002F5A00082F5A00082F5A00082F5A00088B
:1001300000F002F800F0B4F80AA090E8000C824445
:100140008344AAF10107DA4501D100F0A9F8AFF222
:10015000090EBAE80F0013F0010F18BFFB1A43F0A5
:100160000103184784890000A489000010F8013BAE
:100170000A4413F0030408BF10F8014B1D1108BF17
:1001800010F8015B641E05D010F8016B641E01F8C5
:10019000016BF9D1002D15D010F8014B03F00C03C1
:1001A0000C2BA1EB04040ABF10F8013BA4EB831451
:1001B000A4EB032405F1010314F8016B5B1E01F8A5
:1001C000016BF9D5914238BF10F8013BD1D370478C
:1001D0000023002400250026103A28BF78C1FBD850
:1001E000520728BF30C148BF0B6070476E2907F027
:1001F000E682702907F05184662908F00784652992
:1002000008F00484672908F001846129AFF30080B5
:1002100003681B0A28BF41F08001692907F0DA80D2
:10022000642907F0D780752907F0D4806F2907F07B
:10023000DF83782907F01D84E92907F07983E42911
:1002400007F07683F52907F07383EF2907F0DC8345
:10025000F82907F01C840368DB0928BF41F08001FE
:10026000632907F0E882732907F0ED82E32907F09C
:10027000AD86F32907F0B286002070471FB507F05E
:1002800003FF04000020002108F0AAFB401C60606E
:100290000020002108F08EFBE0601FBD10B510BDEE
:1002A00007F0C4FE1146FFF7E9FF01F0E2F807F09E
:1002B0009DFF03B4FFF7F2FF03BC01F0A9F97047FB
:1002C00000BFFEE700BFFEE700BFFEE700BFFEE79E
:1002D000704770477047704708B52020ADF80000A0
:1002E00001208DF8020010208DF803006946FA48BD
:1002F00003F0EAF92021F84803F095FA08BD00B5AB
:1003000087B0012141F2050003F0BAFCE020ADF80E
:10031000180003208DF81A0018208DF81B0006A97C
:10032000EE4803F0D1F9E021EC4803F07AFA10200E
:10033000ADF8180003208DF81A0010208DF81B006E
:1003400006A9E64803F0C0F91021E44803F069FA71
:100350000020ADF804004FF48270ADF806000020D4
:10036000ADF80800ADF80A00ADF80C004FF40070CD
:10037000ADF80E000020ADF81000ADF81200072017
:10038000ADF8140001A9D64803F004FD0121D448BA
:1003900003F0A5FD07B000BD10B504462146D048C6
:1003A00003F0CEFD00BF0221CD4803F01CFE002863
:1003B000F9D010BD70B504462546E11704EB116174
:1003C000C1F30720FFF7E8FFE0B2FFF7E5FF70BDDC
:1003D00070B505460C461021C04803F024FA2846A3
:1003E000FFF7E8FF0520FFF7D7FF2046FFF7D4FF10
:1003F0001021BA4803F015FA70BD70B505460C46D9
:100400001021B64803F00FFA2846FFF7D3FF062065
:10041000FFF7C2FF2046FFF7CDFF1021AF4803F0E2
:1004200000FA70BD2DE9F04107460C461546102133
:10043000AA4803F0F8F93846FFF7BCFF0420FFF79D
:10044000ABFF002605E014F8010BFFF7A5FF701CB9
:1004500086B2AE42F7DB1021A04803F0E2F9BDE816
:10046000F08170B504460D46164610219B4803F0F6
:10047000DAF92846FFF79EFF082101EB4411C9B2C3
:1004800041F00500FFF788FF3046FFF785FF102198
:10049000924803F0C6F970BD70B504460D46164685
:1004A00010218E4803F0BFF92846FFF783FF08218B
:1004B00001EB4411C9B241F00600FFF76DFF304671
:1004C000FFF778FF1021854803F0ABF970BD70B5D8
:1004D00005460E4614461021804803F0A4F9304624
:1004E000FFF768FF082101EB4511C9B241F0070091
:1004F000FFF752FF14F8010BFFF74EFF14F8010B42
:10050000FFF74AFF14F8010BFFF746FF14F8010B41
:10051000FFF742FF1021714803F083F970BD70B5F9
:10052000044610216D4803F07EF92046FFF742FF94
:100530000120FFF731FF6A4803F004FDC5B2002037
:10054000FFF72AFF664803F0FDFCC5B2102163489F
:1005500003F067F9284670BD70B504460D461021BA
:100560005E4803F060F92846FFF724FF082101EBFD
:100570004411C9B241F00100FFF70EFF584803F0E3
:10058000E1FCC6B20020FFF707FF554803F0DAFC94
:10059000C6B21021514803F044F9304670BD70B521
:1005A00005460E4610214D4803F03DF93046FFF751
:1005B00001FF082101EB4511C9B241F00200FFF72C
:1005C000EBFE474803F0BEFC04460020FFF7E4FEC4
:1005D000434803F0B7FC04460020FFF7DDFE4FF66A
:1005E000FF7000EA04243E4803F0ACFC204484B2CF
:1005F00010213A4803F015F9204670BD2DE9F04767
:1006000080460D4626214046FFF7C9FF064616B92B
:100610000020BDE8F08740F2B450864200DD064677
:1006200028214046FFF7BBFF0746B946C7F30A0734
:1006300010212A4803F0F7F83846FFF7BBFE1821CF
:1006400001EB4811C8B2FFF7A7FE254803F07AFC7A
:1006500000F0FF0AB819B0F5006F11DA00240CE0C1
:100660000020FFF799FE1E4803F06CFC00F0FF0A23
:1006700085F800A06D1C601C84B2B442F0DB40E041
:10068000C7F5006087B200240CE00020FFF784FE6D
:10069000134803F057FC00F0FF0A85F800A06D1C1A
:1006A000601C84B2BC42F0DB10210C4803F0B9F8A6
:1006B00010210A4803F0B7F80020FFF77BFE18214D
:1006C00001EB4811C8B2FFF767FE054803F03AFC9A
:1006D00000F0FF0A13E00000001001400008014094
:1006E000003001400020FFF757FEF74803F02AFCD6
:1006F00000F0FF0A85F800A06D1C601C84B2B442B3
:10070000F0DB1021F14803F08CF809EB06001FFA2A
:1007100080F94A4628214046FFF7BEFE40220121CB
:100720004046FFF79EFE304673E72DE9F047074647
:100730000D46904600213846FFF70EFF00F00F00EF
:1007400022280ED0E24A0C213846FFF7C0FEE148CD
:100750004178007801EB002082B210213846FFF783
:100760009BFE24213846FFF71AFF0646B146C6F322
:100770000A061021D54803F056F83046FFF71AFE56
:10078000102101EB4711C9B241F00400FFF704FE4C
:1007900006EB0800B0F5006F0ADA002405E015F852
:1007A000010BFFF7F9FD601C84B24445F7DB28E03C
:1007B000C6F5006086B2002405E015F8010BFFF7CE
:1007C000EBFD601C84B2B442F7DB1021BF4803F09C
:1007D00028F81021BD4803F026F80020FFF7EAFDB5
:1007E000102101EB4711C9B241F00400FFF7D4FD1D
:1007F00005E015F8010BFFF7CFFD601C84B24445FE
:10080000F7DB1021B14803F00CF809EB08001FFAE0
:1008100080F94A4624213846FFF73EFE2022012176
:100820003846FFF71EFEBDE8F08710B52021AA4824
:1008300002F0F9FF322000F06CFE2021A64802F001
:10084000F0FFC82000F065FE10BD10B50024802127
:100850000020FFF7BDFD0A2000F05BFE04229F4947
:100860000120FFF7DFFD04229D490520FFF7DAFD97
:1008700006229C490920FFF7D5FD04229A490F2042
:10088000FFF7D0FD00BF0BE002221E212046FFF73C
:10089000E8FD02221F212046FFF7E3FD601CC4B2E1
:1008A000082CF1DB4FF4FA611920FFF7A6FD0821AF
:1008B0001B20FFF78DFD10BD38B58B480078401C1C
:1008C000C0B28DF8000088484078401CC0B28DF856
:1008D000010085488078401CC0B28DF80200824833
:1008E000C078401CC0B28DF803006A460C2100207D
:1008F000FFF7EDFD012200210846FFF7B2FD0122BE
:1009000011460020FFF7ADFD052000F002FE032197
:100910000020FFF721FE132806D01022012100201D
:10092000FFF79FFD002038BD042201210020FFF7C2
:1009300098FD00BF002402210020FFF70DFE0446B1
:1009400024B1224602210020FFF78BFD052000F094
:10095000E0FD04F00800082801D10020E3E70621AB
:100960000020FFF7F9FDFF2806D01022012100200A
:10097000FFF777FDFF20D6E7DCE710B5044640F22D
:10098000B45212210020FFF787FD082C26D2DFE8A1
:1009900004F0041E1F2021222324544841780078AB
:1009A00001EB002082B204210020FFF775FD5048C2
:1009B0004178007801EB002082B210210020FFF77F
:1009C0006BFD4C4A0C210020FFF781FD07E006E09B
:1009D00005E004E003E002E001E000E000BF00BF4A
:1009E00010BD10B50446012200212046FFF739FD55
:1009F000012211462046FFF734FD052000F089FD55
:100A000003212046FFF7A8FD132806D0102201215C
:100A10002046FFF726FD002010BD042201212046BC
:100A2000FFF71FFDFF20F7E710B504460122002164
:100A30002046FFF716FD012211462046FFF711FD63
:100A4000052000F066FD03212046FFF785FD1328F1
:100A500006D0102201212046FFF703FD002010BD23
:100A6000022201212046FFF7FCFC052000F051FD89
:100A700003212046FFF770FD142806D01022012123
:100A80002046FFF7EEFC0020E9E7FF20E7E710B57E
:100A90000446022200212046FFF7E3FC0122114612
:100AA0002046FFF7DEFC052000F033FD0321204641
:100AB000FFF752FD22281FD0102201212046FFF708
:100AC000D0FC002010BD00000030014000080140B3
:100AD0001A0000201E00002000100140000000202D
:100AE00004000020080000200E000020120000205A
:100AF0001800002014000020FF2010BD70B500BFBA
:100B00001720FFF70CFD054605F0010000283DD039
:100B100002210020FFF720FD04462246022100208A
:100B2000FFF79FFC04F0010028B11C48007840F05A
:100B300002001A49087004F0020050B1102201218D
:100B40000020FFF78EFC0020FFF717FF002013495D
:100B5000087004F0100028B11148007840F002003D
:100B60000F49087004F0040028B10D48007840F0E7
:100B700001000B49087004F0080038B1102201216F
:100B80000020FFF76EFC0020044908701720FFF7D3
:100B9000C6FC00F0010000B1B2E770BD21000020EA
:100BA0002200002008B501214FF4FE7003F068F820
:100BB0000121084603F064F80121694802F055FE5E
:100BC0004FF68010ADF8000048208DF80300032098
:100BD0008DF802006946634802F076FD4FF400503C
:100BE000ADF8000048208DF8030003208DF80200C6
:100BF00069465D4802F068FD7E20ADF800001020D7
:100C00008DF8030003208DF802006946554802F074
:100C10005BFD4FF6FF70ADF8000010208DF803006B
:100C200003208DF802006946504802F04DFD4FF652
:100C3000FF70ADF8000010208DF8030003208DF840
:100C4000020069464A4802F03FFD4FF6FF70ADF8DA
:100C5000000010208DF8030003208DF80200694683
:100C6000444802F031FD4FF6FF70ADF8000010204F
:100C70008DF8030003208DF8020069463E4802F01B
:100C800023FD4FF6FF70ADF8000010208DF8030033
:100C900003208DF802006946384802F015FD4DF634
:100CA000FF70ADF8000010208DF8030003208DF8D0
:100CB000020069462C4802F007FD4FF480412948A4
:100CC00002F0B1FD4FF6FF71284802F0AAFD4FF681
:100CD000FF71274802F0A5FD4FF6FF71254802F08D
:100CE000A0FD4FF6FF71244802F09BFD41F6FF7115
:100CF000224802F096FD43F6FF711B4802F091FD79
:100D00004FF48041174802F08CFD4FF40061154804
:100D100002F087FD4FF48061134802F084FD4FF428
:100D20000061114802F07FFD4FF480510E4802F03F
:100D30007AFD08BD70B505460C4645F2555002F0E7
:100D400011FE284602F011FE204602F011FE02F0CC
:100D500012FE02F015FE70BD10B502F00CFE10BDC3
:100D6000000230000008014000200140000C01405A
:100D7000001001400014014000180140001C014017
:100D800010B5FFF762FDFFF797FD0020FFF7F5FDB7
:100D900010BDC020FD490870A8204870012088704F
:100DA000C870FF20FA490870487088700020C87029
:100DB0000C20F849087029204870AB2088707C20EE
:100DC000C8700020087101204871C020F2490870E5
:100DD000A820487001208870C720C8701320EF49F0
:100DE000087088204870C020ED490870A82048701D
:100DF00001208870BE20C8701720EA490870702052
:100E000048700120E8490870704710B5E74800783D
:100E1000F8B9E548007860B90020FFF705FEFF2823
:100E200003D10120E149087020E00020DF4908706B
:100E30001CE0DD48007801280CD10020FFF7D1FD2F
:100E4000FF2803D10120D94908700FE00020D749BD
:100E500008700BE00020FFF71AFEFF2803D10320E3
:100E6000D249087002E00020D049087010BD70B56A
:100E70000446CF492046FFF7C1FB05462A46CC4928
:100E8000CC4806F0A7FB2A46CA492046FFF74DFC8E
:100E900070BD20B5C848008800F4004000287DD00F
:100EA000C6480078732818D1C4484078742814D1F3
:100EB000C2488078612810D1C048C07872280CD10F
:100EC000BE480079742808D1BC4840790D2804D167
:100ED0000120BB498874BB490870B8480078722863
:100EE00016D1B6484078652812D1B4488078732866
:100EF0000ED1B248C07865280AD1B048007974286C
:100F000006D1AE4840790D2802D10120AE4988743F
:100F1000AA480078742819D1A8484078652815D1C6
:100F2000A6488078732811D1A448C07874280DD1C0
:100F3000A24800790D2809D1A04840790A2805D196
:100F40000120A2498874A2A006F0D2F99B4800783B
:100F5000412815D1994840784E2811D1974880787A
:100F600049280DD19B4A11681268521C994D2A607C
:100F7000994A10681268521C974D2A6000F09EFF33
:100F80008E48007873280CD18C484078652808D1A9
:100F90008A488078652804D1012000E0E5E18F4986
:100FA00088748648007873280ED184484078652874
:100FB0000AD182488078662806D14FF47A70884931
:100FC000086088A006F094F97C480078732810D156
:100FD0007A48407865280CD178488078672808D10D
:100FE00085480068401C844908600846006801F094
:100FF000CEF972480078732810D17048407865287F
:101000000CD16E488078682808D17B480068401E63
:10101000794908600846006801F0B9F96748007826
:1010200073280CD165484078652808D163488078DA
:10103000692804D121467048006801F0B6F95F487C
:10104000007873280CD15D484078652808D15B484A
:1010500080786A2804D121466748006801F0A5F924
:101060005648007873280ED15448407865280AD134
:10107000524880786B2806D12021604802F0D3FBCB
:101080005FA006F035F94D48007873280BD14B4826
:101090004078632807D149488078612803D13221FC
:1010A000012001F03BF94548007873280BD14348F3
:1010B0004078632807D141488078622803D16421B1
:1010C000332001F02BF93D48007873280BD13B48C1
:1010D0004078632807D139488078632803D1962166
:1010E000652001F01BF93548007873280BD133488F
:1010F0004078632807D131488078642803D1C8211B
:10110000972001F00BF92D480078612817D12B4862
:101110004078642813D12948807864280FD1274863
:10112000C07832280BD125480079302807D138A063
:1011300006F0DEF83048006814302F49086037A107
:101140001E4806F08DFA20B917226421082001F00C
:10115000B2F835A1194806F083FA28B936A006F08E
:10116000C7F8394801F0F5F838A1144806F078FAC4
:1011700020B915226421082001F0BAF836A10F48E1
:1011800006F06EFA08B9384870E071E000000020FF
:1011900004000020080000200E00002012000020A3
:1011A0001400002018000020200000202100002052
:1011B000F41B0020F42300203C000020F433002026
:1011C000D8380020EF1B0020F838002058390020C4
:1011D0006A6A0000300000202C000020383900200E
:1011E0006800002073657420746865207075742031
:1011F0006C6F6E670000000034000020000C01409E
:10120000736574206770696F623520746F203000D9
:1012100069742077617320776F726B0066696E6402
:10122000476E640D0A0000005343414E5369676ED8
:10123000616C5F310D0A00007363616E7369676EE4
:10124000616C5F3100000000340100207866696E37
:1012500064676E640D0A00007866696E645369679E
:101260006E616C0D0A0000007400002000F0BFFFEA
:10127000AC4800786A2809D1AA484078372805D1B7
:10128000A8488078612801D101F088FBA548007842
:10129000642815D1A3484078652811D1A1488078E9
:1012A00062280DD19F48C078752809D19D480079E2
:1012B000672805D100209C4908709CA006F018F80A
:1012C000984800786A2822D19648407837281ED15D
:1012D0009448807862281AD198A006F009F89A4BB1
:1012E0009A4A9BA19BA001F0ADFD9B4B9B4A9CA100
:1012F0009CA001F0A7FD9C4B9C4A9DA19DA001F0E4
:10130000A1FD9D4B9D4A9EA19EA001F09BFD85489D
:101310000078722815D183484078652811D181481A
:10132000807874280DD17F48C078752809D17D4810
:1013300000796E2805D100209349087093A005F02C
:10134000D7FF784800786A280CD17648407836284C
:1013500008D174488078612804D191A005F0C8FFB5
:1013600001F06EFC00209149088020BD70470EB549
:101370000121084602F091FC0920ADF8040041F675
:101380001F40ADF800000020ADF80600ADF80200E7
:1013900069464FF0804002F031FF0122114690076C
:1013A00003F0A3FA0121880703F084FA0EBD08B503
:1013B00000214FF0006001F0C8FE4FF4C06001F062
:1013C0008DFE1C208DF8000000208DF801008DF8A6
:1013D000020001208DF80300684601F084FE08BD7C
:1013E00010B502F0DFFA4FF4803002F0FBFA02F0A1
:1013F00038FB0446012C2FD1102003F051FF0220AE
:1014000003F03AFF002002F072FB002002F081FBA3
:10141000A00202F075FB4FF4E011200402F04AFB39
:10142000012002F053FB00BF392002F0FEFA002831
:10143000FAD0022002F04DFB00BF02F053FB082857
:10144000FBD1012002F054FC0121084602F025FCEA
:1014500001213D2002F014FC10BD10B5FFF7C0FFC4
:10146000FFF7A5FFFEF74BFFFFF781FFFEF734FF05
:1014700010BDFFF7F2FF4FF4165000F0DBF8FFF756
:1014800091FB00F0F3FF05F050FE04F05DFB01203E
:101490004749887447A005F02BFF1EE004F0E6FAE8
:1014A00005F03FFA494A4A494A4804F0A2FDFFF7CD
:1014B000F0FC494A49494A4804F06EFB3C4A494914
:1014C000494804F05DFC494A49494A4804F0E7FDAF
:1014D000494A4A494A4804F02AFEDFE710B501218B
:1014E000880703F0B0FC012812D10121800703F026
:1014F000BBFC44480068401C424908604248006800
:10150000401C4149086041480068401C3F49086050
:1015100010BD00213B4A116000BF3A490968814271
:10152000FBD37047F433002049000020736574201A
:10153000646562756720300D0A000000746573747D
:101540006A37620D0A000000C8130020A8100020AE
:101550004A3141004A37410028190020381600203E
:101560004A3142004A374200A80A002038080020C9
:10157000553141004A364100C80E0020880C002039
:10158000553142004A3642007000002073657420D5
:1015900072657475726E6F72203D300D0A00000026
:1015A000746573746A36610D0A0000003C00002007
:1015B000F83800200D0A2073746172742076657209
:1015C00073696F6E2033210D0A0000001839002066
:1015D000D61B002008380020D8380020D41B00205B
:1015E000E8370020D51B0020F837002038390020CC
:1015F000D71B00201838002058390020D81B0020A5
:101600002838002024000020D01B0020F01B0020E0
:1016100000BF704770B504460D46A1B24A4803F0BA
:1016200063FD00BF8021484803F0CCFD0028F9D0BD
:10163000204670BD10B586B00446012144F2040076
:1016400002F01EFB4FF40070ADF8140003208DF87B
:10165000160018208DF8170005A93C4802F034F850
:101660004FF48060ADF8140004208DF8170005A930
:10167000364802F029F825208DF8000003208DF867
:1016800001008DF8020001208DF80300684601F08A
:101690002AFD01940020ADF80800ADF80A00ADF86D
:1016A0000C00ADF810000C20ADF80E0001A9264882
:1016B00003F021FC012240F22551234803F0B3FC42
:1016C000012240F22441204803F0ADFC01211E48D4
:1016D00003F09DFC06B010BD10B500BF40F22551CF
:1016E000194803F085FD88B11748001D0088C1B274
:1016F000174802880088401C154B188015488154F3
:1017000040F22551104803F06AFD19E040F22441EF
:101710000D4803F06DFD98B10F48008840F400407B
:101720000D4908800A4800880C49088000200849B3
:10173000088005480088C4B20348001D0088C4B270
:1017400010BD01467047000000380140000801400C
:101750003E000020F43300203C0000204000002028
:1017600002464FF4347105E0024600E0521E002AA2
:10177000FCD1491E0029F7DC7047582961D108289F
:101780005DD2DFE800F004101B252F3A45500122FE
:10179000F74B1A600022F74BC3F894210122F44B57
:1017A00008331A604CE00122F14B1A60F14BC3F888
:1017B00094210022EE4B08331A6041E00122EC4BE9
:1017C0001A60EC4BC3F89421E94B08331A6037E0F8
:1017D0000022E74B1A60E74BC3F89421E44B08332F
:1017E0001A602DE00022E24B1A600122E14BC3F89F
:1017F0009421DF4B08331A6022E00122DC4B1A608F
:101800000022DC4BC3F89421D94B08331A6017E04F
:101810000022D74B1A60D74BC3F894210122D44B36
:1018200008331A600CE00022D14B1A600122D14B20
:10183000C3F894210022CE4B08331A6000E000BFA9
:1018400000BF592969D1082865D2DFE800F00411EA
:101850001D28333F4B570122C54B0C3B1A60002219
:10186000C44BC3F888210122C14B1B1F1A6053E0EF
:101870000122BF4B0C3B1A60BE4BC3F888210022EB
:10188000BB4B1B1F1A6047E00122B94B0C3B1A608F
:10189000B84BC3F88821B64B1B1F1A603CE00022EE
:1018A000B34B0C3B1A60B34BC3F88821B04B1B1FE2
:1018B0001A6031E00022AE4B0C3B1A600122AD4BA6
:1018C000C3F88821AA4B1B1F1A6025E00122A84BF0
:1018D0000C3B1A600022A74BC3F88821A44B1B1FA6
:1018E0001A6019E00022A24B0C3B1A60A14BC3F80E
:1018F000882101229E4B1B1F1A600DE000229C4B89
:101900000C3B1A6001229B4BC3F888210022984BA4
:101910001B1F1A6000E000BF00BF70470121964AFC
:101920001160964AC2F88411934A08321160121D60
:101930001160121D1160121D1160121D1160121D27
:101940001160121D1160121D11608D4A1160121D6F
:101950001160121D1160884A34321160121D11602D
:10196000121D1160874A1160121D1160121D116055
:10197000121D1160121D1160121D1160121D1160E7
:10198000121D1160121D1160121D1160121D1160D7
:10199000121D1160121D1160121D1160121D1160C7
:1019A000121D1160784A1160121D1160121D116024
:1019B000121D1160121D1160121D1160121D1160A7
:1019C000121D1160121D1160121D11606F4A11600D
:1019D000121D1160121D11602D286FD2DFE800F07A
:1019E000171B20252A2F34393E43484C51565B6043
:1019F00065696F74797E83888D92979CA1A6ABB040
:101A0000B5B9BEC3D8DCE1E6F0F5FAFEEB00002183
:101A1000594A1160EDE00021574A121D1160E8E0BB
:101A20000021554A08321160E3E00021524A0C328D
:101A30001160DEE00021504A10321160D9E000212F
:101A40004D4A14321160D4E000214B4A1832116023
:101A5000CFE00021484A1C321160CAE00021464A0A
:101A600020321160C5E00021434A24321160C0E0F9
:101A70000021434A1160BCE00021414A121D11605F
:101A8000B7E000213E4A08321160B2E000213A4A34
:101A900034321160ADE00021374A38321160A8E0DD
:101AA0000021354A3C321160A3E00021354A116023
:101AB0009FE00021334A121D11609AE098E0002156
:101AC000304A0832116094E000212E4A0C32116035
:101AD0008FE000212B4A103211608AE00021294A50
:101AE0001432116085E00021264A1832116080E02E
:101AF0000021244A1C3211607BE00021214A20325F
:101B0000116076E000211F4A2432116071E000214B
:101B10001C4A283211606CE000211A4A2C321160F4
:101B200067E00021174A3032116062E00021154A57
:101B3000343211605DE00021124A3832116058E001
:101B40000021104A3C32116053E000210E4A11601E
:101B50004FE000210C4A121D11604AE000210A4AA0
:101B60000832116045E00021074A0C32116040E064
:101B700090012142000021428001224200002242C5
:101B8000948121428001234280012442B481234276
:101B90000021FE4A11602CE00021FC4A121D116058
:101BA00027E00021F94A0832116022E00021F74ABB
:101BB0000C3211601DE016E010E00BE005E0FFE7DD
:101BC0000021F24A1032116013E00021EF4A143272
:101BD00011600EE00021EE4A11600AE00021EC4A9B
:101BE000121D116005E00021E94A0832116000E091
:101BF00000BF00BF704710B504460120E5490860EA
:101C0000E549C1F88401E34908310860091D08600D
:101C1000091D0860E1490860091D0860091D086088
:101C2000DC4920310860091D0860091D0860091D94
:101C30000860091D0860091D0860091D0860091D6C
:101C40000860D7490860091D0860091D0860091D62
:101C50000860091D0860091D0860091D0860091D4C
:101C60000860091D0860091D0860091D0860091D3C
:101C70000860091D0860091D0860091D0860091D2C
:101C80000860C34934390860091D0860091D0860EF
:101C9000091D0860091D0860091D0860091D08600C
:101CA000091D0860091D0860091D0860091D0860FC
:101CB000091D0860091D08602D2C72D2DFE804F0B0
:101CC000171C21262B30363B40454A4F54595E6342
:101CD000686C72777C81868B90959A9FA4A9AEB32D
:101CE000B8BDC2C7CCD1D6DBE0E5EAF1F6000121F0
:101CF000AC4801F098FDDFE00221AA4801F093FD15
:101D0000DAE00421A74801F08EFDD5E00821A548BE
:101D100001F089FDD0E01021A24801F084FDCBE064
:101D20004FF48061A04801F07EFDC5E000209B4992
:101D3000091D0860C0E00020984908310860BBE038
:101D40000020944920310860B6E0002091492431F8
:101D50000860B1E000208F4928310860ACE0002025
:101D60008C492C310860A7E000208A493031086096
:101D7000A2E000208749343108609DE000208549B9
:101D80003831086098E0002082493C31086093E0D7
:101D90000020834908608FE000208149091D086008
:101DA0008AE088E000207E490831086084E0002055
:101DB0007B490C3108607FE00020794910310860D0
:101DC0007AE0002076491431086075E000207449FB
:101DD0001831086070E0002071491C3108606BE028
:101DE00000206F492031086066E000206C492431F2
:101DF000086061E000206A49283108605CE000204A
:101E000067492C31086057E000206549303108608F
:101E100052E000206249343108604DE00020604902
:101E20003831086048E000205D493C31086043E0FB
:101E300000205749343908603EE0002054493039C9
:101E4000086039E0002052492C39086034E0002055
:101E50004F49283908602FE000204D492439086097
:101E60002AE000204A492039086025E0002048493E
:101E70001C39086020E000204549183908601BE043
:101E8000002043491439086016E000204049103909
:101E9000086011E000203E490C3908600CE005E0C4
:101EA000FFE700203A490839086005E0002038497A
:101EB000091F086000E000BF00BF10BD2DE9F84316
:101EC00004460D46601EC11700EB5171C910A0EB0E
:101ED000C106C11700EB5171CF10681EC11700EB8E
:101EE0005171C910A0EBC108C11700EB51714FEA45
:101EF000E1093846FFF712FD59213046FFF73DFC56
:101F00004846FFF778FE58214046FFF736FC03208D
:101F1000FFF726FC0421002000F001FB2349488044
:101F20000846408800280CDB084640882B4622469D
:101F30001FA10090244805F0E7F9234805F0CCF9EB
:101F400002E022A005F0D4F918484088BDE8F883E3
:101F50002DE9F04705460C462646681EC11700EBE2
:101F60005171C910A0EBC107C11700EB51714FEAC5
:101F7000E108701EC11700EB5171C910A0EBC10937
:101F8000C11700EB51714FEAE10A21E090012442B0
:101F9000B48123428081214200802142A801224253
:101FA00080812242000C014000100140D03400200A
:101FB0000D0A595B2533645D585B2533645D3A2512
:101FC00035640D0A00000000B63700202E00000026
:101FD0004046FFF7A3FC59213846FFF7CEFB504699
:101FE000FFF709FE58214846FFF7C7FB1420FFF70B
:101FF000B7FB0421002000F092FAF74948804FF423
:102000004870FFF78BFCF4484088BDE8F0872DE965
:10201000FE4F05460C4626462746002C0FDD322C87
:102020000DDC192C04DDA4F11900A4EB4000461CC2
:10203000192C04DCC4F1190004EB4000461C322CBE
:102040000FDD642C0DDC4B2C04DDA4F14B00A4EB64
:102050004000461C4B2C04DCC4F14B0004EB400058
:10206000461C002D0FDD322D0DDC192D04DDA5F1F0
:102070001900A5EB4000471C192D04DCC5F119001F
:1020800005EB4000471C322D0FDD642D0DDC4B2D80
:1020900004DDA5F14B00A5EB4000471C4B2D04DCF3
:1020A000C5F14B0005EB4000471C781EC11700EB43
:1020B0005171C910A0EBC108C11700EB51714FEA73
:1020C000E109701EC11700EB5171C910A0EBC10AE4
:1020D000C11700EB51714FEAE10B4846FFF71EFCB8
:1020E00059214046FFF749FB5846FFF784FD582128
:1020F0005046FFF742FB0320FFF732FB042100208C
:1021000000F00DFAB449488008464088B349096890
:10211000884211DBB248007801280DD1AE484088D2
:1021200023462A46AFA1CDE901760090B94805F0D3
:10213000EBF8B84805F0D0F84FF44870FFF7EEFB25
:10214000A5484088BDE8FE8F2DE9F04104460D46C4
:102150004FF000082E68276805E031462068FFF739
:10216000F7FE8046241D2068B0F5FA7FF5D105E022
:1021700038462968FFF7ECFE80462D1D2868B0F52B
:10218000FA7FF5D1BDE8F081024605E0086890428B
:1021900001D101207047091D0868B0F5FA7FF5D11B
:1021A0000020F7E72DE9F0470024002517266427D3
:1021B000B046B946A246344612E097492046FFF79A
:1021C000E3FF012800D10AE0454605E02946204604
:1021D000FFF7BEFE82466D1C4D45F7DD00BF641C57
:1021E000BC42EADD8DA005F083F8BDE8F0872DE95B
:1021F000F047044600254FF017084FF064091726F2
:102200006427AA4612E035460DE08D492846FFF7BF
:10221000BBFF012800D105E02946206800F09AF9AB
:10222000824600BF6D1CBD42EFDD241D2068B0F565
:10223000FA7FE8D179A005F05BF8BDE8F0872DE9D9
:10224000F04700240025012632274FF00108B94647
:10225000A24634460AE0454605E029462046FFF7F7
:1022600077FE82466D1C4D45F7DD641CBC42F2DDF5
:102270006AA005F03DF8BDE8F0872DE9F04700249D
:102280000025012632274FF00108B946A246344600
:102290000AE0454605E029462046FFF759FE8246FA
:1022A0006D1C4D45F7DD641CBC42F2DD5BA005F002
:1022B0001FF8BDE8F0872DE9F04105460E461746A8
:1022C0000024A0462C460CE03946204600F042F996
:1022D0008046B8F57A7F03DA3946204600F03AF9AD
:1022E000641CB442F0DD57A005F002F8BDE8F081AF
:1022F0002DE9F04105460E4617460024A0462C461F
:1023000005E02146384600F025F98046641CB442B9
:10231000F7DD4CA004F0ECFFBDE8F0812DE9F041C1
:1023200004460D4600260027B04626460AE027460A
:1023300005E03946304600F00DF980467F1CAF427B
:10234000F7DD761CAE42F2DD34A004F0D1FFBDE82B
:10235000F08170B504462646012500BF14E03446DE
:102360000CE02068A84200D10CE06068B0F5FA7F6C
:1023700003D1294639A004F0BBFF241D2068B0F525
:10238000FA7FEED100BF6D1C642DE8DB70BD10B587
:10239000044621462046FFF7DBFD10BD10B504467C
:1023A0002146204600F0D6F810BD70B504460D4613
:1023B000012D03D1611E2046FFF780FD1DB9214686
:1023C0002046FFF77BFD70BD10B5FFF738FF13A067
:1023D00004F08EFF10BD0000D03400206800002003
:1023E000490000200D0A595B2533645D585B253395
:1023F000645D3A2535643B2D2D2D7265616C494332
:1024000020706C61636520595B2533645D585B25E2
:1024100033645D00B63700203401002068657265C2
:10242000206973206F75742070757420616C6C2046
:102430006F6620726573756C7420200D0A000000B1
:10244000C80100207363616E2074686520676E6444
:10245000206F76657220200D0A0000002533642C61
:102460000000000010B5FFF7AFFF10BD00B587B04A
:1024700001214FF4017001F003FC4FF4004001F022
:1024800063FB0120ADF8040000208DF8070001A9CE
:102490002E4801F019F92E4800F08EFE002002901F
:1024A0008DF80C008DF80D004FF460200490002092
:1024B000059001208DF8180002A9254800F0A3FE20
:1024C0000121234800F0CBFE214800F0EAFE00BFC6
:1024D0001F4800F0EBFE0028FAD11D4800F0F0FE86
:1024E00000BF1B4800F0F1FE0028FAD107B000BD84
:1024F00010B50446072301222146154800F01BFFB2
:102500000121134800F0EBFE00BF0221104801F04A
:1025100057F80028F9D00E4800F074FF10BD2DE9DF
:10252000F04107460C460025002608E03846FFF734
:10253000DFFF05443220FFF713F9701CC6B2A64234
:10254000F4DBB5FBF4F080B2BDE8F0810008014097
:10255000002401402DE9FE4F05460C46264627463D
:10256000002C0FDD322C0DDC192C04DDA4F1190038
:10257000A4EB4000461C192C04DCC4F1190004EB48
:102580004000461C322C0FDD642C0DDC4B2C04DD8E
:10259000A4F14B00A4EB4000461C4B2C04DCC4F11E
:1025A0004B0004EB4000461C002D0FDD322D0DDCEE
:1025B000192D04DDA5F11900A5EB4000471C192DCC
:1025C00004DCC5F1190005EB4000471C322D0FDD7E
:1025D000642D0DDC4B2D04DDA5F14B00A5EB400077
:1025E000471C4B2D04DCC5F14B0005EB4000471C9C
:1025F000781EC11700EB5171C910A0EBC108C117BB
:1026000000EB51714FEAE109701EC11700EB5171E7
:10261000C910A0EBC10AC11700EB51714FEAE10BE1
:102620004846FFF77BF959214046FFF7A6F8584680
:10263000FFF7E1FA58215046FFF79FF80520FFF712
:102640008FF806210020FFF76AFFF6494880084608
:102650004088F5490968884211DBF4480078012870
:102660000DD1F048408823462A46F1A1CDE90176F4
:102670000090FB4804F048FEF94804F02DFE4FF4AA
:102680004870FFF74BF9E7484088BDE8FE8F2DE919
:10269000FE4F05460C4626462746642C0FDD962C39
:1026A0000DDC7D2C04DDA4F17D00A4EB4000461C74
:1026B0007D2C04DCC4F17D0004EB4000461C962C0C
:1026C0000FDDC82C0DDCAF2C04DDA4F1AF00A4EBB2
:1026D0004000461CAF2C04DCC4F1AF0004EB40000A
:1026E000461C642D0FDD962D0DDC7D2D04DDA5F13E
:1026F0007D00A5EB4000471C7D2D04DCC5F17D006D
:1027000005EB4000471C962D0FDDC82D0DDCAF2DCD
:1027100004DDA5F1AF00A5EB4000471CAF2D04DCA4
:10272000C5F1AF0005EB4000471C781EC11700EB58
:102730005171C910A0EBC108C11700EB51714FEAEC
:10274000E109701EC11700EB5171C910A0EBC10A5D
:10275000C11700EB51714FEAE10B4846FFF7DEF875
:1027600059214046FFF709F85846FFF744FA582127
:102770005046FFF702F80520FEF7F2FF0A2100207D
:10278000FFF7CDFEA749488008464088A64909685A
:10279000884211DBA548007801280DD1A148408866
:1027A00023462A46A2A1CDE901760090AC4804F068
:1027B000ABFDAB4804F090FD4FF44870FFF7AEF866
:1027C00098484088BDE8FE8F2DE9FE4F05460C462F
:1027D00026462746C82C0FDDFA2C0DDCE12C04DD43
:1027E000A4F1E100A4EB4000461CE12C04DCC4F1A0
:1027F000E10004EB4000461CC82D0FDDFA2D0DDC76
:10280000E12D04DDA5F1E100A5EB4000471CE12D21
:1028100004DCC5F1E10005EB4000471C781EC11740
:1028200000EB5171C910A0EBC108C11700EB517149
:102830004FEAE109701EC11700EB5171C910A0EBFE
:10284000C10AC11700EB51714FEAE10B4846FFF78F
:1028500065F859214046FEF790FF5846FFF7CBF93F
:1028600058215046FEF789FF0520FEF779FF0A211F
:102870000020FFF754FE6B494880084640886A49AB
:102880000968884211DB6948007801280DD1654844
:10289000408823462A4666A1CDE90176009070481B
:1028A00004F032FD6E4804F017FD5E484088BDE834
:1028B000FE8F2DE9FE4F05460C4626462746C82CBE
:1028C0000FDDFA2C0DDCE12C04DDA4F1E100A4EB1A
:1028D0004000461CE12C04DCC4F1E10004EB4000A4
:1028E000461CC82D0FDDFA2D0DDCE12D04DDA5F110
:1028F000E100A5EB4000471CE12D04DCC5F1E1003F
:1029000005EB4000471C781EC11700EB5171C91040
:10291000A0EBC108C11700EB51714FEAE109701E2D
:10292000C11700EB5171C910A0EBC10AC11700EB30
:1029300051714FEAE10B4846FEF7F0FF592140463E
:10294000FEF71BFF5846FFF756F958215046FEF791
:1029500014FF0520FEF704FF0A210020FFF7DFFD2A
:1029600030494880084640882F490968884211DB71
:102970002E48007801280DD12A48408823462A464F
:102980002BA1CDE901760090354804F0BDFC344818
:1029900004F0A2FC23484088BDE8FE8F70B5314C9E
:1029A0000025CEE021680846FFF7D4FD0546B5F5C1
:1029B0007A7F0EDA23681A462BA1294804F0A4FC7A
:1029C000274804F089FC30480078012801D1002014
:1029D00070BD2E48007801280BD1B5F57A7F08DD4F
:1029E00023681A462AA11E4804F08EFC1C4804F0F5
:1029F00073FCD4E90001FFF7ADFD0546B5F5487F4E
:102A000068DD2068431C02462AA1154804F07CFCBE
:102A1000134804F061FC1C48007801285AD10020BA
:102A2000D6E757E0D034002068000020490000209D
:102A30000D0A595B2533645D585B2533645D3A2587
:102A400035643B2D2D2D7265616C494320706C619E
:102A5000636520595B2533645D585B2533645D00F5
:102A6000B6370020740000206661696C3A4A37412D
:102A70005B2533645D4A31415B2533645D3A6F7099
:102A8000656E2E0D0A000000700000204800002036
:102A90004A37415B2533645D4A31415B2533645DD0
:102AA0003A434C4F53452054455354204F4B2E0D21
:102AB0000A0000006661696C3A4A37415B2533645D
:102AC0005D4A31415B2533645D3A73686F72742EE1
:102AD0000D0A00007748007801280CD1B5F57A7FFF
:102AE00009DA2068431C024673A17C4804F00CFC00
:102AF0007A4804F0F1FB15212068FFF72BFD05460D
:102B0000B5F5487F0DDD76A17448226804F0FCFB22
:102B1000724804F0E1FB7A480078012801D10020D6
:102B200056E76448007801280AD1B5F57A7F07DABC
:102B300074A16A48226804F0E7FB684804F0CCFB03
:102B4000241D2068B0F5FA7F7FF42CAF01203FE709
:102B50002DE9F041744C0027B8460025642668E052
:102B6000226891199019FFF792FD0546B5F57A7F15
:102B700008DA23681A466DA1584804F0C5FB574887
:102B800004F0AAFB4B48007801280BD1B5F57A7FF9
:102B900008DD23681A466DA1504804F0B5FB4F4884
:102BA00004F09AFB6268911922689019FFF76FFD93
:102BB0000546B5F5487F09DD2068431C02466CA137
:102BC000464804F0A1FB454804F086FB39480078EC
:102BD00001280CD1B5F57A7F09DA2068431C02463A
:102BE0006BA13E4804F090FB3C4804F075FB06F1F5
:102BF000150122689019FFF74AFD0546B5F5487F93
:102C000007DD6CA13548226804F07EFB334804F0F0
:102C100063FB2848007801280AD1B5F57A7F07DAE6
:102C20006CA12E48226804F06FFB2C4804F054FB82
:102C3000241D2068B0F5FA7F92D10120BDE8F08113
:102C40002DE9F0476C4C6D4D4FF00008C146002651
:102C5000C82728E02A68D1192268D019FFF7B4FDE7
:102C60000646B6F57A7F08DA2B6865A11B4822680C
:102C700004F04AFB194804F02FFB0E4800780128A5
:102C80000BD1B6F57A7F08DD2B6865A11348226861
:102C900004F03AFB114804F01FFB241D00BF00BFE5
:102CA0002D1D00BF00BF2068B0F5FA7FD2D10120F2
:102CB000BDE8F087480000204A37415B2533645D5A
:102CC0004A31415B2533645D3A4F50454E205445AF
:102CD0005354204F4B2E0D0A00000000B637002041
:102CE0006661696C3A4A37415B2533645D4A31411C
:102CF0005B2032315D3A73686F72742E0D0A0000EA
:102D0000700000204A37415B2533645D4A31415BE6
:102D10002032315D3A4F50454E2054455354204F98
:102D20004B2E0D0A000000005C0200206661696CF9
:102D30003A4A37425B2533645D4A31425B2533644E
:102D40005D3A6F70656E2E0D0A0000004A37425BD7
:102D50002533645D4A31425B2533645D3A434C4F11
:102D600053452054455354204F4B2E0D0A0000006C
:102D70006661696C3A4A37425B2533645D4A314289
:102D80005B2533645D3A73686F72742E0D0A000020
:102D90004A37425B2533645D4A31425B2533645DCB
:102DA0003A4F50454E2054455354204F4B2E0D0A58
:102DB000000000006661696C3A4A37425B25336463
:102DC0005D4A31425B2032315D3A73686F72742E16
:102DD0000D0A00004A37425B2533645D4A31425B8D
:102DE0002032315D3A4F50454E2054455354204FC8
:102DF0004B2E0D0A00000000EC050020800600208C
:102E00006661696C3A4A36415B2533645D553141F0
:102E10005B2533645D3A6F70656E2E0D0A0000000D
:102E20004A36415B2533645D5531415B2533645D32
:102E30003A434C4F53452054455354204F4B2E0D8D
:102E40000A0000002DE9FF4F83B00F4615461E46CD
:102E5000D5F808800024A1464FF0040BA24600BF1D
:102E6000012438E006EB0412D26802EB080106EBFD
:102E70000412926802EB0800FFF76AF8814640F2FC
:102E80004C40814511DDA24606EB04104068CDE9B7
:102E9000007006EB0410036871A17848039A04F0EF
:102EA00033FA764804F018FA14E0ABF1010BBBF1E9
:102EB000000F0FD106EB04104068CDE9007006EB5F
:102EC000041003686EA16D48039A04F01DFA6B4864
:102ED00004F002FA641C06EB04100068B0F5FA7FF7
:102EE000C0D1012497E005EB0412D26802EB08017F
:102EF00005EB0412926802EB0800FFF729F88146FF
:102F000040F24C40814510DD05EB04104068CDE9EE
:102F1000007005EB0410036851A15848039A04F0AF
:102F2000F3F9564804F0D8F90FE005EB04104068B7
:102F3000CDE9007005EB0410036851A14F48039AD6
:102F400004F0E2F94D4804F0C7F906EB0A12D26822
:102F500002EB080105EB0412926802EB0800FEF791
:102F6000F7FF8146B9F5167F10DA06EB0A104068C4
:102F7000CDE9007005EB0410036839A13F48039ABE
:102F800004F0C2F93D4804F0A7F90FE006EB0A107F
:102F90004068CDE9007005EB0410036838A137489C
:102FA000039A04F0B1F9354804F096F9621C06EB77
:102FB0000212D26802EB080105EB0412926802EBE0
:102FC0000800FEF7C5FF8146B9F5167F11DA601CCF
:102FD00005EB00104068CDE9007005EB04100368B4
:102FE0001FA12648039A04F08FF9244804F074F9CD
:102FF00010E0601C05EB00104068CDE9007005EBA7
:10300000041003681EA11D48039A04F07DF91B48B3
:1030100004F062F9641C05EB04100068B0F5FA7F57
:103020007FF461AF484607B0BDE8F08F10B51B4B89
:103030001B4A1CA11CA0FFF705FF1C4B1C4A1DA12D
:103040001DA0FFF7FFFE1D4B1D4A1EA11EA0FFF78E
:10305000F9FE1E4B1E4A1FA11FA0FFF7F3FE10BD75
:10306000706173733A25735B2533645D25735B254B
:1030700033645D3A6F6B0D0A00000000B637002024
:103080006661696C3A25735B2533645D25735B2546
:1030900033645D3A6F70656E0D0A0000C81300203E
:1030A000A81000204A3141004A3741002819002069
:1030B000381600204A3142004A374200A80A002050
:1030C00038080020553141004A364100C80E002022
:1030D000880C0020553142004A36420031490143F4
:1030E000314A1160704770B5002100230F22C47867
:1030F00004B32D4C246804F4E064C4F5E064210AB0
:10310000C1F10403CA40447804FA03F184781440FE
:1031100021430901254C0678A155047804F01F05C8
:103120000124AC4005786D11AD0005F1E025C5F82E
:10313000004109E0047804F01F050124AC401C4D57
:103140000678761145F8264070BD1A4A0A400243B7
:10315000154B1B1F1A60704739B1134A121D1268B4
:103160000243114B1B1D1A6006E00F4A121D126824
:1031700082430D4B1B1D1A607047042808D14FF085
:10318000E021096941F004014FF0E022116107E0FC
:103190004FF0E021096921F004014FF0E0221161B4
:1031A000704700000000FA050CED00E000E400E0CC
:1031B00080E100E080FFFF1F10B50446FA4884421A
:1031C00008D10121401500F075FD0021601500F0C7
:1031D00071FD17E0F548844208D10121001500F087
:1031E00069FD0021201500F065FD0BE0F0488442E8
:1031F00008D10121C80300F05DFD00214FF400401B
:1032000000F058FD10BD30B5024600200023506884
:10321000E84C20400D790C6844EA052420435060B6
:103220009068E54C2040D1E902542C434D7944EAA2
:10323000450420439060D06A20F470000C7C641E2A
:10324000E4B2234340EA0350D06230BD0021016064
:10325000017141718160C16001210174704721B128
:10326000826842F00102826003E0826822F001027B
:103270008260704721B1826842F48072826003E00C
:10328000826822F480728260704710B50023CBB24E
:103290001AB144681C43446002E044689C434460A3
:1032A00010BD816841F0080181607047014600202F
:1032B0008A6802F008020AB1012000E0002070478D
:1032C000816841F0040181607047014600208A68EE
:1032D00002F004020AB1012000E00020704721B191
:1032E000826842F4A002826003E0826822F4A002B5
:1032F00082607047014600208A6802F480020AB1A9
:10330000012000E00020704710B50A46002100238C
:10331000416821F46041531E41EA4331416010BDD0
:1033200021B1426842F40062426003E0426822F444
:10333000006242607047F0B504460D46002000214F
:10334000092D11DDE068A5F10A0606EB4607072600
:1033500006FA07F18843A5F10A0606EB460603FACA
:1033600006F10843E0600CE0206905EB45070726FD
:1033700006FA07F1884305EB450603FA06F1084310
:103380002061072A0FDA606B561E06EB86071F26A0
:1033900006FA07F18843561E06EB860605FA06F183
:1033A0000843606322E00D2A0FDA206BD61F06EB7C
:1033B00086071F2606FA07F18843D61F06EB860606
:1033C00005FA06F10843206310E0E06AA2F10D0659
:1033D00006EB86071F2606FA07F18843A2F10D06C1
:1033E00006EB860605FA06F10843E062F0BD21B15E
:1033F000826842F48012826003E0826822F48012C4
:10340000826070470146C86C80B2704766484C3095
:103410000068704721B1426842F48062426003E074
:10342000426822F480624260704721B1426842F4EF
:103430008052426003E0426822F48052426070474A
:103440000A460021816821F4E04111438160704700
:1034500021B1826842F40042826003E0826822F473
:1034600000428260704721B1826842F40212826099
:1034700003E0826822F40212826070470146002055
:103480008A6802F400120AB1012000E000207047AF
:10349000F0B504461546002000220026092911DD5A
:1034A000E068A1F10A0707EB470C072707FA0CF2BF
:1034B0009043A1F10A0707EB470703FA07F210430D
:1034C000E0600CE0206901EB410C072707FA0CF2E1
:1034D000904301EB410703FA07F210432061A06B10
:1034E000C0F30156EF1C06F1010CA7EB0C0707EB2C
:1034F000870C1F2707FA0CF29043EF1C06F1010C12
:10350000A7EB0C0707EB870701FA07F21043A0634C
:10351000F0BD10B50A4600210023816B21F4401153
:10352000531E41EA0351816310BD08B50023009387
:103530000090009B0B440093009B1A6008BD08B5E7
:10354000024600200090009201F12800009B1844E0
:1035500000900098006880B208BD0A4600214168CA
:10356000164B1940114341607047416282627047B7
:103570000A460021416821F01F0111434160704754
:1035800040B109490831096841F40001064A08328E
:10359000116007E004490831096821F40001024A7A
:1035A00008321160704700000024014000280140EB
:1035B000003C0140FFFEF0FFFDF7F1FFFFFD3FFF84
:1035C0000246002013680B400BB1012000E00020F0
:1035D0007047CA430260704770B50246002000235E
:1035E00000240B125568CEB205EA060415681D408A
:1035F00015B10CB1012000E0002070BD00220A12BC
:10360000D34303607047000010B50446CC488442A1
:1036100008D10121042000F04DFB0021042000F01E
:1036200049FB46E0C748844208D10121082000F048
:1036300041FB0021082000F03DFB3AE0C2488442F3
:1036400008D10121102000F035FB0021102000F0EE
:1036500031FB2EE0BD48844208D10121202000F03A
:1036600029FB0021202000F025FB22E0B8488442FD
:1036700008D10121402000F01DFB0021402000F076
:1036800019FB16E0B348844208D10121802000F0E4
:1036900011FB0021802000F00DFB0AE0AE488442BF
:1036A00007D10121801500F005FB0021A01500F0D5
:1036B00001FB10BD10B50121084600F0FBFA002106
:1036C000012000F0F7FA10BD2DE9F0410246002577
:1036D0000026002000230024002791F803C00CF0EE
:1036E0000F0591F803C00CF0100CBCF1000F03D0D3
:1036F00091F802C04CEA050591F800C0BCF1000F3A
:1037000031D0146800202BE04FF0010C0CFA00F3CC
:10371000B1F800C00CEA03069E4220D183004FF0AE
:103720000F0C0CFA03F7BC4305FA03FC4CEA040443
:1037300091F803C0BCF1280F06D14FF0010C0CFA30
:1037400000FCC2F814C00AE091F803C0BCF1480FB5
:1037500005D14FF0010C0CFA00FCC2F810C0401C5F
:103760000828D1D31460B1F800C0BCF1FF0F34DDDC
:10377000546800202EE000F1080C4FF0010808FA10
:103780000CF3B1F800C00CEA03069E4221D183007D
:103790004FF00F0C0CFA03F7BC4305FA03FC4CEA9C
:1037A000040491F803C0BCF1280F05D100F1080C06
:1037B00008FA0CF8C2F8148091F803C0BCF1480F65
:1037C00007D100F1080C4FF0010808FA0CF8C2F814
:1037D0001080401C0828CED35460BDE8F0814FF61D
:1037E000FF710180022181700421C170704702467F
:1037F000002093680B400BB1012000E000207047CF
:103800000146886880B2704702460020D3680B40AA
:103810000BB1012000E0002070470146C86880B26B
:10382000704701617047416170470AB1016100E072
:1038300041617047C16070474FF480320A43826132
:103840008161826182698269704702460020434B30
:1038500018684FF68073184040EA021008433F4B47
:10386000186070473E49C8617047F0B50A460023AA
:1038700000240021002500F00046B6F1004F02D1DF
:10388000364EF16901E0354E7168C0F3034583B2ED
:1038900000F44016B6F5401F08D121F070612F4E9C
:1038A000766826F070662D4F7E6012E000F4801678
:1038B000B6F5801F06D1032606FA05F4A14341F0B0
:1038C000706106E0460D360103FA06F6B14341F099
:1038D000706122B1460D360103FA06F6314300F05D
:1038E0000046B6F1004F02D11C4EF16101E01B4EC3
:1038F0007160F0BD30B500228B071C0F0F2303FA57
:1039000004F2164B08338C1053F824309343134CB5
:1039100008348D1044F8253023468C1053F8243099
:103920008C07240F00FA04F423430C4C08348D1048
:1039300044F8253030BD0A49DC310860704700008A
:1039400000080140000C014000100140001401403B
:1039500000180140001C014000200140000001400F
:10396000000020420E49086070470D4948607047CA
:103970000B49886070474AF6AA20094908607047D9
:103980004CF6CC4006490860704701460020044AC6
:10399000D2680A400AB1012000E000207047000010
:1039A00000300040DF48006840F00100DD49086059
:1039B00008464068DC490840DA4948600846006823
:1039C000DA490840D74908600846006820F480209A
:1039D00008600846406820F4FE0048604FF41F006D
:1039E00088607047CF49096821F48031CD4A116061
:1039F0001146096821F480211160B0F5803F03D0A1
:103A0000B0F5802F0ED106E0C649096841F4803137
:103A1000C44A116007E0C349096841F4A021C14AC2
:103A2000116000E000BF00BF704710B501460022E2
:103A3000002300204A11012A02D1BA4C236806E073
:103A4000022A02D1B74C236A01E0B64C636A01F046
:103A50001F02012494401C400CB1012000E0002012
:103A600010BD38B5002000900024002500BF312093
:103A7000FFF7DBFF05460098401C00900098B0F56A
:103A8000A06F01D0002DF2D03120FFF7CEFF08B19A
:103A9000012400E00024204638BD01460020A14A50
:103AA000106820F0F80040EAC10010607047A0499B
:103AB00008607047024600209A4B586820F47C103A
:103AC00042EA01031843974B5860704798490866CB
:103AD000704701460020934A506820F003000843D5
:103AE000506070478F48406800F00C0070470146F6
:103AF00000208C4A506820F0F00008435060704766
:103B000001460020874A506820F4E0600843506076
:103B1000704701460020834A506820F4605040EA14
:103B2000C1005060704729B17E4A527A02437D4BF2
:103B30005A7204E07B4A527A82437A4B5A72704737
:103B40007B49D8310860704701460020754A5068AB
:103B500020F440400843506070470021714A2032F1
:103B60001170704A82F82010012802D004280AD16E
:103B700004E001216B4A2032117005E00521694AF9
:103B80002032117000E000BF00BF70476949086033
:103B900070476449096A0143624A11627047654986
:103BA00044390860704730B500210022002400230A
:103BB0005C4D6D6805F00C0121B1042905D0082980
:103BC00023D105E05C4D056022E05B4D05601FE000
:103BD000544D6D6805F47012524D6D6805F48034D3
:103BE000022505EB92421CB9544D554305600BE08C
:103BF0004C4D6D6805F400351DB1504D55430560C1
:103C000002E04D4D5543056002E04B4D056000BF9D
:103C100000BF444D6D6805F0F0010909484D6B5C2B
:103C20000568DD4045603F4D6D6805F4E061090AB7
:103C3000434D6B5C4568DD4085603A4D6D6805F429
:103C40006051C90A3E4D6B5C4568DD40C560354D2D
:103C50006D6805F44041890B3A4D6B5CC568B5FB56
:103C6000F3F5056130BD29B12E4A526902432D4B4F
:103C70005A6104E02B4A526982432A4B5A617047C9
:103C800029B1284A92690243264B9A6104E0254AE9
:103C900092698243234B9A61704729B1214AD269C4
:103CA0000243204BDA6104E01E4AD26982431D4B75
:103CB000DA61704729B11B4AD2680243194BDA60B6
:103CC00004E0184AD2688243164BDA60704729B183
:103CD000144A12690243134B1A6104E0114A126933
:103CE0008243104B1A61704712494039086070478F
:103CF0000F49C86470470B49C87170470948406A4A
:103D000040F0807007494862704701460020054A2C
:103D100092680A400AB1012000E000207047014982
:103D200088727047001002400000FFF8FFFFF6FEA7
:103D3000000042428004424200127A0000093D0025
:103D4000A81B0020B81B002010B50446BE488442C2
:103D500008D101218014FFF7ADFF0021A014FFF767
:103D6000A9FF16E0B948844208D101210014FFF7E9
:103D7000AEFF00212014FFF7AAFF0AE0B4488442F6
:103D800007D10121C013FFF7A2FF0021E013FFF7C5
:103D90009EFF10BD10B50022028802F441520B882C
:103DA0004C8823438C882343CC8823430C892343AA
:103DB0004C8923438C892343CC8923431A430280B3
:103DC000838B4FF2FF74234083830B8A038210BDE1
:103DD0002DE9F04F85B005460C464FF0000902274B
:103DE0004FF000084FF0010B0026B246A88B4FF2AF
:103DF00040010840A88302202884B5F81C90A068E0
:103E0000022801D100BF38E0A08810B94FF0010BA3
:103E100001E04FF0020B8D48854200D100E000BF69
:103E20006846FFF7C0FEDDF800A0E088B0F5007F2F
:103E30000AD14FEA1A2000EB80004000A168B0FBD5
:103E4000F1F0401D86B20BE04FEA4B10BAFBF0F0E8
:103E500000EB80004000A168B0FBF1F0401D86B28D
:103E60000A20B6FBF0F606F00108A6EB0800C0F346
:103E70004F074FF6FF7000EA0828022F01DBFF2FE3
:103E800002DD02274FF00008E08840EA08003843CE
:103E90002884A088A18908436188084321880843B1
:103EA00040F4006040EA0909A5F81C9005B0BDE89F
:103EB000F08F0021018041808180C180018141819A
:103EC0008181C181072101827047002101804180E9
:103ED0008180C1800221816000218181704721B1F0
:103EE000028842F04002028004E002884FF6BF736D
:103EF0001A400280704721B1828B42F48062828333
:103F000004E0828B4FF6FF331A408283704730B54E
:103F1000002400230C110125A540ABB21AB18588FD
:103F20001D43858002E085889D43858030BD1AB1A0
:103F300083880B43838002E083888B4383807047B0
:103F4000818170470146888970474FF6FF62914230
:103F500004D0028842F48072028004E002884FF6A6
:103F6000FF631A400280704721B1828842F0040248
:103F7000828004E082884FF6FB731A40828070478B
:103F800002884FF2FF731A40028002880A430280BF
:103F90007047018841F480510180704721B1028847
:103FA00042F40052028004E002884DF6FF731A408A
:103FB0000280704702460020012901D0108B00E0EA
:103FC000908A70470146088A7047B1F5804F04D146
:103FD000028842F48042028004E002884BF6FF73BC
:103FE0001A40028070470246002013890B400BB133
:103FF000012000E000207047CA4302817047F0B5FD
:104000000246002000240023002501F00F070126AE
:10401000BE40B4B20B1101269E40B3B2968806EAA8
:1040200003051689264016B10DB1012000E00020DD
:10403000F0BD10B5002201F00F040123A3409AB295
:10404000D343038110BD0000003001400038004020
:10405000003C004010B50446FE48844208D10121CE
:10406000C014FFF727FE0021E014FFF723FEC4E091
:10407000B4F1804F08D101210846FFF728FE002146
:104080000120FFF724FEB8E0F348844208D1012163
:104090000220FFF71CFE00210220FFF718FEACE013
:1040A000EE48844208D101210420FFF710FE0021D0
:1040B0000420FFF70CFEA0E0E948844208D101216A
:1040C0000820FFF704FE00210820FFF700FE94E01F
:1040D000E448844208D101211020FFF7F8FD0021B7
:1040E0001020FFF7F4FD88E0DF48844208D1012169
:1040F0002020FFF7ECFD00212020FFF7E8FD7CE009
:10410000DA48844208D101214014FFF7D3FD002191
:104110006014FFF7CFFD70E0D548844209D101213A
:10412000C804FFF7C7FD00214FF40020FFF7C2FDD0
:1041300063E0D048844209D101210805FFF7BAFDA8
:1041400000214FF48010FFF7B5FD56E0CA488442C5
:1041500009D101214805FFF7ADFD00214FF4001002
:10416000FFF7A8FD49E0C548844208D1012140205D
:10417000FFF7ADFD00214020FFF7A9FD3DE0C0485D
:10418000844208D101218020FFF7A1FD0021802079
:10419000FFF79DFD31E0BB48844208D10121801525
:1041A000FFF795FD0021A015FFF791FD25E0B6482A
:1041B000844209D101210804FFF77CFD00214FF45E
:1041C0008030FFF777FD18E0B048844209D1012123
:1041D0004804FFF76FFD00214FF40030FFF76AFD40
:1041E0000BE0AB48844208D101218804FFF762FD4F
:1041F00000214FF48020FFF75DFD10BD00220288F2
:10420000944B98420ED0994B98420BD0B0F1804F0E
:1042100008D0914B984205D0904B984202D0904BD9
:10422000984204D14FF68F731A404B881A438D4B36
:10423000984207D08C4B984204D04FF6FF431A4067
:10424000CB881A4302808B8883850B880385814B3A
:1042500098420BD0854B984208D08B4B984205D0A2
:104260008A4B984202D08A4B984201D10B7A03863E
:1042700001238382704770B5002400220023058C3F
:104280004FF6FE7635400584028C8388048B4FF60A
:104290008F752C40B51E2C400D882C43751E2A406E
:1042A0000D892A434D882A436A4DA8420BD06F4D91
:1042B000A84208D0744DA84205D0744DA84202D03F
:1042C000734DA84213D14FF6F7752A404D892A4302
:1042D0004FF6FB752A408D882A434FF6FF652B4029
:1042E0004FF6FF552B408D892B43CD892B4383807F
:1042F0000483CD888586028470BD70B500240022B9
:104300000023058C4FF6EF7635400584028C8388B8
:10431000048B48F6FF752C404FF6FF452C400D8866
:104320004FF6FF7606EA05252C434FF6DF752A4047
:104330000D8906EA05152A434D8806EA05152A4324
:10434000444DA84202D0494DA8421DD14FF67F7579
:104350002A404D894FF6FF7606EA05152A434FF6A7
:10436000BF752A408D8806EA05152A434FF6FF35AA
:104370002B404FF2FF752B408D8906EA85052B43B4
:10438000CD8906EA85052B4383800483CD88058784
:10439000028470BD70B5002400220023058C4FF606
:1043A000FF6635400584028C8388848B4FF68F75B9
:1043B0002C404FF6FC752C400D882C434FF6FF55D2
:1043C0002A400D894FF6FF7606EA05252A434D88D7
:1043D00006EA05252A431F4DA84202D0234DA842D4
:1043E0001DD14FF2FF752A404D894FF6FF7606EA40
:1043F00005252A434FF6FF352A408D8806EA052514
:104400002A434EF6FF752B404DF6FF752B408D89E4
:1044100006EA05152B43CD8906EA05152B43838053
:104420008483CD888587028470BD70B50022002307
:104430000024058C4EF6FF7635400584038C848875
:10444000828B48F6FF752A404FF6FF452A400D88BB
:1044500020E00000002C0140000400400008004063
:10446000000C0040001000400014004000340140E7
:10447000004C014000500140005401400018004031
:10448000001C00400020004000400140004401406A
:10449000004801404FF6FF7606EA05252A434DF60F
:1044A000FF752B400D8906EA05352B434D8806EA3A
:1044B00005352B43FA4DA84202D0FA4DA84208D147
:1044C0004BF6FF752C408D894FF6FF7606EA851571
:1044D0002C4384808283CD88A0F84050038470BD33
:1044E000828B4FF2FF331A408283828B4FF6FF7329
:1044F00003EA01231A4382837047F0B50C46154640
:10450000002200210026078C4EF6FF7C07EA0C07EC
:104510000784828B018C4FF6FF7707EA043640F65A
:10452000FF473A404FF6FF7707EA05273A434FF631
:10453000FF7707EA03373A43D94FB8420ED0D94F35
:10454000B8420BD0B0F1804F08D0D74FB84205D059
:10455000D64FB84202D0D64FB84206D14DF6FF77BB
:10456000394046F48057394305E047F6FF57394054
:1045700044F48057394382830184F0BD828B4FF627
:10458000F3731A408283828B0A4382837047F0B5AB
:104590000C461546002200210026078C4FF6FF6CC2
:1045A00007EA0C070784828B018C4FF6FF7707EA36
:1045B00004264FF60C773A404FF6FF7707EA0317C9
:1045C0002F433A43B64FB8420ED0B64FB8420BD045
:1045D000B0F1804F08D0B44FB84205D0B34FB842C5
:1045E00002D0B34FB84206D14FF6FF57394046F4D8
:1045F0008077394305E04FF2FF57394044F4807724
:10460000394382830184F0BD028B4FF2FF331A409D
:104610000283028B4FF6FF7303EA01231A430283DE
:104620007047F0B50C461546002200210026078C85
:104630004FF6EF7C07EA0C070784028B018C4FF6DC
:10464000FF7707EA041640F6FF473A404FF6FF7738
:1046500007EA03373A434FF6FF7707EA05273A435D
:104660008F4FB8420ED08F4FB8420BD0B0F1804F71
:1046700008D08D4FB84205D08C4FB84202D08C4F35
:10468000B84206D14FF6DF77394046F0100739437C
:1046900005E04FF65F77394044F010073943028355
:1046A0000184F0BD028B4FF6F3731A400283028B34
:1046B0000A4302837047F0B50C46154600220021DC
:1046C000068C4FF6FE773E400684028B018C4FF637
:1046D0000C7632407E1C06EA03162E433243704E9F
:1046E000B0420ED06F4EB0420BD0B0F1804F08D028
:1046F0006D4EB04205D06D4EB04202D06C4EB0420D
:1047000006D14FF6FD76314044F00106314305E015
:104710004FF6F576314044F00106314302830184BF
:10472000F0BD70B505460C465D4885420ED05D482B
:1047300085420BD0B5F1804F08D05B48854205D04B
:104740005A48854202D05A48854200D100E000BF55
:10475000208850B92389A28861882846FFF7ABFFDB
:10476000E1882846FFF79EFF25E0208804280AD12B
:104770002389A28861882846FFF753FFE1882846ED
:10478000FFF742FF17E0208808280AD12389A28872
:1047900061882846FFF7FBFEE1882846FFF7EEFE1A
:1047A00009E02389A28861882846FFF7A6FEE188F0
:1047B0002846FFF795FE70BD2DE9F04105460C46F1
:1047C00000260127608808B9022600E00026A0889C
:1047D000012801D1022700E001272088A0B9238900
:1047E000A28861882846FFF766FFE1882846FFF720
:1047F00059FF23893A4631462846FFF712FFE188E0
:104800002846FFF701FF13E02389A2886188284624
:10481000FFF707FFE1882846FFF7F6FE23893A46AF
:1048200031462846FFF747FFE1882846FFF73AFF61
:10483000BDE8F0810A884B881A438B881A43CB88DD
:104840001A430B891A434B891A438B891A43A0F8E0
:10485000442070474FF6FF71818000210180C180A4
:104860004180017270470021018041808180C180B8
:10487000018141818181C181704700210180418096
:10488000012181800021C1800181704700210180C8
:1048900041808180C1800181418181817047000018
:1048A000002C01400034014000040040000800409A
:1048B000000C004021B1028842F00102028004E0B5
:1048C00002884FF6FE731A400280704731B1B0F88B
:1048D000442042F40042A0F8442005E0B0F844200F
:1048E000C2F30E02A0F8442070471AB183890B432B
:1048F000838102E083898B43838170478182704783
:1049000041EA0203A0F8483070471AB183890B438B
:10491000838102E083898B438381704701894FF64D
:10492000F8721140018170470A46002101894FF653
:104930008F73194011430181704730B504460D460D
:1049400029462046FFF7F0FF208940F0070020812C
:1049500030BD2DE9F04104460D4616461F46602D38
:1049600006D13B46012231462046FFF75AFE05E0BC
:104970003B46012231462046FFF79DFE2946204650
:10498000FFF7D2FF208940F007002081BDE8F081C9
:1049900030B50C4600210189C9B24FF6FF7505EA12
:1049A0000325154325432943018130BD2DE9F041FD
:1049B00005460E4617469846002443463A46314679
:1049C0002846FFF7E5FF2C894FF6F870044044F0C5
:1049D00007044FF68F70044044F070042C81BDE84A
:1049E000F081F0B504460D4616461F463B4632465A
:1049F00029462046FFF7CCFF208940F480402081E3
:104A0000F0BD0185828270470A46002101884FF679
:104A10008F731940114301807047F0B50C4615465D
:104A20001E460021002200230189028B038C4FF6D1
:104A3000F877394021434FF6FC473A4040F20117DE
:104A40003A434FF6DD773B404FF6FF7707EA06170C
:104A50002F433B43018102830384F0BD0A460021BA
:104A6000018B4FF68F7319401143018370470A463B
:104A70000021018B48F6FF7319404FF6FF7303EADC
:104A800002231943018370470A460021818B4FF6A8
:104A90008F7319401143818370470A460021818B2F
:104AA00048F6FF7319404FF6FF7303EA02231943D8
:104AB0008183704721B1028842F08002028004E0C5
:104AC00002884FF67F731A400280704721B18288B6
:104AD00042F00402828004E082884FF6FB731A40A1
:104AE0008280704721B1828842F00802828004E00F
:104AF00082884FF6F7731A408280704721B182880E
:104B000042F00102828004E082884FF6FE731A4070
:104B1000828070470A460021018B4FF6F7731940D7
:104B20001143018370470A460021018B4FF2FF7346
:104B300019404FF6FF7303EA0223194301837047BC
:104B40000A460021818B4FF6F77319401143818388
:104B500070470A460021818B4FF2FF7319404FF6D0
:104B6000FF7303EA02231943818370470A46002139
:104B7000018B4FF6FB7319401143018370470A46BE
:104B80000021018B4FF6FF3319404FF6FF7303EA04
:104B900002231943018370470A460021818B4FF697
:104BA000FB7319401143818370470A460021818BB2
:104BB0004FF6FF3319404FF6FF7303EA0223194300
:104BC000818370470A460021018B4FF67F7319409D
:104BD0001143018370470A460021018BC1F30E0186
:104BE0004FF6FF7303EA02231943018370470A4615
:104BF0000021818B4FF67F731940114381837047E9
:104C00000A460021818BC1F30E014FF6FF7303EAC0
:104C100002231943818370470A460021018C4FF615
:104C2000FD7319401143018470470A460021018C2D
:104C30004FF6F77319401143018470470A4600216B
:104C4000018C4FF6DF7319404FF6FF7303EA02132E
:104C50001943018470470A460021018C4FF67F7387
:104C600019404FF6FF7303EA02131943018470479A
:104C70000A460021018C4FF6FF5319404FF6FF738F
:104C800003EA02231943018470470A460021018C7C
:104C90004FF2FF7319404FF6FF7303EA02231943E3
:104CA000018470470A460021018C4DF6FF731940BC
:104CB0004FF6FF7303EA023319430184704730B59E
:104CC000002301248C40A3B2048C9C430484048CF4
:104CD00002FA01F5ADB22C43048430BD30B5002397
:104CE00004248C40A3B2048C9C430484048C02FAF8
:104CF00001F5ADB22C43048430BD70B503460020ED
:104D000000241846183001258D40ACB21D8CA543F7
:104D10001D8409B1082909D100EB6100056825F05F
:104D2000700505600568154305600EE00D1FC5F3AD
:104D30004E052844056825F4E045056005684FF6F2
:104D4000FF7606EA02263543056070BD21B1028870
:104D500042F00202028004E002884FF6FD731A401E
:104D60000280704721B1028842F00402028004E010
:104D700002884FF6FB731A400280704721B1828887
:104D800042F08002828004E082884FF67F731A40EE
:104D90008280704702884FF6F7731A4002800288BB
:104DA0000A430280704782884FF68F731A408280D0
:104DB00082880A438280704702894FF6F8731A404E
:104DC000028102890A430281704702894FF67F738C
:104DD0001A40028102890A43028170478184704728
:104DE000818570478186704701877047818770474A
:104DF000A0F84010704702884FF6FF431A40028027
:104E000002880A43028070470146888E7047014637
:104E1000088F70470146888F70470146B1F84000FF
:104E200070470146888C70470146088D70470246DE
:104E30000020138A0B400BB1012000E000207047D6
:104E4000CA430282704730B5024600200023002486
:104E5000158A05EA0103958905EA010413B10CB12D
:104E6000012000E0002030BDCA43028270470000EC
:104E700010B50446FB48844209D101218803FEF79E
:104E800019FF00214FF48040FEF714FF32E0F6488E
:104E9000844209D101214804FEF719FF00214FF493
:104EA0000030FEF714FF25E0F048844209D10121CB
:104EB0008804FEF70CFF00214FF48020FEF707FF67
:104EC00018E0EB48844209D10121C804FEF7FFFE37
:104ED00000214FF40020FEF7FAFE0BE0E548844283
:104EE00008D101210805FEF7F2FE00214FF48010E1
:104EF000FEF7EDFE10BD2DE9F04786B005460E46E3
:104F00000024A24600BFA1460027B08900B100BF1F
:104F10002F462C8A4CF6FF700440F08804432C8204
:104F2000AC894EF6F3100440B0883189084371898A
:104F300008430443AC81AC8A4FF6FF400440B0897B
:104F40000443AC8201A8FEF72EFEC648874202D178
:104F5000DDF810A001E0DDF80CA0A88900F4004005
:104F600040B10AEBCA0000EB0A1031684900B0FBFF
:104F7000F1F807E00AEBCA0000EB0A10316889007B
:104F8000B0FBF1F86420B8FBF0F0040120096421C3
:104F900001FB1089A88900F4004040B1322000EBE9
:104FA000C900B0FBF1F000F00700044308E0322034
:104FB00000EB09106421B0FBF1F000F00F00044396
:104FC0002C8106B0BDE8F0874FF416510160002136
:104FD0008180C18001810C21418100218181704744
:104FE00010B502460020108A4FF2FF0318400B88CC
:104FF0004C8823438C882343CC8823431843108256
:1050000010BD0021018041808180C180704721B1A5
:10501000828942F40052828104E082894DF6FF7356
:105020001A4082817047F0B503460024002600250F
:10503000002040F66A17B94200D100BF1846C1F3FC
:10504000421401F01F06012707FA06F5012C01D1D1
:105050000C3004E0022C01D1103000E014301AB101
:1050600007682F43076002E00768AF430760F0BDA1
:105070001AB1838A0B43838202E0838A8B43838243
:105080007047028A4FF6F0731A400282028A0A437E
:105090000282704782894FF2FF731A4082818289AF
:1050A0000A438281704721B1828942F002028281E3
:1050B00004E082894FF6FD731A4082817047028AAC
:1050C0004FF6DF731A400282028A0A430282704757
:1050D00021B1028A42F48042028204E0028A4BF645
:1050E000FF731A4002827047C1F308028280704742
:1050F00001468888C0F308007047818941F00101AA
:1051000081817047028BD2B20283028B42EA012274
:1051100002837047028B02F47F420283028B0A43B0
:105120000283704721B1828A42F02002828204E029
:10513000828A4FF6DF731A408282704721B1828AD9
:1051400042F01002828204E0828A4FF6EF731A4026
:105150008282704721B1828A42F00802828204E092
:10516000828A4FF6F7731A408282704721B1828992
:1051700042F40042828103E08289C2F30E028281FE
:10518000704721B1828A42F40062828204E0828AFE
:105190004FF2FF731A4082827047828A4FF6FB7388
:1051A0001A408282828A0A438282704721B1828AAF
:1051B00042F00202828204E0828A4FF6FD731A40B6
:1051C0008282704702460020B1F5007F00D100BF07
:1051D00013880B400BB1012000E00020704701F460
:1051E0000072B2F5007F00D100BFCA430280704751
:1051F00070B50246002400230025002040F66A1600
:10520000B14200D100BFC1F3421501F01F030126D6
:1052100006FA03F3012D02D19689334006E0022DF0
:1052200002D1168A334001E0968A33400C120126DF
:1052300006FA04F41688344013B10CB1012000E0E2
:10524000002070BD10B50022002340F66A14A14270
:1052500000D100BF0A1201249440A3B2DC430480B1
:1052600010BD0000003801400044004000480040EC
:10527000004C00400050004001460020FE4A1068EB
:1052800000F03800084310607047FB49096821F0BE
:105290000801F94A1160114609680143116070471D
:1052A000F549096821F01001F34A116011460968B7
:1052B000014311607047F148EF494860F048486089
:1052C0007047EE48EC494860ED4848607047EA484E
:1052D000006940F08000E84908617047E6480069CD
:1052E00040F08000E449086170470420E249C96841
:1052F00001F0010109B101200EE0DF49C96801F0A8
:10530000040109B1022007E0DB49C96801F010017E
:1053100009B1032000E00420704700B502460423D1
:10532000FFF7E3FF034603E0FFF7DFFF0346521EEC
:10533000012B01D1002AF7D102B90523184600BD7F
:1053400030B5044604254FF43020FFF7E6FF05464C
:10535000042D17D1C848006940F00200C649086111
:1053600008464461006940F0400008614FF4302075
:10537000FFF7D3FF0546C048006941F6FD710840BC
:10538000BD490861284630BD10B504244FF43020D3
:10539000FFF7C3FF0446042C16D1B748006940F05C
:1053A0000400B54908610846006940F04000086102
:1053B0004FF43020FFF7B1FF0446AF48006941F6D3
:1053C000FB710840AC490861204610BD00B502469B
:1053D0000423FFF78AFF034603E0FFF786FF034637
:1053E000521E012B01D1002AF7D102B9052318461C
:1053F00000BD10B504244FF43020FFF7E7FF04464A
:10540000042C16D19C48006940F004009A490861B8
:105410000846006940F0400008614FF43020FFF773
:10542000D5FF04469448006941F6FB710840924953
:105430000861204610BD00208F49C96901F00201B2
:1054400009B1012000E00020704730B5A5250424F3
:10545000FFF7F1FF00B100254FF43020FFF75DFFAB
:105460000446042C3AD18548834988608448886082
:105470000846006940F0200008610846006940F0D5
:10548000400008614FF43020FFF747FF0446042C2A
:105490001BD17948006941F6DF71084076490861FF
:1054A0000846006940F01000086176480580E00277
:1054B000FFF733FF0446052C10D06F48006941F612
:1054C000EF7108406C49086108E0052C06D06A4875
:1054D000006941F6EF71084067490861204630BD18
:1054E00078B506460C46042500200090E802FFF738
:1054F00014FF0546042D24D15F48006940F00100E7
:105500005D4908613480E802FFF707FF0546042D76
:1055100010D1B01C0090200C00990880E802FFF721
:10552000FCFE05465448006941F6FE7108405249A8
:10553000086106E05048006941F6FE7108404E4996
:105540000861284678BD70B504460D460426F00271
:10555000FFF7E3FE0646042E11D14748006940F0EC
:105560000100454908612580F002FFF7D6FE064696
:105570004148006941F6FE7108403F4908613046E4
:1055800070BD70B505460E460424E002FFF7C5FE67
:105590000446042C17D13948374988603848886058
:1055A0000846006940F0100008612E80E002FFF715
:1055B000B4FE0446052C06D02F48006941F6EF7171
:1055C00008402D490861204670BD2DE9F04304468E
:1055D0004FF6FF763746B046B1460425E443E6B2BF
:1055E000C4F30727C4F307484FEA1469E802FFF73A
:1055F00094FE0546042D49D120481F498860204863
:1056000088600846006940F010000861FF2E06D04F
:105610001C4808300680E802FFF77FFE0546042D8F
:1056200008D1FF2F06D017480A300780E802FFF79D
:1056300074FE0546042D0AD1B8F1FF0F07D01148BA
:105640000C30A0F80080E802FFF767FE0546042D45
:105650000AD1B9F1FF0F07D00A480E30A0F8009028
:10566000E802FFF75AFE0546052D0FD002480069F3
:1056700041F6EF71084007E0002002402301674532
:10568000AB89EFCD00F8FF1F664908612846BDE8E9
:10569000F08330B5054604244FF43020FFF73DFE7B
:1056A0000446042C41D160485E4988605F488860A8
:1056B0000846006940F0200008610846006940F093
:1056C000400008614FF43020FFF727FE0446042C09
:1056D00022D15448006941F6DF7108405149086100
:1056E0000846006940F0100008611DB100205049D3
:1056F000088002E0A5204E4908804FF43020FFF7D3
:105700000CFE0446052C10D04648006941F6EF71A6
:1057100008404449086108E0052C06D0414800696A
:1057200041F6DF7108403F490861204630BDF0B5C1
:1057300005460E46174604243B483A4988603B48D4
:105740008860E002FFF7E9FD0446042C19D13548D2
:10575000006940F010003349086147F0F800304319
:1057600028433349891C0880E002FFF7D6FD044630
:10577000052C06D02B48006941F6EF7108402949F5
:1057800008612046F0BD2748C06980087047254859
:10579000006A704700202349096801F0200109B11F
:1057A000012000E00020704729B11E4A126902431F
:1057B0001C4B1A6104E01B4A12698243194B1A619F
:1057C000704701460020012908D1164AD26902F02B
:1057D00001020AB1012008E0002006E0114AD26867
:1057E0000A400AB1012000E0002070470D49C8605E
:1057F000704704200B49C96801F0010109B101207B
:105800000EE00849C96801F0040109B1022007E06F
:105810000449C96801F0100109B1032000E0042027
:10582000704700000020024023016745AB89EFCD9F
:1058300000F8FF1F0CB50020019000906C48006834
:1058400040F480306A49086000BF6948006800F48D
:10585000003000900198401C0190009818B9019800
:10586000B0F5A06FF1D16248006800F4003010B1CB
:105870000120009001E0002000900098012843D111
:105880005C48006840F010005A490860084600680B
:1058900020F0030008600846006840F0020008603D
:1058A0005348406852494860084640684860084686
:1058B000406840F4806048600846406820F47C10EE
:1058C00048600846406840F4E810486008460068B0
:1058D00040F08070086000BF4548006800F000702C
:1058E0000028F9D04248406820F003004049486051
:1058F0000846406840F00200486000BF3C484068ED
:1059000000F00C000828F9D10CBD10B5FFF792FF8C
:1059100010BD10B53648006840F0010034490860F9
:1059200008464068344908403149486008460068E4
:10593000324908402E4908600846006820F480205B
:1059400008600846406820F4FE0048604FF41F00DD
:105950008860FFF7DAFF4FF000602949086010BD4A
:1059600010B5002100200022214B5B6803F00C01E0
:1059700021B1042906D0082928D107E0214B224C67
:10598000236027E01F4B204C236023E0184B5B680B
:1059900003F47010164B5B6803F48032022303EBB0
:1059A000904022B9194B4343174C23600DE0104B34
:1059B0005B6803F4003323B1144B4343124C236060
:1059C00003E0104B4343104C236003E00D4B0E4C9F
:1059D000236000BF00BF064B5B68C3F303130C4C8E
:1059E000E15C094B1B68CB40074C236010BD0000F5
:1059F00000100240002002400000FFF8FFFFF6FE0A
:105A000008ED00E000127A00BC1B002000093D00F8
:105A1000C01B00200948804709480047FEE7FEE711
:105A2000FEE7FEE7FEE7FEE7FEE7FEE7FEE7FEE74E
:105A300004480549054A064B704700001359000801
:105A400031010008F83C0020F8420020F83E002018
:105A5000F83E00204168491C4160D0E90121914293
:105A600003D10121016000214160704700B5264843
:105A7000006878B30020244908602448FFF7EAFF53
:105A80002348FFF7E7FF2348FFF7E4FF2248FFF72B
:105A9000E1FF2248FFF7DEFF2148FFF7DBFF214847
:105AA000FFF7D8FF2048FFF7D5FF2048FFF7D2FFC8
:105AB0001F48FFF7CFFF1F48FFF7CCFF1E48FFF737
:105AC000C9FF1E48FFF7C6FF1D48FFF7C3FF1D486B
:105AD000FFF7C0FF00BD10B5002404604460816082
