:020000040800F2
:10000000E82F002009530008BF020008C1020008C1
:10001000C5020008C9020008CD0200080000000067
:10002000000000000000000000000000D1020008F5
:10003000D302000800000000D5020008D702000823
:1000400023530008235300082353000823530008B8
:1000500023530008235300082353000823530008A8
:100060002353000823530008235300082353000898
:100070002353000823530008235300082353000888
:100080002353000823530008235300082353000878
:100090002353000823530008235300082353000868
:1000A0002353000823530008235300082353000858
:1000B0005D0C000823530008235300082353000855
:1000C0002353000823530008235300082353000838
:1000D000235300081D0E0008235300082353000873
:1000E0002353000823530008235300082353000818
:1000F0002353000823530008235300082353000808
:1001000023530008235300082353000823530008F7
:1001100023530008235300082353000823530008E7
:1001200023530008235300082353000823530008D7
:1001300000F002F800F0B4F80AA090E8000C824445
:100140008344AAF10107DA4501D100F0A9F8AFF222
:10015000090EBAE80F0013F0010F18BFFB1A43F0A5
:1001600001031847709200009092000010F8013BC4
:100170000A4413F0030408BF10F8014B1D1108BF17
:1001800010F8015B641E05D010F8016B641E01F8C5
:10019000016BF9D1002D15D010F8014B03F00C03C1
:1001A0000C2BA1EB04040ABF10F8013BA4EB831451
:1001B000A4EB032405F1010314F8016B5B1E01F8A5
:1001C000016BF9D5914238BF10F8013BD1D370478C
:1001D0000023002400250026103A28BF78C1FBD850
:1001E000520728BF30C148BF0B6070476E2906F028
:1001F0004F87702907F0B980662909F000806529CA
:1002000008F0FD87672908F0FA876129AFF30080BD
:1002100003681B0A28BF41F08001692906F0568552
:10022000642906F05385752906F050856F2907F07B
:100230004780782907F08580E92906F0E187E429DD
:1002400006F0DE87F52906F0DB87EF2907F044800A
:10025000F82907F084800368DB0928BF41F080019A
:10026000632906F05087732906F05587E32907F0C4
:100270004083F32907F04583002070471FB507F03E
:10028000BBFB04000020002108F02CFE401C606035
:100290000020002108F010FEE0601FBD10B510BD69
:1002A00007F07CFB1146FFF7E9FF00F0A2FC07F026
:1002B000A7FE03B4FFF7F2FF03BC00F04BFD70474D
:1002C00000BFFEE700BFFEE700BFFEE700BFFEE79E
:1002D000704770477047704708B501214FF4FE70B2
:1002E00003F0CEFA0121084603F0CAFA0121694859
:1002F00003F0BBF84FF68010ADF8000048208DF8F1
:10030000030003208DF802006946634802F0DCFF19
:100310004FF40050ADF8000048208DF80300032092
:100320008DF8020069465D4802F0CEFF7E20ADF8F0
:10033000000010208DF8030003208DF802006946AC
:10034000554802F0C1FF4FF6FF70ADF800001020D5
:100350008DF8030003208DF802006946504802F032
:10036000B3FF4FF6FF70ADF8000010208DF80300CA
:1003700003208DF8020069464A4802F0A5FF4FF6B7
:10038000FF70ADF8000010208DF8030003208DF8F9
:1003900002006946444802F097FF4FF6FF70ADF83F
:1003A000000010208DF8030003208DF8020069463C
:1003B0003E4802F089FF4FF6FF70ADF800001020B4
:1003C0008DF8030003208DF802006946384802F0DA
:1003D0007BFF4DF6FF70ADF8000010208DF8030094
:1003E00003208DF8020069462C4802F06DFF4FF49F
:1003F0008041294803F017F84FF6FF71284803F0B1
:1004000010F84FF6FF71274803F00BF84FF6FF7115
:10041000254803F006F84FF6FF71244803F001F871
:1004200041F6FF71224802F0FCFF43F6FF711B48C2
:1004300002F0F7FF4FF48041174802F0F2FF4FF44B
:100440000061154802F0EDFF4FF48061134802F09F
:10045000EAFF4FF40061114802F0E5FF4FF48051CC
:100460000E4802F0E0FF08BD70B505460C4645F2A7
:10047000555003F077F8284603F077F8204603F04C
:1004800077F803F078F803F07BF870BD10B503F04F
:1004900072F810BD00023000000801400020014049
:1004A000000C014000100140001401400018014000
:1004B000001C014038B5FE48008800F400400028C8
:1004C0007DD07020FB49FC4A128888540846007889
:1004D000732818D108464078742814D108468078CB
:1004E000612810D10846C07872280CD108460079DE
:1004F000742808D1084640790D2804D10120EF491D
:100500008874EF490870EB480078722816D1E948E2
:100510004078652812D1E748807873280ED1E548E5
:10052000C07865280AD1E3480079742806D1E148EB
:1005300040790D2802D10120E2498874DD48007815
:10054000742815D1DB484078652811D1D9488078C6
:1005500073280DD1D748C078742809D1D5480079BF
:100560000D2805D1D34840790A2801D101F095FE24
:10057000D0480078412815D1CE4840784E2811D176
:10058000CC48807849280DD1CF4A11681268521C96
:10059000CD4C2260CD4A10681268521CCB4C2260B0
:1005A00001F030F8C3480078732810D1C148407872
:1005B00065280CD1BF488078662808D100E098E211
:1005C0004FF47A70C2490860C2A006F00DFBB9482A
:1005D0000078732811D1B748407865280DD1B54807
:1005E0008078672809D1C0480068401CBE4908606F
:1005F00008460168006801F046FAAE4800787328A2
:1006000011D1AC48407865280DD1AA488078682877
:1006100009D1B5480068401EB34908600846016822
:10062000006801F030FAA3480078732810D1A1487F
:10063000407865280CD19F488078692808D1AA485D
:100640000068401CA84A01461060802001F01BFA97
:100650009848007873280CD196484078652808D1CE
:10066000944880786A2804D19F480168006801F0A6
:100670000AFA9048007873280FD18E484078652890
:100680000BD18C4880786B2807D1974800681438C4
:100690009549086095A006F0A7FA86480078732867
:1006A0000DD184484078652809D182488078612836
:1006B00005D18D4801686431006801F0E4F97D4896
:1006C000007873280CD17B484078632808D179489A
:1006D0008078622804D188A006F086FA01F084FDB3
:1006E0007448007873280BD172484078632807D18A
:1006F00070488078632803D19621652001F07CF949
:100700006C48007873280BD16A484078632807D179
:1007100068488078642803D1C821972001F06CF9DB
:1007200064480078612817D162484078642813D162
:100730006048807864280FD15E48C07832280BD199
:100740005C480079302807D16DA006F04DFA664864
:1007500000681430644908606CA1564806F0DEFB5E
:1007600020B917226421082001F015F96AA1514827
:1007700006F0D4FB28B96CA006F036FA6E4801F0FA
:1007800056F96EA14B4806F0C9FB20B91522642129
:10079000082001F01DF96CA1464806F0BFFB10B916
:1007A0006D4801F0B6F8434800786A281DD14148E9
:1007B0004078362819D13F488078612815D101202A
:1007C0006649086066A0674B674A68A1009068A008
:1007D00001F050FA62A0674B674A68A1009068A0D8
:1007E00001F048FA00205D4908603248007864282A
:1007F00015D130484078652811D12E48807862287C
:100800000DD12C48C078752809D12A48007967286D
:1008100005D100205B4908705BA006F0E5F925488A
:10082000007863282DD123484078612829D12148B8
:100830008078742825D158A006F0D6F901204749C0
:1008400008604EA0574B584A45A1009057A001F0B0
:1008500011FA57A0574B584A58A1009054A001F0E4
:1008600009FA3FA03F4B404A40A1009040A001F050
:1008700001FA3BA03F4B404A40A1009040A001F04C
:10088000F9F90C480078722810D10A484078652898
:100890000CD108488078742808D10648C07875289B
:1008A00004D1044800796E2800D189E08EE0000070
:1008B00030000020E020002034000020C42500206B
:1008C000DB200020E4250020240000202000002060
:1008D0005C00002073657420746865207075742056
:1008E0006C6F6E67000000002800002064656320C4
:1008F000323020776F726B0072756E63617000002A
:1009000069742077617320776F726B0066696E641B
:10091000476E640D0A0000005343414E5369676EF1
:10092000616C5F310D0A00007363616E7369676EFD
:10093000616C5F3100000000901900207866696EDC
:1009400064676E640D0A00007866696E64536967B7
:100950006E616C0D0A000000D0180020340B0020DE
:100960004A314100D4030020640000205531410089
:100970004A36410044090020B405002055314200A8
:100980004A3642003D00002073657420646562753C
:100990006720300D0A000000746573746A37620DB9
:1009A0000A000000BC0F0020DC0B00204A37410089
:1009B0004A3742003C1600201C1200204A314200F7
:1009C0000020B8490870B8A006F00EF9BB480078BE
:1009D000792820D1B948407879281CD1B748807847
:1009E000792818D1B548B649086008460068C01C87
:1009F00008600846006808F0E3F9044608F00AFBBE
:100A0000B04908600846B0A10268B24806F0F8F89C
:100A1000B04806F0DDF8A9480078782820D1A7482A
:100A2000407878281CD1A5488078782818D1A34828
:100A3000A349086008460068C01C086008460068B2
:100A400008F0BEF9044608F0E5FAA3490860084634
:100A5000A2A102689F4806F0D3F89E4806F0B8F8B5
:100A600096480078732818D194484078652814D1A6
:100A700092488078792810D1974801689148006899
:100A800001F001F898490860084694A1026891486D
:100A900006F0B6F88F4806F09BF88848007875286D
:100AA00024D186484078752820D1844880787428DD
:100AB0001CD182488249086008460068C01C086052
:100AC0000846006808F07CF9044608F0A3FA874954
:100AD0000860084681A102687E4806F091F87D48CA
:100AE00006F076F88148006800F0E0FF00208049B9
:100AF000088038BD70470EB50121084602F0CDFED2
:100B00000920ADF8040041F61F40ADF800000020B8
:100B1000ADF80600ADF8020069464FF0804002F0E3
:100B2000E7FF01221146900703F059FB01218807D6
:100B300003F03AFB0EBD08B500214FF0006002F053
:100B400004F94FF4C06002F0C9F81C208DF80000D1
:100B500000208DF801008DF8020001208DF80300BF
:100B6000684602F0C0F808BD10B502F01BFD4FF456
:100B7000803002F037FD02F074FD0446012C2FD1C5
:100B8000102004F007F8022003F0F0FF002002F02C
:100B9000AEFD002002F0BDFDA00202F0B1FD4FF459
:100BA000E011200402F086FD012002F08FFD00BF5D
:100BB000392002F03AFD0028FAD0022002F089FD27
:100BC00000BF02F08FFD0828FBD1012002F090FE4B
:100BD0000121084602F061FE01213D2002F050FE95
:100BE00010BD10B5FFF7C0FFFFF7A5FFFFF783FFAC
:100BF00010BDFFF7F6FF4FF4165000F0BDF8FFF7F9
:100C00006BFB00F0C3FF05F00CFF04F017FC0120A4
:100C10003849887438A005F0E7FF1EE004F0A0FB17
:100C200005F0FBFA3A4A3B493B4804F05EFEFFF709
:100C300041FC3A4A3A493B4804F028FC2D4A3A49DB
:100C40003A4804F019FD3A4A3A493B4804F0A3FEF9
:100C50003A4A3B493B4804F0E6FEDFE710B5012184
:100C6000880703F06AFD012812D10121800703F0F3
:100C700075FD35480068401C3349086033480068FA
:100C8000401C3249086032480068401C3049086006
:100C900010BD00212C4A116000BF2B490968814218
:100CA000FBD37047CC18002073657420726574758F
:100CB000726E6F72203D300D0A000000E0200020AF
:100CC0000C00002000000020736574595B2533641C
:100CD0005D0D0A00A22400200400002073657458F2
:100CE0005B2533645D0D0A00140000201000002015
:100CF00030000020E42500200D0A20737461727416
:100D00002076657273696F6E2033210D0A00000032
:100D100004260020C2200020F4240020C425002046
:100D2000C0200020D4240020C1200020E424002082
:100D300024260020C3200020042500204426002073
:100D4000C42000201425002018000020BC20002012
:100D5000DC20002000BF704770B504460D46A1B2EC
:100D60004A4803F03BFE00BF8021484803F0A4FE40
:100D70000028F9D0204670BD10B586B00446012188
:100D800044F2040002F07CFD4FF40070ADF8140052
:100D900003208DF8160018208DF8170005A93C488F
:100DA00002F092FA4FF48060ADF8140004208DF840
:100DB000170005A9364802F087FA25208DF80000B3
:100DC00003208DF801008DF8020001208DF803004A
:100DD000684601F088FF01940020ADF80800ADF8E6
:100DE0000A00ADF80C00ADF810000C20ADF80E00B4
:100DF00001A9264803F0F9FC012240F225512348BD
:100E000003F08BFD012240F22441204803F085FDD0
:100E100001211E4803F075FD06B010BD10B500BFDE
:100E200040F22551194803F05DFE88B11748001DB6
:100E30000088C1B2174802880088401C154B1880F2
:100E40001548815440F22551104803F042FE19E044
:100E500040F224410D4803F045FE98B10F48008848
:100E600040F400400D4908800A4800880C49088079
:100E700000200849088005480088C4B20348001DC6
:100E80000088C4B210BD0146704700000038014020
:100E90000008014032000020E02000203000002047
:100EA0003400002002464FF4347105E0024600E0B1
:100EB000521E002AFCD1491E0029F7DC7047582930
:100EC00061D108285DD2DFE800F004101B252F3A1D
:100ED00045500122F94B1A600022F94BC3F89421C6
:100EE0000122F64B08331A604CE00122F34B1A60E2
:100EF000F34BC3F894210022F04B08331A6041E011
:100F00000122EE4B1A60EE4BC3F89421EB4B0833F1
:100F10001A6037E00022E94B1A60E94BC3F89421CC
:100F2000E64B08331A602DE00022E44B1A600122E0
:100F3000E34BC3F89421E14B08331A6022E001220D
:100F4000DE4B1A600022DE4BC3F89421DB4B0833E2
:100F50001A6017E00022D94B1A60D94BC3F89421CC
:100F60000122D64B08331A600CE00022D34B1A60E2
:100F70000122D34BC3F894210022D04B08331A60CE
:100F800000E000BF00BF592969D1082865D2DFE819
:100F900000F004111D28333F4B570122C74B0C3B77
:100FA0001A600022C64BC3F888210122C34B1B1FC5
:100FB0001A6053E00122C14B0C3B1A60C04BC3F8CE
:100FC00088210022BD4B1B1F1A6047E00122BB4B4A
:100FD0000C3B1A60BA4BC3F88821B84B1B1F1A6030
:100FE0003CE00022B54B0C3B1A60B54BC3F888219E
:100FF000B24B1B1F1A6031E00022B04B0C3B1A6051
:101000000122AF4BC3F88821AC4B1B1F1A6025E0AF
:101010000122AA4B0C3B1A600022A94BC3F888217D
:10102000A64B1B1F1A6019E00022A44B0C3B1A6050
:10103000A34BC3F888210122A04B1B1F1A600DE0AF
:1010400000229E4B0C3B1A6001229D4BC3F8882165
:1010500000229A4B1B1F1A6000E000BF00BF7047C0
:101060000121984A1160984AC2F88411954A0832C1
:101070001160121D1160121D1160121D1160121DF0
:101080001160121D1160121D1160121D11608F4A36
:101090001160121D1160121D11608A4A34321160F4
:1010A000121D1160121D1160894A1160121D11601C
:1010B000121D1160121D1160121D1160121D1160B0
:1010C000121D1160121D1160121D1160121D1160A0
:1010D000121D1160121D1160121D1160121D116090
:1010E000121D1160121D11607A4A1160121D1160EB
:1010F000121D1160121D1160121D1160121D116070
:10110000121D1160121D1160121D1160121D11605F
:10111000714A1160121D1160121D1160684AC2F8F7
:101120009C112E286FD2DFE800F0171B20252A2FF4
:1011300034393E43484C51565B6065696F74797E23
:1011400083888D92979CA1A6ABB0B5B9BEC3D9DDFB
:10115000E2E7F1F6FBFFECC800215A4A1160F2E029
:101160000021584A121D1160EDE00021554A083255
:101170001160E8E00021534A0C321160E3E00021E5
:10118000504A10321160DEE000214E4A14321160E4
:10119000D9E000214B4A18321160D4E00021494ABD
:1011A0001C321160CFE00021464A20321160CAE0B3
:1011B0000021444A24321160C5E00021434A1160F5
:1011C000C1E00021414A121D1160BCE000213F4AEC
:1011D00008321160B7E000213A4A34321160B2E0BF
:1011E0000021384A38321160ADE00021354A3C32E6
:1011F0001160A8E00021364A1160A4E00021344AC1
:10120000121D11609FE09DE00021314A08321160FB
:1012100099E000212E4A0C32116094E000212C4A02
:10122000103211608FE00021294A143211608AE0E7
:101230000021274A1832116085E00021244A1C321F
:10124000116080E00021224A203211607BE0002101
:101250001F4A2432116076E000211D4A28321160B5
:1012600071E000211A4A2C3211606CE00021184A0A
:101270003032116067E00021154A3432116062E0BB
:101280000021134A383211605DE00021104A3C32DF
:10129000116058E000210F4A116054E000210D4A0E
:1012A000121D11604FE000210A4A083211604AE025
:1012B0000021084A0C32116045E03FE090012142D4
:1012C00000002142800122420000224294812142FA
:1012D0008001234280012442B48123420021FE4A3E
:1012E000116030E00021FC4A121D11602BE000214A
:1012F000F94A0832116026E00021F74A0C321160E9
:1013000021E016E010E00BE005E0FFE70021F24AE3
:101310001032116017E00021EF4A1432116012E020
:101320000021EE4A11600EE00021EC4A121D11600E
:1013300009E00021E94A0832116004E00021E84A8E
:10134000116000E000BF00BF70470121E54A116055
:10135000E54AC2F88411E34A08321160121D116097
:10136000121D1160E14A1160121D1160121D116001
:10137000DC4A20321160121D1160121D1160121D15
:101380001160121D1160121D1160121D1160121DDD
:101390001160D74A1160121D1160121D1160121DDB
:1013A0001160121D1160121D1160121D1160121DBD
:1013B0001160121D1160121D1160121D1160121DAD
:1013C0001160121D1160121D1160121D1160121D9D
:1013D0001160C24A343A1160121D1160121D116071
:1013E000121D1160121D1160121D1160121D11607D
:1013F000121D1160121D1160121D1160121D11606D
:10140000121D1160121D11602D286FD2DFE800F04F
:10141000171B20252A2F33383D42474C51565B601D
:1014200065696F74797E83888D92979CA1A6ABB015
:10143000B5BABFC4C9CED3D8DDE2E7ECF2000021D3
:10144000A84A1160DCE00021A64A121D1160D7E015
:101450000021A44A08321160D2E00021A14A0C32D6
:101460001160CDE000219F4A10321160C8E00021D8
:101470009E4A1160C4E000219C4A121D1160BFE029
:1014800000219A4A08321160BAE00021954A2032C0
:101490001160B5E00021934A24321160B0E00021D0
:1014A000904A28321160ABE000218E4A2C32116044
:1014B000A6E000218B4A30321160A1E00021894A68
:1014C000343211609CE00021864A3832116097E086
:1014D0000021844A3C32116092E00021844A11606C
:1014E0008EE00021824A121D116089E087E0002110
:1014F0007F4A0832116083E000217D4A0C3211607E
:101500007EE000217A4A1032116079E00021784AA9
:101510001432116074E00021754A183211606FE0D6
:101520000021734A1C3211606AE00021704A2032A7
:10153000116065E000216E4A2432116060E00021F4
:101540006B4A283211605BE00021694A2C3211603D
:1015500056E00021664A3032116051E00021644AB1
:10156000343211604CE00021614A3832116047E0AA
:1015700000215F4A3C32116042E00021574A343A70
:1015800011603DE00021554A303A116038E00021F9
:10159000524A2C3A116033E00021504A283A116037
:1015A0002EE000214D4A243A116029E000214B4AE7
:1015B000203A116024E00021484A1C3A11601FE0E3
:1015C0000021464A183A11601AE00021434A143AB1
:1015D000116015E00021414A103A116010E000212D
:1015E0003E4A0C3A11600BE000213C4A083A116077
:1015F00006E0FFE70021394A121F116000E000BF3A
:1016000000BF70472DE9F04704460D46601EC11724
:1016100000EB5171C910A0EBC106C11700EB51716D
:10162000CF10681EC11700EB5171C910A0EBC108A3
:10163000C11700EB51714FEAE1093846FFF710FD81
:1016400059213046FFF73BFC4846FFF77EFE582104
:101650004046FFF734FC0320FFF724FC0421002060
:1016600000F0EDFA2349488008464088BDE8F0873D
:101670002DE9F04705460C462646681EC11700EBCB
:101680005171C910A0EBC107C11700EB51714FEAAE
:10169000E108701EC11700EB5171C910A0EBC10920
:1016A000C11700EB51714FEAE10A4046FFF7D8FC41
:1016B00059213846FFF703FC5046FFF746FE5821F4
:1016C0004846FFF7FCFBFA20FFF7ECFB0621002061
:1016D00000F0B5FA07490FE090012442B48123429B
:1016E0009C0121428081214200802142A8012242A6
:1016F00080812242BC210020488008464088B0F505
:10170000967F0DDD08464088B0F57A7F08DA142010
:10171000FFF7C8FB0621002000F091FAFE4948803F
:101720004FF44870FFF79CFCFB484088BDE8F08709
:101730002DE9F04705460C462646681EC11700EB0A
:101740005171C910A0EBC107C11700EB51714FEAED
:10175000E108701EC11700EB5171C910A0EBC1095F
:10176000C11700EB51714FEAE10A4046FFF778FCE0
:1017700059213846FFF7A3FB5046FFF7E6FD5821F5
:101780004846FFF79CFB1E20FFF78CFB062100203C
:1017900000F055FAE049488008464088B0F5967F49
:1017A0000DDD08464088B0F57A7F08DA1420FFF78F
:1017B00079FB0621002000F042FAD74948804FF417
:1017C0004870FFF74DFCD4484088BDE8F0872DE90C
:1017D000F04705460C462646681EC11700EB5171BE
:1017E000C910A0EBC107C11700EB51714FEAE10826
:1017F000701EC11700EB5171C910A0EBC109C117D0
:1018000000EB51714FEAE10A4046FFF729FC5921EC
:101810003846FFF754FB5046FFF797FD58214846DE
:10182000FFF74DFB4FF47A70FFF73CFB06210020D9
:1018300000F005FAB849488008464088B0F5967F20
:101840000DDD08464088B0F57A7F08DA3220FFF7D0
:1018500029FB0621002000F0F2F9AF494880AE488C
:101860004088BDE8F0870246002070472DE9F0412E
:1018700004460D464FF000082E68276805E0314603
:101880002068FFF7F5FE8046241D2068B0F5FA7F3A
:10189000F5D105E038462968FFF7EAFE80462D1DA0
:1018A0002868B0F5FA7FF5D1BDE8F081024605E081
:1018B0000868904201D101207047091D0868B0F501
:1018C000FA7FF5D10020F7E72DE9F0470024002545
:1018D00017266427B046B946A246344612E08F491F
:1018E0002046FFF7E3FF012800D10AE0454605E066
:1018F00029462046FFF7BCFE82466D1C4D45F7DDAC
:1019000000BF641CBC42EADD85A005F06DF9BDE8AE
:10191000F08710B5044682A005F066F910BD2DE9E8
:10192000F04700240025012632274FF00108B94670
:10193000A24634460AE0454605E029462046FFF720
:1019400097FE82466D1C4D45F7DD641CBC42F2DDFE
:1019500073A005F049F9BDE8F0872DE9F0470024B0
:101960000025012632274FF00108B946A246344629
:101970000AE0454605E029462046FFF779FE824603
:101980006D1C4D45F7DD641CBC42F2DD64A005F022
:101990002BF9BDE8F0872DE9F04105460E461746C4
:1019A0000024A0462C460CE03946204600F01EFDDF
:1019B0008046B8F57A7F03DA3946204600F016FDF6
:1019C000641CB442F0DD5FA005F00EF9BDE8F081C3
:1019D0002DE9F04105460E46174600242C4604E04A
:1019E0002146384600F002FD641CB442F8DD55A0E3
:1019F00005F0FAF8BDE8F0812DE9F04104460D4606
:101A000000260027B04626460AE0274605E039466C
:101A1000304600F0EBFC80467F1CAF42F7DD761CC1
:101A2000AE42F2DD3EA005F0DFF8BDE8F08170B512
:101A300004462646012500BF14E034460CE0206829
:101A4000A84200D10CE06068B0F5FA7F03D12946C6
:101A500042A005F0C9F8241D2068B0F5FA7FEED148
:101A600000BF6D1C642DE8DB70BD10B50446214637
:101A70002046FFF7FDFD10BD10B504462146204667
:101A800000F0B4FC10BD70B504460D462946204652
:101A9000FFF7B8FD70BD10B5FFF741FF20A005F0BE
:101AA000A3F810BD10B5FFF7F6FF10BD10B5044642
:101AB0000B2C09D14FF480512A4801F0B2FC4FF4AD
:101AC0000061284801F0AFFC0C2C09D14FF4805183
:101AD000244801F0A8FC4FF40061224801F0A1FC69
:101AE000152C04D14FF480611E4801F09CFC162C8B
:101AF00004D14FF480611B4801F093FC1F2C04D1EA
:101B00004FF48041174801F08EFC202C03D1610274
:101B1000144801F086FC27E0BC2100209019002029
:101B200068657265206973206F7574207075742004
:101B3000616C6C206F6620726573756C7420200D6B
:101B40000A0000007363616E2074686520676E642C
:101B5000206F76657220200D0A0000002533642C6A
:101B60000000000000200140292C04D14FF4004166
:101B7000054801F058FC2A2C04D14FF400410248DA
:101B800001F04FFC10BD00000020014000B587B0FF
:101B900001214FF4017001F073FE4FF4004001F099
:101BA000D3FD0120ADF8040000208DF8070001A945
:101BB0002E4801F089FB2E4801F0FEF8002002902B
:101BC0008DF80C008DF80D004FF46020049000207B
:101BD000059001208DF8180002A9254801F013F99D
:101BE0000121234801F03BF9214801F05AF900BFD7
:101BF0001F4801F05BF90028FAD11D4801F060F997
:101C000000BF1B4801F061F90028FAD107B000BD00
:101C100010B50446072301222146154801F08BF92F
:101C20000121134801F05BF900BF0221104801F0C7
:101C3000C7FA0028F9D00E4801F0E4F910BD2DE9EB
:101C4000F04107460C460025002608E03846FFF71D
:101C5000DFFF05443220FFF725F9701CC6B2A6420B
:101C6000F4DBB5FBF4F080B2BDE8F0810008014080
:101C7000002401402DE9FF4F85B00E4615461F4652
:101C8000D5F808800024A146042004904FF0030BEF
:101C90004FF0000A002003900720049001243FE049
:101CA00007EB0412D26802EB080107EB04129268FA
:101CB00002EB0800FFF7DCFC8146FA48006881452A
:101CC00011DDA24607EB04104068CDE9006007EB88
:101CD00004100368F4A1FB48059A04F091FFF94849
:101CE00004F076FF1BE00498401E04900498B0B9FD
:101CF00007EB04104068CDE9006007EB04100368AF
:101D0000F1A1F048059A04F07BFFEE4804F060FF73
:101D1000F448006818B9002009B0BDE8F08F641CD1
:101D200007EB04100068B0F5FA7FB9D14FF0030B50
:101D3000012400E0641C05EB04100068B0F5FA7F94
:101D4000F8D1641C3CE005EB0412D26802EB0801F8
:101D500005EB0412926802EB0800FFF7E9FC8146EC
:101D6000D0480068814510DD05EB04104068CDE9DE
:101D7000006005EB04100368CBA1D248059A04F07B
:101D80003FFFD04804F024FF19E0ABF1010BBBF199
:101D9000000F14D105EB04104068CDE9006005EB9D
:101DA00004100368C8A1C748059A04F029FFC54874
:101DB00004F00EFFCB48006808B90020ACE7641CB3
:101DC00005EB0410006840F2F5118842BBD14FF0DA
:101DD000030B012400E0641C05EB0410006840F2D2
:101DE000F5118842F7D1601C05EB00100068B0F5D2
:101DF000167F4BD1641C0394641C41E005EB041274
:101E0000D368039A05EB0212D268991805EB041205
:101E1000926802EB0800FFF78BFC8146A14800683E
:101E2000814511DD05EB041040681299CDE90010E1
:101E300005EB041003689CA1A248059A04F0E0FE9B
:101E4000A04804F0C5FE1AE0ABF1010BBBF1010F95
:101E500015DA05EB041040681299CDE9001005EB86
:101E60000410036898A19748059A04F0C9FE9548A4
:101E700004F0AEFE9B48006808B900204CE7641CE3
:101E800005EB04100068B0F5FB7FB7D10124ADE08D
:101E900005EB0412D26802EB080105EB041292680C
:101EA00002EB0800FFF7E4FB81467E4800688145AD
:101EB00010DD05EB04104068CDE9006005EB04106F
:101EC000036879A17F48059A04F09AFE7D4804F0E2
:101ED0007FFE14E005EB04104068CDE9006005EBDF
:101EE0000410036878A17748059A04F089FE7548C4
:101EF00004F06EFE7B48006808B900200CE707EB91
:101F00000A12D26802EB080105EB0412926802EB98
:101F10000800FFF7ADFB8146B9F5167F10DA07EB35
:101F20000A104068CDE9006005EB041003685EA16B
:101F30006448059A04F064FE624804F049FE14E027
:101F400007EB0A104068CDE9006005EB0410036858
:101F500065A15C48059A04F053FE5A4804F038FE27
:101F60006048006808B90020D6E6601C05EB001048
:101F7000C068B0F5FA7F38D0621C05EB0212D26857
:101F800002EB080105EB0412926802EB0800FFF770
:101F90006FFB8146B9F5167F11DA601C05EB001066
:101FA0004068CDE9006005EB041003683EA1454898
:101FB000059A04F025FE434804F00AFE15E0601C73
:101FC00005EB00104068CDE9006005EB04100368E4
:101FD00045A13C48059A04F013FE3A4804F0F8FD88
:101FE0004048006808B9002096E6641C05EB041020
:101FF0000068B0F5FA7F7FF44BAF01208CE62DE945
:10200000F04790B005460E4617464021684604F05A
:102010005DFF0024A046A146A24600BF0CE005EBF0
:10202000C40255F834005168FFF722FBB0F5966FF3
:1020300001DD55F83480641C042CF0DB00240EE034
:1020400006EBC40256F834005168FFF711FBB0F5F7
:10205000966F03DD06EBC400D0F80490641C042CDA
:10206000EEDBB8F1000F02D0B9F1000F0AD125A1C3
:10207000144804F0C5FD134804F0AAFD002010B078
:10208000BDE8F087002464E049464046FFF79FFB27
:102090004DF824000098B0F57A7F43DA4FF0010A3A
:1020A00059E00000380B0020706173733A25735BB0
:1020B0002533645D25735B2533645D3A6F6B0D0AD0
:1020C00000000000A22400206661696C3A25735B61
:1020D0002533645D25735B2533645D3A6F70656EEF
:1020E0000D0A0000340B00206661696C3A25735BB1
:1020F0002533645D25735B2533645D3A73686F72C5
:10210000740D0A006661696C3A4A37415B202037DA
:102110005D4A31415B2031325D3A6F70656E0D0A68
:1021200000000000002C13DD601E5DF820105DF83B
:1021300024000A30814203DA5DF82400FA2804DA28
:102140000E2C05D14FF0010A05E04FF0020A02E023
:10215000641C102C98DB00BFBAF1010F1FD157A1EE
:10216000384604F0DBFE18B955A15C4804F048FD80
:102170005BA1384604F0D2FE18B95AA1574804F0C2
:102180003FFD5FA1384604F0C9FE18B95EA153486F
:1021900004F036FD514804F01BFD01206FE7BAF151
:1021A000020F1FD145A1384604F0B8FE18B95DA151
:1021B0004A4804F025FD4AA1384604F0AFFE18B99C
:1021C00060A1464804F01CFD4DA1384604F0A6FE6F
:1021D00018B964A1414804F013FD404804F0F8FC2C
:1021E00000204CE700204AE710B5002433A26549DF
:1021F0006548FFF704FF04460CB9002010BD38A263
:1022000060496248FFF7FBFE04460CB90020F5E781
:102210003BA25C495E48FFF7F2FE04460CB9002081
:10222000ECE700BFEAE738B50024FFF7DDFF04461E
:102230000CB9002038BD57A0574B584A58A1009000
:1022400058A0FFF717FD04460CB90020F2E756A08E
:10225000564B574A57A1009053A0FFF70BFD044679
:102260000CB90020E6E74EA0534B544A54A100900D
:1022700054A0FFF7FFFC04460CB90020DAE748A0A1
:10228000514B524A43A1009051A0FFF7F3FC044682
:102290000CB90020CEE70120CCE710B54FF0FF3499
:1022A000FFF7C1FF044614B94AA004F09DFC012CBD
:1022B00002D14BA004F098FC10BD00005631320052
:1022C000706173733A4A37415B2020345D4A37426C
:1022D0005B2020355D3A6F6B0D0A0000A2240020C0
:1022E00056330000706173733A4A37425B203137CE
:1022F0005D5531415B2037375D3A6F6B0D0A000049
:102300005633415558000000706173733A4A3742A2
:102310005B2032305D5531415B2020325D3A6F6B7E
:102320000D0A00006661696C3A4A37415B2020342F
:102330005D4A37425B2020355D3A73686F72740DD9
:102340000A0000006661696C3A4A37425B20313707
:102350005D5531415B2037375D3A73686F72740D9C
:102360000A0000006661696C3A4A37425B203230ED
:102370005D5531415B2020325D3A73686F72740D98
:102380000A000000BC0B00203C0B00205C0B00206E
:102390008C0B002055314200BC0F0020DC0B0020CC
:1023A0004A3141004A3741004A3742003C1600207A
:1023B0001C1200204A314200D40300206400002097
:1023C000553141004A36410044090020B40500203F
:1023D0004A364200616C6C6661696C0D0A0000004F
:1023E000616C6C706173730D0A0000002DE9FE4F83
:1023F00005460C4626462746002C0FDD322C0DDC08
:10240000192C04DDA4F11900A4EB4000461C192C82
:1024100004DCC4F1190004EB4000461C322C0FDD33
:10242000642C0DDC4B2C04DDA4F14B00A4EB40002C
:10243000461C4B2C04DCC4F14B0004EB4000461C52
:10244000002D0FDD322D0DDC192D04DDA5F1190055
:10245000A5EB4000471C192D04DCC5F1190005EB64
:102460004000471C322D0FDD642D0DDC4B2D04DDAB
:10247000A5F14B00A5EB4000471C4B2D04DCC5F13A
:102480004B0005EB4000471C781EC11700EB517153
:10249000C910A0EBC108C11700EB51714FEAE10967
:1024A000701EC11700EB5171C910A0EBC10AC11712
:1024B00000EB51714FEAE10B4846FEF7D1FD59217F
:1024C0004046FEF7FCFC5846FEF73FFF58215046B9
:1024D000FEF7F5FC0520FEF7E5FC06210020FFF7DE
:1024E000AEFBF649488008464088F54909688842AD
:1024F00011DBF448007801280DD1F04840882346CC
:102500002A46F1A1CDE901760090FB4804F078FB62
:10251000F94804F05DFB4FF44870FEF7A1FDE74871
:102520004088BDE8FE8F2DE9FE4F05460C46264645
:102530002746642C0FDD962C0DDC7D2C04DDA4F1E8
:102540007D00A4EB4000461C7D2C04DCC4F17D0022
:1025500004EB4000461C962C0FDDC82C0DDCAF2C84
:1025600004DDA4F1AF00A4EB4000461CAF2C04DC5A
:10257000C4F1AF0004EB4000461C642D0FDD962D26
:102580000DDC7D2D04DDA5F17D00A5EB4000471C91
:102590007D2D04DCC5F17D0005EB4000471C962D28
:1025A0000FDDC82D0DDCAF2D04DDA5F1AF00A5EBCF
:1025B0004000471CAF2D04DCC5F1AF0005EB400027
:1025C000471C781EC11700EB5171C910A0EBC10860
:1025D000C11700EB51714FEAE109701EC11700EB02
:1025E0005171C910A0EBC10AC11700EB51714FEA3C
:1025F000E10B4846FEF734FD59214046FEF75FFCEB
:102600005846FEF7A2FE58215046FEF758FC05201A
:10261000FEF748FC0A210020FFF711FBA74948807C
:1026200008464088A6490968884211DBA548007819
:1026300001280DD1A148408823462A46A2A1CDE910
:1026400001760090AC4804F0DBFAAB4804F0C0FA25
:102650004FF44870FEF704FD98484088BDE8FE8FAF
:102660002DE9FE4F05460C4626462746C82C0FDDB1
:10267000FA2C0DDCE12C04DDA4F1E100A4EB400018
:10268000461CE12C04DCC4F1E10004EB4000461CD4
:10269000C82D0FDDFA2D0DDCE12D04DDA5F1E100E3
:1026A000A5EB4000471CE12D04DCC5F1E10005EB82
:1026B0004000471C781EC11700EB5171C910A0EBF8
:1026C000C108C11700EB51714FEAE109701EC11733
:1026D00000EB5171C910A0EBC10AC11700EB517199
:1026E0004FEAE10B4846FEF7BBFC59214046FEF796
:1026F000E6FB5846FEF729FE58215046FEF7DFFB61
:102700000520FEF7CFFB0A210020FFF798FA6B495E
:102710004880084640886A490968884211DB694850
:10272000007801280DD16548408823462A4666A1D5
:10273000CDE901760090704804F062FA6E4804F02A
:1027400047FA5E484088BDE8FE8F2DE9FE4F0546FA
:102750000C4626462746C82C0FDDFA2C0DDCE12C52
:1027600004DDA4F1E100A4EB4000461CE12C04DCF4
:10277000C4F1E10004EB4000461CC82D0FDDFA2D2A
:102780000DDCE12D04DDA5F1E100A5EB4000471CC7
:10279000E12D04DCC5F1E10005EB4000471C781E8B
:1027A000C11700EB5171C910A0EBC108C11700EBB4
:1027B00051714FEAE109701EC11700EB5171C91048
:1027C000A0EBC10AC11700EB51714FEAE10B48467B
:1027D000FEF746FC59214046FEF771FB5846FEF7CE
:1027E000B4FD58215046FEF76AFB0520FEF75AFB60
:1027F0000A210020FFF723FA304948800846408824
:102800002F490968884211DB2E48007801280DD134
:102810002A48408823462A462BA1CDE9017600901C
:10282000354804F0EDF9344804F0D2F923484088E3
:10283000BDE8FE8F70B5314C0025CEE0216808461A
:10284000FFF7D4FD0546B5F57A7F0EDA23681A4600
:102850002BA1294804F0D4F9274804F0B9F93048ED
:102860000078012801D1002070BD2E480078012891
:102870000BD1B5F57A7F08DD23681A462AA11E48D8
:1028800004F0BEF91C4804F0A3F9D4E90001FFF7F5
:10289000ADFD0546B5F5487F68DD2068431C02465E
:1028A0002AA1154804F0ACF9134804F091F91C482A
:1028B000007801285AD10020D6E757E0BC2100203B
:1028C0005C0000203D0000200D0A595B2533645D4B
:1028D000585B2533645D3A2535643B2D2D2D72659B
:1028E000616C494320706C61636520595B253364DA
:1028F0005D585B2533645D00A2240020D0180020C1
:102900006661696C3A4A37415B2533645D4A3141FF
:102910005B2533645D3A6F70656E2E0D0A00000012
:10292000CC1800203C0000204A37415B2533645D11
:102930004A31415B2533645D3A434C4F5345205443
:10294000455354204F4B2E0D0A0000006661696C00
:102950003A4A37415B2533645D4A31415B25336434
:102960005D3A73686F72742E0D0A00007748007824
:1029700001280CD1B5F57A7F09DA2068431C02469C
:1029800073A17C4804F03CF97A4804F021F9152140
:102990002068FFF72BFD0546B5F5487F0DDD76A1D4
:1029A0007448226804F02CF9724804F011F97A484E
:1029B0000078012801D1002056E7644800780128FA
:1029C0000AD1B5F57A7F07DA74A16A48226804F063
:1029D00017F9684804F0FCF8241D2068B0F5FA7F68
:1029E0007FF42CAF01203FE72DE9F041744C002724
:1029F000B8460025642668E0226891199019FFF70F
:102A000092FD0546B5F57A7F08DA23681A466DA16E
:102A1000584804F0F5F8574804F0DAF84B480078C5
:102A200001280BD1B5F57A7F08DD23681A466DA120
:102A3000504804F0E5F84F4804F0CAF8626891196C
:102A400022689019FFF76FFD0546B5F5487F09DD4F
:102A50002068431C02466CA1464804F0D1F8454862
:102A600004F0B6F83948007801280CD1B5F57A7F22
:102A700009DA2068431C02466BA13E4804F0C0F806
:102A80003C4804F0A5F806F1150122689019FFF7FB
:102A90004AFD0546B5F5487F07DD6CA1354822683B
:102AA00004F0AEF8334804F093F828480078012881
:102AB0000AD1B5F57A7F07DA6CA12E48226804F0B6
:102AC0009FF82C4804F084F8241D2068B0F5FA7FA4
:102AD00092D10120BDE8F0812DE9F0476C4C6D4D9D
:102AE0004FF00008C1460026C82728E02A68D119FF
:102AF0002268D019FFF7B4FD0646B6F57A7F08DAEA
:102B00002B6865A11B48226804F07AF8194804F084
:102B10005FF80E48007801280BD1B6F57A7F08DD02
:102B20002B6865A11348226804F06AF8114804F084
:102B30004FF8241D00BF00BF2D1D00BF00BF20683F
:102B4000B0F5FA7FD2D10120BDE8F0873C0000202B
:102B50004A37415B2533645D4A31415B2533645D0F
:102B60003A4F50454E2054455354204F4B2E0D0A9A
:102B700000000000A22400206661696C3A4A3741D7
:102B80005B2533645D4A31415B2032315D3A7368C5
:102B90006F72742E0D0A0000CC1800204A37415B7A
:102BA0002533645D4A31415B2032315D3A4F5045F7
:102BB0004E2054455354204F4B2E0D0A0000000068
:102BC000B81A00206661696C3A4A37425B25336463
:102BD0005D4A31425B2533645D3A6F70656E2E0D40
:102BE0000A0000004A37425B2533645D4A31425B8C
:102BF0002533645D3A434C4F53452054455354208C
:102C00004F4B2E0D0A0000006661696C3A4A37424C
:102C10005B2533645D4A31425B2533645D3A7368FA
:102C20006F72742E0D0A00004A37425B2533645DD3
:102C30004A31425B2533645D3A4F50454E2054453E
:102C40005354204F4B2E0D0A000000006661696C42
:102C50003A4A37425B2533645D4A31425B20323168
:102C60005D3A73686F72742E0D0A00004A37425B3A
:102C70002533645D4A31425B2032315D3A4F504525
:102C80004E2054455354204F4B2E0D0A0000000097
:102C9000481E0020DC1E00206661696C3A4A3641FD
:102CA0005B2533645D5531415B2533645D3A6F705C
:102CB000656E2E0D0A0000004A36415B2533645DC7
:102CC0005531415B2533645D3A434C4F53452054A5
:102CD000455354204F4B2E0D0A000000314901434B
:102CE000314A1160704770B5002100230F22C4786B
:102CF00004B32D4C246804F4E064C4F5E064210AB4
:102D0000C1F10403CA40447804FA03F18478144002
:102D100021430901254C0678A155047804F01F05CC
:102D20000124AC4005786D11AD0005F1E025C5F832
:102D3000004109E0047804F01F050124AC401C4D5B
:102D40000678761145F8264070BD1A4A0A400243BB
:102D5000154B1B1F1A60704739B1134A121D1268B8
:102D60000243114B1B1D1A6006E00F4A121D126828
:102D700082430D4B1B1D1A607047042808D14FF089
:102D8000E021096941F004014FF0E022116107E000
:102D90004FF0E021096921F004014FF0E0221161B8
:102DA000704700000000FA050CED00E000E400E0D0
:102DB00080E100E080FFFF1F10B50446FA4884421E
:102DC00008D10121401500F075FD0021601500F0CB
:102DD00071FD17E0F548844208D10121001500F08B
:102DE00069FD0021201500F065FD0BE0F0488442EC
:102DF00008D10121C80300F05DFD00214FF400401F
:102E000000F058FD10BD30B5024600200023506888
:102E1000E84C20400D790C6844EA052420435060BA
:102E20009068E54C2040D1E902542C434D7944EAA6
:102E3000450420439060D06A20F470000C7C641E2E
:102E4000E4B2234340EA0350D06230BD0021016068
:102E5000017141718160C16001210174704721B12C
:102E6000826842F00102826003E0826822F001027F
:102E70008260704721B1826842F48072826003E010
:102E8000826822F480728260704710B50023CBB252
:102E90001AB144681C43446002E044689C434460A7
:102EA00010BD816841F00801816070470146002033
:102EB0008A6802F008020AB1012000E00020704791
:102EC000816841F0040181607047014600208A68F2
:102ED00002F004020AB1012000E00020704721B195
:102EE000826842F4A002826003E0826822F4A002B9
:102EF00082607047014600208A6802F480020AB1AD
:102F0000012000E00020704710B50A460021002390
:102F1000416821F46041531E41EA4331416010BDD4
:102F200021B1426842F40062426003E0426822F448
:102F3000006242607047F0B504460D460020002153
:102F4000092D11DDE068A5F10A0606EB4607072604
:102F500006FA07F18843A5F10A0606EB460603FACE
:102F600006F10843E0600CE0206905EB4507072601
:102F700006FA07F1884305EB450603FA06F1084314
:102F80002061072A0FDA606B561E06EB86071F26A4
:102F900006FA07F18843561E06EB860605FA06F187
:102FA0000843606322E00D2A0FDA206BD61F06EB80
:102FB00086071F2606FA07F18843D61F06EB86060A
:102FC00005FA06F10843206310E0E06AA2F10D065D
:102FD00006EB86071F2606FA07F18843A2F10D06C5
:102FE00006EB860605FA06F10843E062F0BD21B162
:102FF000826842F48012826003E0826822F48012C8
:10300000826070470146C86C80B2704766484C3099
:103010000068704721B1426842F48062426003E078
:10302000426822F480624260704721B1426842F4F3
:103030008052426003E0426822F48052426070474E
:103040000A460021816821F4E04111438160704704
:1030500021B1826842F40042826003E0826822F477
:1030600000428260704721B1826842F4021282609D
:1030700003E0826822F40212826070470146002059
:103080008A6802F400120AB1012000E000207047B3
:10309000F0B504461546002000220026092911DD5E
:1030A000E068A1F10A0707EB470C072707FA0CF2C3
:1030B0009043A1F10A0707EB470703FA07F2104311
:1030C000E0600CE0206901EB410C072707FA0CF2E5
:1030D000904301EB410703FA07F210432061A06B14
:1030E000C0F30156EF1C06F1010CA7EB0C0707EB30
:1030F000870C1F2707FA0CF29043EF1C06F1010C16
:10310000A7EB0C0707EB870701FA07F21043A06350
:10311000F0BD10B50A4600210023816B21F4401157
:10312000531E41EA0351816310BD08B5002300938B
:103130000090009B0B440093009B1A6008BD08B5EB
:10314000024600200090009201F12800009B1844E4
:1031500000900098006880B208BD0A4600214168CE
:10316000164B1940114341607047416282627047BB
:103170000A460021416821F01F0111434160704758
:1031800040B109490831096841F40001064A083292
:10319000116007E004490831096821F40001024A7E
:1031A00008321160704700000024014000280140EF
:1031B000003C0140FFFEF0FFFDF7F1FFFFFD3FFF88
:1031C0000246002013680B400BB1012000E00020F4
:1031D0007047CA430260704770B502460020002362
:1031E00000240B125568CEB205EA060415681D408E
:1031F00015B10CB1012000E0002070BD00220A12C0
:10320000D34303607047000010B50446CC488442A5
:1032100008D10121042000F04DFB0021042000F022
:1032200049FB46E0C748844208D10121082000F04C
:1032300041FB0021082000F03DFB3AE0C2488442F7
:1032400008D10121102000F035FB0021102000F0F2
:1032500031FB2EE0BD48844208D10121202000F03E
:1032600029FB0021202000F025FB22E0B848844201
:1032700008D10121402000F01DFB0021402000F07A
:1032800019FB16E0B348844208D10121802000F0E8
:1032900011FB0021802000F00DFB0AE0AE488442C3
:1032A00007D10121801500F005FB0021A01500F0D9
:1032B00001FB10BD10B50121084600F0FBFA00210A
:1032C000012000F0F7FA10BD2DE9F041024600257B
:1032D0000026002000230024002791F803C00CF0F2
:1032E0000F0591F803C00CF0100CBCF1000F03D0D7
:1032F00091F802C04CEA050591F800C0BCF1000F3E
:1033000031D0146800202BE04FF0010C0CFA00F3D0
:10331000B1F800C00CEA03069E4220D183004FF0B2
:103320000F0C0CFA03F7BC4305FA03FC4CEA040447
:1033300091F803C0BCF1280F06D14FF0010C0CFA34
:1033400000FCC2F814C00AE091F803C0BCF1480FB9
:1033500005D14FF0010C0CFA00FCC2F810C0401C63
:103360000828D1D31460B1F800C0BCF1FF0F34DDE0
:10337000546800202EE000F1080C4FF0010808FA14
:103380000CF3B1F800C00CEA03069E4221D1830081
:103390004FF00F0C0CFA03F7BC4305FA03FC4CEAA0
:1033A000040491F803C0BCF1280F05D100F1080C0A
:1033B00008FA0CF8C2F8148091F803C0BCF1480F69
:1033C00007D100F1080C4FF0010808FA0CF8C2F818
:1033D0001080401C0828CED35460BDE8F0814FF621
:1033E000FF710180022181700421C1707047024683
:1033F000002093680B400BB1012000E000207047D3
:103400000146886880B2704702460020D3680B40AE
:103410000BB1012000E0002070470146C86880B26F
:10342000704701617047416170470AB1016100E076
:1034300041617047C16070474FF480320A43826136
:103440008161826182698269704702460020434B34
:1034500018684FF68073184040EA021008433F4B4B
:10346000186070473E49C8617047F0B50A460023AE
:1034700000240021002500F00046B6F1004F02D1E3
:10348000364EF16901E0354E7168C0F3034583B2F1
:1034900000F44016B6F5401F08D121F070612F4EA0
:1034A000766826F070662D4F7E6012E000F480167C
:1034B000B6F5801F06D1032606FA05F4A14341F0B4
:1034C000706106E0460D360103FA06F6B14341F09D
:1034D000706122B1460D360103FA06F6314300F061
:1034E0000046B6F1004F02D11C4EF16101E01B4EC7
:1034F0007160F0BD30B500228B071C0F0F2303FA5B
:1035000004F2164B08338C1053F824309343134CB9
:1035100008348D1044F8253023468C1053F824309D
:103520008C07240F00FA04F423430C4C08348D104C
:1035300044F8253030BD0A49DC310860704700008E
:1035400000080140000C014000100140001401403F
:1035500000180140001C0140002001400000014013
:10356000000020420E49086070470D4948607047CE
:103570000B49886070474AF6AA20094908607047DD
:103580004CF6CC4006490860704701460020044ACA
:10359000D2680A400AB1012000E000207047000014
:1035A00000300040DF48006840F00100DD4908605D
:1035B00008464068DC490840DA4948600846006827
:1035C000DA490840D74908600846006820F480209E
:1035D00008600846406820F4FE0048604FF41F0071
:1035E00088607047CF49096821F48031CD4A116065
:1035F0001146096821F480211160B0F5803F03D0A5
:10360000B0F5802F0ED106E0C649096841F480313B
:10361000C44A116007E0C349096841F4A021C14AC6
:10362000116000E000BF00BF704710B501460022E6
:10363000002300204A11012A02D1BA4C236806E077
:10364000022A02D1B74C236A01E0B64C636A01F04A
:103650001F02012494401C400CB1012000E0002016
:1036600010BD38B5002000900024002500BF312097
:10367000FFF7DBFF05460098401C00900098B0F56E
:10368000A06F01D0002DF2D03120FFF7CEFF08B19E
:10369000012400E00024204638BD01460020A14A54
:1036A000106820F0F80040EAC10010607047A0499F
:1036B00008607047024600209A4B586820F47C103E
:1036C00042EA01031843974B5860704798490866CF
:1036D000704701460020934A506820F003000843D9
:1036E000506070478F48406800F00C0070470146FA
:1036F00000208C4A506820F0F0000843506070476A
:1037000001460020874A506820F4E060084350607A
:10371000704701460020834A506820F4605040EA18
:10372000C1005060704729B17E4A527A02437D4BF6
:103730005A7204E07B4A527A82437A4B5A7270473B
:103740007B49D8310860704701460020754A5068AF
:1037500020F440400843506070470021714A2032F5
:103760001170704A82F82010012802D004280AD172
:1037700004E001216B4A2032117005E00521694AFD
:103780002032117000E000BF00BF70476949086037
:1037900070476449096A0143624A1162704765498A
:1037A00044390860704730B500210022002400230E
:1037B0005C4D6D6805F00C0121B1042905D0082984
:1037C00023D105E05C4D056022E05B4D05601FE004
:1037D000544D6D6805F47012524D6D6805F48034D7
:1037E000022505EB92421CB9544D554305600BE090
:1037F0004C4D6D6805F400351DB1504D55430560C5
:1038000002E04D4D5543056002E04B4D056000BFA1
:1038100000BF444D6D6805F0F0010909484D6B5C2F
:103820000568DD4045603F4D6D6805F4E061090ABB
:10383000434D6B5C4568DD4085603A4D6D6805F42D
:103840006051C90A3E4D6B5C4568DD40C560354D31
:103850006D6805F44041890B3A4D6B5CC568B5FB5A
:10386000F3F5056130BD29B12E4A526902432D4B53
:103870005A6104E02B4A526982432A4B5A617047CD
:1038800029B1284A92690243264B9A6104E0254AED
:1038900092698243234B9A61704729B1214AD269C8
:1038A0000243204BDA6104E01E4AD26982431D4B79
:1038B000DA61704729B11B4AD2680243194BDA60BA
:1038C00004E0184AD2688243164BDA60704729B187
:1038D000144A12690243134B1A6104E0114A126937
:1038E0008243104B1A617047124940390860704793
:1038F0000F49C86470470B49C87170470948406A4E
:1039000040F0807007494862704701460020054A30
:1039100092680A400AB1012000E000207047014986
:1039200088727047001002400000FFF8FFFFF6FEAB
:10393000000042428004424200127A0000093D0029
:1039400094200020A420002010B50446FE488442A4
:1039500008D10121C014FFF7ADFF0021E014FFF7EB
:10396000A9FFC4E0B4F1804F08D101210846FFF758
:10397000AEFF00210120FFF7AAFFB8E0F348844220
:1039800008D101210220FFF7A2FF00210220FFF74A
:103990009EFFACE0EE48844208D101210420FFF7ED
:1039A00096FF00210420FFF792FFA0E0E94884423F
:1039B00008D101210820FFF78AFF00210820FFF726
:1039C00086FF94E0E448844208D101211020FFF7EB
:1039D0007EFF00211020FFF77AFF88E0DF48844255
:1039E00008D101212020FFF772FF00212020FFF7DE
:1039F0006EFF7CE0DA48844208D101214014FFF7D1
:103A000059FF00216014FFF755FF70E0D54884424C
:103A100009D10121C804FFF74DFF00214FF4002018
:103A2000FFF748FF63E0D048844209D1012108052F
:103A3000FFF740FF00214FF48010FFF73BFF56E0F7
:103A4000CA48844209D101214805FFF733FF00210C
:103A50004FF40010FFF72EFF49E0C548844208D11B
:103A600001214020FFF733FF00214020FFF72FFF07
:103A70003DE0C048844208D101218020FFF727FFA4
:103A800000218020FFF723FF31E0BB48844208D1AA
:103A900001218015FFF71BFF0021A015FFF717FF7D
:103AA00025E0B648844209D101210804FFF702FF4E
:103AB00000214FF48030FFF7FDFE18E0B04884424B
:103AC00009D101214804FFF7F5FE00214FF4003031
:103AD000FFF7F0FE0BE0AB48844208D101218804D7
:103AE000FFF7E8FE00214FF48020FFF7E3FE10BD52
:103AF00000220288944B98420ED0994B98420BD0EA
:103B0000B0F1804F08D0914B984205D0904B98422D
:103B100002D0904B984204D14FF68F731A404B88D5
:103B20001A438D4B984207D08C4B984204D04FF6E5
:103B3000FF431A40CB881A4302808B8883850B8809
:103B40000385814B98420BD0854B984208D08B4B14
:103B5000984205D08A4B984202D08A4B984201D1B4
:103B60000B7A038601238382704770B500240022FC
:103B70000023058C4FF6FE7635400584028C838841
:103B8000048B4FF68F752C40B51E2C400D882C43AE
:103B9000751E2A400D892A434D882A436A4DA84242
:103BA0000BD06F4DA84208D0744DA84205D0744D7B
:103BB000A84202D0734DA84213D14FF6F7752A40A0
:103BC0004D892A434FF6FB752A408D882A434FF6CC
:103BD000FF652B404FF6FF552B408D892B43CD8938
:103BE0002B4383800483CD888586028470BD70B5A5
:103BF000002400220023058C4FF6EF763540058423
:103C0000028C8388048B48F6FF752C404FF6FF45E5
:103C10002C400D884FF6FF7606EA05252C434FF61B
:103C2000DF752A400D8906EA05152A434D8806EA04
:103C300005152A43444DA84202D0494DA8421DD142
:103C40004FF67F752A404D894FF6FF7606EA051537
:103C50002A434FF6BF752A408D8806EA05152A4388
:103C60004FF6FF352B404FF2FF752B408D8906EA4A
:103C700085052B43CD8906EA85052B438380048384
:103C8000CD880587028470BD70B500240022002312
:103C9000058C4FF6FF6635400584028C8388848B43
:103CA0004FF68F752C404FF6FC752C400D882C4339
:103CB0004FF6FF552A400D894FF6FF7606EA052597
:103CC0002A434D8806EA05252A431F4DA84202D003
:103CD000234DA8421DD14FF2FF752A404D894FF662
:103CE000FF7606EA05252A434FF6FF352A408D88E0
:103CF00006EA05252A434EF6FF752B404DF6FF7563
:103D00002B408D8906EA05152B43CD8906EA05155A
:103D10002B4383808483CD888587028470BD70B5F2
:103D2000002200230024058C4EF6FF7635400584E2
:103D3000038C8488828B48F6FF752A404FF6FF4536
:103D40002A400D8820E00000002C014000040040C3
:103D500000080040000C004000100040001400402B
:103D600000340140004C014000500140005401402B
:103D700000180040001C00400020004000400140AE
:103D800000440140004801404FF6FF7606EA052551
:103D90002A434DF6FF752B400D8906EA05352B4366
:103DA0004D8806EA05352B43FA4DA84202D0FA4D5C
:103DB000A84208D14BF6FF752C408D894FF6FF764F
:103DC00006EA85152C4384808283CD88A0F8405074
:103DD000038470BD828B4FF2FF331A408283828B43
:103DE0004FF6FF7303EA01231A4382837047F0B54D
:103DF0000C461546002200210026078C4EF6FF7C5B
:103E000007EA0C070784828B018C4FF6FF7707EADD
:103E1000043640F6FF473A404FF6FF7707EA05279A
:103E20003A434FF6FF7707EA03373A43D94FB84290
:103E30000ED0D94FB8420BD0B0F1804F08D0D74F39
:103E4000B84205D0D64FB84202D0D64FB84206D1BC
:103E50004DF6FF77394046F48057394305E047F681
:103E6000FF57394044F48057394382830184F0BDC1
:103E7000828B4FF6F3731A408283828B0A438283CC
:103E80007047F0B50C461546002200210026078C2D
:103E90004FF6FF6C07EA0C070784828B018C4FF604
:103EA000FF7707EA04264FF60C773A404FF6FF7784
:103EB00007EA03172F433A43B64FB8420ED0B64F26
:103EC000B8420BD0B0F1804F08D0B44FB84205D003
:103ED000B34FB84202D0B34FB84206D14FF6FF57A6
:103EE000394046F48077394305E04FF2FF573940B7
:103EF00044F48077394382830184F0BD028B4FF212
:103F0000FF331A400283028B4FF6FF7303EA01234B
:103F10001A4302837047F0B50C4615460022002173
:103F20000026078C4FF6EF7C07EA0C070784028B0C
:103F3000018C4FF6FF7707EA041640F6FF473A4038
:103F40004FF6FF7707EA03373A434FF6FF7707EA62
:103F500005273A438F4FB8420ED08F4FB8420BD04F
:103F6000B0F1804F08D08D4FB84205D08C4FB84289
:103F700002D08C4FB84206D14FF6DF77394046F079
:103F80001007394305E04FF65F77394044F01007DA
:103F9000394302830184F0BD028B4FF6F3731A405C
:103FA0000283028B0A4302837047F0B50C46154624
:103FB00000220021068C4FF6FE773E400684028BDD
:103FC000018C4FF60C7632407E1C06EA03162E4317
:103FD0003243704EB0420ED06F4EB0420BD0B0F1B3
:103FE000804F08D06D4EB04205D06D4EB04202D029
:103FF0006C4EB04206D14FF6FD76314044F00106DA
:10400000314305E04FF6F576314044F00106314387
:1040100002830184F0BD70B505460C465D488542BB
:104020000ED05D4885420BD0B5F1804F08D05B487B
:10403000854205D05A48854202D05A48854200D16F
:1040400000E000BF208850B92389A28861882846F3
:10405000FFF7ABFFE1882846FFF79EFF25E02088A9
:1040600004280AD12389A28861882846FFF753FFD4
:10407000E1882846FFF742FF17E0208808280AD188
:104080002389A28861882846FFF7FBFEE18828463D
:10409000FFF7EEFE09E02389A28861882846FFF732
:1040A000A6FEE1882846FFF795FE70BD2DE9F04198
:1040B00005460C4600260127608808B9022600E064
:1040C0000026A088012801D1022700E001272088CE
:1040D000A0B92389A28861882846FFF766FFE18896
:1040E0002846FFF759FF23893A4631462846FFF70D
:1040F00012FFE1882846FFF701FF13E02389A28819
:1041000061882846FFF707FFE1882846FFF7F6FE9B
:1041100023893A4631462846FFF747FFE18828467B
:10412000FFF73AFFBDE8F0810A884B881A438B8875
:104130001A43CB881A430B891A434B891A438B893C
:104140001A43A0F8442070474FF6FF718180002188
:104150000180C1804180017270470021018041804F
:104160008180C180018141818181C18170470021AD
:1041700001804180012181800021C180018170473F
:104180000021018041808180C18001814181818144
:1041900070470000002C0140003401400004004042
:1041A00000080040000C004021B1028842F00102EA
:1041B000028004E002884FF6FE731A4002807047C6
:1041C00031B1B0F8442042F40042A0F8442005E0A8
:1041D000B0F84420C2F30E02A0F8442070471AB190
:1041E00083890B43838102E083898B4383817047FA
:1041F0008182704741EA0203A0F8483070471AB143
:1042000083890B43838102E083898B4383817047D9
:1042100001894FF6F8721140018170470A4600216A
:1042200001894FF68F73194011430181704730B5F2
:1042300004460D4629462046FFF7F0FF208940F04E
:104240000700208130BD2DE9F04104460D46164699
:104250001F46602D06D13B46012231462046FFF71E
:104260005AFE05E03B46012231462046FFF79DFEFF
:1042700029462046FFF7D2FF208940F00700208121
:10428000BDE8F08130B50C4600210189C9B24FF676
:10429000FF7505EA0325154325432943018130BDF8
:1042A0002DE9F04105460E46174698460024434640
:1042B0003A4631462846FFF7E5FF2C894FF6F8705D
:1042C000044044F007044FF68F70044044F070043B
:1042D0002C81BDE8F081F0B504460D4616461F4618
:1042E0003B46324629462046FFF7CCFF208940F462
:1042F00080402081F0BD0185828270470A460021FE
:1043000001884FF68F731940114301807047F0B553
:104310000C4615461E460021002200230189028B0F
:10432000038C4FF6F877394021434FF6FC473A406B
:1043300040F201173A434FF6DD773B404FF6FF77E7
:1043400007EA06172F433B43018102830384F0BD34
:104350000A460021018B4FF68F73194011430183E8
:1043600070470A460021018B48F6FF7319404FF64B
:10437000FF7303EA02231943018370470A460021B1
:10438000818B4FF68F7319401143818370470A4622
:104390000021818B48F6FF7319404FF6FF7303EA43
:1043A000022319438183704721B1028842F08002C1
:1043B000028004E002884FF67F731A400280704743
:1043C00021B1828842F00402828004E082884FF6A4
:1043D000FB731A408280704721B1828842F0080244
:1043E000828004E082884FF6F7731A40828070471B
:1043F00021B1828842F00102828004E082884FF677
:10440000FE731A40828070470A460021018B4FF6E6
:10441000F77319401143018370470A460021018B4D
:104420004FF2FF7319404FF6FF7303EA022319435B
:10443000018370470A460021818B4FF6F7731940BC
:104440001143818370470A460021818B4FF2FF732D
:1044500019404FF6FF7303EA022319438183704723
:104460000A460021018B4FF6FB731940114301836B
:1044700070470A460021018B4FF6FF3319404FF673
:10448000FF7303EA02231943018370470A460021A0
:10449000818B4FF6FB7319401143818370470A46A5
:1044A0000021818B4FF6FF3319404FF6FF7303EA6B
:1044B00002231943818370470A460021018B4FF67E
:1044C0007F7319401143018370470A460021018B15
:1044D000C1F30E014FF6FF7303EA02231943018370
:1044E00070470A460021818B4FF67F7319401143B4
:1044F000818370470A460021818BC1F30E014FF67C
:10450000FF7303EA02231943818370470A4600219F
:10451000018C4FF6FD7319401143018470470A4620
:104520000021018C4FF6F773194011430184704745
:104530000A460021018C4FF6DF7319404FF6FF73D6
:1045400003EA02131943018470470A460021018CD3
:104550004FF67F7319404FF6FF7303EA02131943B6
:10456000018470470A460021018C4FF6FF53194021
:104570004FF6FF7303EA02231943018470470A468A
:104580000021018C4FF2FF7319404FF6FF7303EACD
:1045900002231943018470470A460021018C4DF61D
:1045A000FF7319404FF6FF7303EA02331943018486
:1045B000704730B5002301248C40A3B2048C9C4387
:1045C0000484048C02FA01F5ADB22C43048430BD9E
:1045D00030B5002304248C40A3B2048C9C43048493
:1045E000048C02FA01F5ADB22C43048430BD70B5E1
:1045F0000346002000241846183001258D40ACB237
:104600001D8CA5431D8409B1082909D100EB610067
:10461000056825F0700505600568154305600EE026
:104620000D1FC5F34E052844056825F4E0450560D7
:1046300005684FF6FF7606EA02263543056070BD31
:1046400021B1028842F00202028004E002884FF6A3
:10465000FD731A400280704721B1028842F00402C3
:10466000028004E002884FF6FB731A400280704714
:1046700021B1828842F08002828004E082884FF675
:104680007F731A408280704702884FF6F7731A4092
:10469000028002880A430280704782884FF68F7337
:1046A0001A40828082880A438280704702894FF6CE
:1046B000F8731A40028102890A4302817047028915
:1046C0004FF67F731A40028102890A4302817047C4
:1046D0008184704781857047818670470187704764
:1046E00081877047A0F84010704702884FF6FF435B
:1046F0001A40028002880A43028070470146888E71
:1047000070470146088F70470146888F7047014601
:10471000B1F8400070470146888C70470146088D0B
:10472000704702460020138A0B400BB1012000E0C5
:1047300000207047CA430282704730B5024600200D
:1047400000230024158A05EA0103958905EA01047E
:1047500013B10CB1012000E0002030BDCA43028239
:104760007047000010B50446FB48844209D101217E
:104770008803FFF79FF800214FF48040FFF79AF875
:1047800032E0F648844209D101214804FFF79FF83E
:1047900000214FF40030FFF79AF825E0F0488442FA
:1047A00009D101218804FFF792F800214FF48020FD
:1047B000FFF78DF818E0EB48844209D10121C804C5
:1047C000FFF785F800214FF40020FFF780F80BE099
:1047D000E548844208D101210805FFF778F8002157
:1047E0004FF48010FFF773F810BD2DE9F04786B045
:1047F00005460E460024A24600BFA1460027B08908
:1048000000B100BF2F462C8A4CF6FF700440F088A0
:1048100004432C82AC894EF6F3100440B0883189F1
:104820000843718908430443AC81AC8A4FF6FF40CA
:104830000440B0890443AC8201A8FEF7B4FFC64827
:10484000874202D1DDF810A001E0DDF80CA0A889B4
:1048500000F4004040B10AEBCA0000EB0A103168D6
:104860004900B0FBF1F807E00AEBCA0000EB0A10C0
:1048700031688900B0FBF1F86420B8FBF0F0040166
:104880002009642101FB1089A88900F4004040B18F
:10489000322000EBC900B0FBF1F000F00700044348
:1048A00008E0322000EB09106421B0FBF1F000F0C9
:1048B0000F0004432C8106B0BDE8F0874FF4165179
:1048C000016000218180C18001810C214181002192
:1048D0008181704710B502460020108A4FF2FF0315
:1048E00018400B884C8823438C882343CC8823436F
:1048F0001843108210BD0021018041808180C18059
:10490000704721B1828942F40052828104E0828999
:104910004DF6FF731A4082817047F0B503460024BC
:1049200000260025002040F66A17B94200D100BFDA
:104930001846C1F3421401F01F06012707FA06F5D5
:10494000012C01D10C3004E0022C01D1103000E028
:1049500014301AB107682F43076002E00768AF43BD
:104960000760F0BD1AB1838A0B43838202E0838A19
:104970008B4383827047028A4FF6F0731A4002829B
:10498000028A0A430282704782894FF2FF731A40FB
:10499000828182890A438281704721B1828942F0F3
:1049A0000202828104E082894FF6FD731A408281FF
:1049B0007047028A4FF6DF731A400282028A0A4366
:1049C0000282704721B1028A42F48042028204E0EE
:1049D000028A4BF6FF731A4002827047C1F3080245
:1049E0008280704701468888C0F30800704781893B
:1049F00041F0010181817047028BD2B20283028BA8
:104A000042EA012202837047028B02F47F42028352
:104A1000028B0A430283704721B1828A42F020024E
:104A2000828204E0828A4FF6DF731A4082827047E6
:104A300021B1828A42F01002828204E0828A4FF61B
:104A4000EF731A408282704721B1828A42F00802D5
:104A5000828204E0828A4FF6F7731A40828270479E
:104A600021B1828942F40042828103E08289C2F34B
:104A70000E028281704721B1828A42F400628282F2
:104A800004E0828A4FF2FF731A4082827047828A62
:104A90004FF6FB731A408282828A0A4382827047F1
:104AA00021B1828A42F00202828204E0828A4FF6B9
:104AB000FD731A408282704702460020B1F5007FE4
:104AC00000D100BF13880B400BB1012000E0002093
:104AD000704701F40072B2F5007F00D100BFCA43F5
:104AE0000280704770B50246002400230025002094
:104AF00040F66A16B14200D100BFC1F3421501F081
:104B00001F03012606FA03F3012D02D196893340D3
:104B100006E0022D02D1168A334001E0968A334026
:104B20000C12012606FA04F41688344013B10CB1B5
:104B3000012000E0002070BD10B50022002340F6E7
:104B40006A14A14200D100BF0A1201249440A3B20A
:104B5000DC43048010BD00000038014000440040E8
:104B600000480040004C004000500040014600203A
:104B7000FE4A106800F03800084310607047FB4997
:104B8000096821F00801F94A1160114609680143DA
:104B900011607047F549096821F01001F34A11606E
:104BA00011460968014311607047F148EF494860B8
:104BB000F04848607047EE48EC494860ED4848606E
:104BC0007047EA48006940F08000E8490861704792
:104BD000E648006940F08000E4490861704704201D
:104BE000E249C96801F0010109B101200EE0DF4985
:104BF000C96801F0040109B1022007E0DB49C96876
:104C000001F0100109B1032000E00420704700B555
:104C100002460423FFF7E3FF034603E0FFF7DFFF4D
:104C20000346521E012B01D1002AF7D102B90523F8
:104C3000184600BD30B5044604254FF43020FFF778
:104C4000E6FF0546042D17D1C848006940F0020070
:104C5000C649086108464461006940F040000861A7
:104C60004FF43020FFF7D3FF0546C048006941F6F6
:104C7000FD710840BD490861284630BD10B50424C7
:104C80004FF43020FFF7C3FF0446042C16D1B74879
:104C9000006940F00400B54908610846006940F029
:104CA000400008614FF43020FFF7B1FF0446AF48E1
:104CB000006941F6FB710840AC490861204610BD0F
:104CC00000B502460423FFF78AFF034603E0FFF71F
:104CD00086FF0346521E012B01D1002AF7D102B9EB
:104CE0000523184600BD10B504244FF43020FFF70B
:104CF000E7FF0446042C16D19C48006940F00400EC
:104D00009A4908610846006940F0400008614FF484
:104D10003020FFF7D5FF04469448006941F6FB7147
:104D2000084092490861204610BD00208F49C9699A
:104D300001F0020109B1012000E00020704730B508
:104D4000A5250424FFF7F1FF00B100254FF4302022
:104D5000FFF75DFF0446042C3AD1854883498860FB
:104D6000844888600846006940F0200008610846D1
:104D7000006940F0400008614FF43020FFF747FF22
:104D80000446042C1BD17948006941F6DF710840C4
:104D9000764908610846006940F0100008617648CD
:104DA0000580E002FFF733FF0446052C10D06F4862
:104DB000006941F6EF7108406C49086108E0052C74
:104DC00006D06A48006941F6EF71084067490861FA
:104DD000204630BD78B506460C46042500200090DC
:104DE000E802FFF714FF0546042D24D15F4800694F
:104DF00040F001005D4908613480E802FFF707FFD9
:104E00000546042D10D1B01C0090200C009908809C
:104E1000E802FFF7FCFE05465448006941F6FE71C2
:104E200008405249086106E05048006941F6FE71A9
:104E300008404E490861284678BD70B504460D46C5
:104E40000426F002FFF7E3FE0646042E11D1474880
:104E5000006940F00100454908612580F002FFF734
:104E6000D6FE06464148006941F6FE7108403F49BA
:104E70000861304670BD70B505460E460424E00258
:104E8000FFF7C5FE0446042C17D13948374988601E
:104E9000384888600846006940F0100008612E809C
:104EA000E002FFF7B4FE0446052C06D02F48006947
:104EB00041F6EF7108402D490861204670BD2DE98B
:104EC000F04304464FF6FF763746B046B146042518
:104ED000E443E6B2C4F30727C4F307484FEA146972
:104EE000E802FFF794FE0546042D49D120481F49EA
:104EF0008860204888600846006940F0100008611A
:104F0000FF2E06D01C4808300680E802FFF77FFE1F
:104F10000546042D08D1FF2F06D017480A30078018
:104F2000E802FFF774FE0546042D0AD1B8F1FF0F21
:104F300007D011480C30A0F80080E802FFF767FEA8
:104F40000546042D0AD1B9F1FF0F07D00A480E30EB
:104F5000A0F80090E802FFF75AFE0546052D0FD095
:104F60000248006941F6EF71084007E00020024066
:104F700023016745AB89EFCD00F8FF1F6649086143
:104F80002846BDE8F08330B5054604244FF43020B0
:104F9000FFF73DFE0446042C41D160485E4988601D
:104FA0005F4888600846006940F0200008610846B4
:104FB000006940F0400008614FF43020FFF727FE01
:104FC0000446042C22D15448006941F6DF710840A0
:104FD000514908610846006940F0100008611DB1A0
:104FE00000205049088002E0A5204E4908804FF477
:104FF0003020FFF70CFE0446052C10D0464800690F
:1050000041F6EF7108404449086108E0052C06D0DC
:105010004148006941F6DF7108403F490861204678
:1050200030BDF0B505460E46174604243B483A49C4
:1050300088603B488860E002FFF7E9FD0446042CE5
:1050400019D13548006940F010003349086147F034
:10505000F800304328433349891C0880E002FFF7F9
:10506000D6FD0446052C06D02B48006941F6EF71A9
:105070000840294908612046F0BD2748C0698008DA
:1050800070472548006A704700202349096801F0ED
:10509000200109B1012000E00020704729B11E4A1B
:1050A000126902431C4B1A6104E01B4A12698243D5
:1050B000194B1A61704701460020012908D1164A90
:1050C000D26902F001020AB1012008E0002006E0E6
:1050D000114AD2680A400AB1012000E0002070475E
:1050E0000D49C860704704200B49C96801F00101EF
:1050F00009B101200EE00849C96801F0040109B1B5
:10510000022007E00449C96801F0100109B1032039
:1051100000E00420704700000020024023016745A2
:10512000AB89EFCD00F8FF1F0CB500200190009077
:105130006C48006840F480306A49086000BF6948E4
:10514000006800F4003000900198401C0190009825
:1051500018B90198B0F5A06FF1D16248006800F469
:10516000003010B10120009001E000200090009874
:10517000012843D15C48006840F010005A4908609B
:105180000846006820F0030008600846006840F008
:105190000200086053484068524948600846406829
:1051A00048600846406840F48060486008464068AF
:1051B00020F47C1048600846406840F4E8104860DD
:1051C0000846006840F08070086000BF45480068ED
:1051D00000F000700028F9D04248406820F0030039
:1051E000404948600846406840F00200486000BFFF
:1051F0003C48406800F00C000828F9D10CBD10B5FF
:10520000FFF792FF10BD10B53648006840F001006E
:1052100034490860084640683449084031494860CC
:1052200008460068324908402E4908600846006870
:1052300020F4802008600846406820F4FE004860A2
:105240004FF41F008860FFF7DAFF4FF00060294934
:10525000086010BD10B5002100200022214B5B68C2
:1052600003F00C0121B1042906D0082928D107E058
:10527000214B224C236027E01F4B204C236023E06E
:10528000184B5B6803F47010164B5B6803F48032B4
:10529000022303EB904022B9194B4343174C236080
:1052A0000DE0104B5B6803F4003323B1144B434310
:1052B000124C236003E0104B4343104C236003E087
:1052C0000D4B0E4C236000BF00BF064B5B68C3F361
:1052D00003130C4CE15C094B1B68CB40074C23606B
:1052E00010BD000000100240002002400000FFF846
:1052F000FFFFF6FE08ED00E000127A00A820002073
:1053000000093D00AC2000200948804709480047BB
:10531000FEE7FEE7FEE7FEE7FEE7FEE7FEE7FEE765
:10532000FEE7FEE704480549054A064B70470000C2
:105330000752000831010008E8290020E82F00206A
:10534000E82B0020E82B00204168491C4160D0E98F
:105350000121914203D10121016000214160704788
:1053600000B52648006878B3002024490860244826
:10537000FFF7EAFF2348FFF7E7FF2348FFF7E4FFC3
:105380002248FFF7E1FF2248FFF7DEFF2148FFF741
:10539000DBFF2148FFF7D8FF2048FFF7D5FF204863
:1053A000FFF7D2FF1F48FFF7CFFF1F48FFF7CCFFE3
:1053B0001E48FFF7C9FF1E48FFF7C6FF1D48FFF74D
:1053C000C3FF1D48FFF7C0FF00BD10B500240460F7
:1053D00044608160C26065241C7010BD10B500245B
:1053E000046044608160C26064241C7010BD026867
:1053F000012A01D1027B0A7070470000BC20002006
:10540000D4240020E4240020F424002004250020DB
:1054100014250020242500203425002044250020C8
:1054200054250020642500207425002084250020B8
:1054300094250020A4250020B42500200120F8494F
:105440000870F8490870F8490870F8490870F84978
:105450000870F8490870F8490870F8490870F84968
:105460000870F8490870F8490870F8490870F84958
:105470000870F8490870F84908700020F749C870AA
:1054800001200870487000208870704770B506468B
:105490000C4615462078342837D007DC08287CD203
:1054A000DFE800F0E7153F536C8CADBC382875D0B1
:1054B00006DC352842D0362854D037286DD173E029
:1054C00064286CD065286BD0C828F7D1D0E0A87CC0
:1054D000012819D1E2480078012815D10020A874CC
:1054E0004FF40061DF48FDF79CFF4FF48051DD4829
:1054F000FDF799FF0020DC498874234634224FF4DD
:10550000FA713046FFF76AFFB4E0D748807C012883
:1055100006D1234602224FF416713046FFF75EFF94
:10552000A8E04FF40041CF48FDF77BFF234635222A
:105530004FF416713046FFF751FF9BE023460322DC
:1055400002213046FFF74AFF94E04FF48061C548DE
:10555000FDF767FF234636224FF416713046FFF7FA
:105560003DFF87E04FF48041BE48FDF75AFF2346D8
:10557000042202213046FFF731FF7BE04FF48061C7
:10558000B848FDF74EFF4FF40061B648FDF74BFFFA
:10559000234607220321304603E06AE025E05DE070
:1055A00061E0FFF71BFF65E00020B04988742346E7
:1055B000052202213046FFF711FF5BE0AB48807CFB
:1055C000012811D12021AA48FDF72DFF0421A84868
:1055D000FDF727FF0020A7498874234638224FF49F
:1055E00016713046FFF7FAFE44E00020A1498874A6
:1055F0002346062202213046FFF7F0FE3AE09D489E
:10560000807C012809D104219948FDF70CFF23462D
:10561000072202213046FFF7E1FE2BE000209049EF
:1056200008700120944908700020944988749449B6
:10563000887494480078012806D193A001F0D4FA28
:1056400000209049087002E091A001F0CDFA2346B5
:10565000012202213046FFF7C1FE0BE02146304611
:10566000FFF7C5FE06E021463046FFF7C0FE01E029
:1056700000E000BF00BF70BD70B506460D46144681
:105680002878092870D007DC6FD2DFE800F06E16AA
:105690002C334047545B7000642867D006DC0A282E
:1056A00076D00B2875D014285FD1A3E0652871D07F
:1056B000662870D0C828F7D113E1A07C012811D149
:1056C0006D48007801280DD10020A0744FF480416E
:1056D0006448FDF7A8FE2B4602224FF416713046AF
:1056E000FFF77CFEFFE02B46032202213046FFF746
:1056F00075FEF8E04FF480615A48FDF794FE2B46A2
:1057000004224FF416713046FFF768FEEBE02B469B
:10571000052202213046FFF761FEE4E04FF400412C
:105720005048FDF780FE2B4606224FF41671304696
:10573000FFF754FED7E02B46072202213046FFF741
:105740004DFED0E04FF480514648FDF76AFE4FF41D
:1057500000614448FDF767FE2B4608224FF496612E
:105760003046FFF73BFEBEE016E0BBE098E04FF4AA
:1057700000613C48FDF757FE4FF480513948FDF772
:1057800052FE2B46142202213046FFF727FEAAE0E4
:1057900017E020E089E08DE03F48807C01280FD1B0
:1057A00001033048FDF73FFE4FF400712D48FDF72F
:1057B00038FE2B460A224FF416713046FFF70EFED4
:1057C00091E00020354988742B460B220221304697
:1057D000FFF704FE87E03148807C012809D14102AF
:1057E0002048FDF720FE2B46142202213046FFF709
:1057F000F5FD78E001201A49087000201E49087064
:10580000A0741E4988741E4988741FA001F0ECF929
:105810002B46012202213046FFF7E0FD63E0000045
:10582000C0200020C1200020C2200020C320002072
:10583000C4200020C5200020C6200020C720002052
:10584000C8200020C9200020CA200020CB20002032
:10585000CC200020CD200020CE200020D52000200C
:10586000DA200020002001400429002064280020C4
:1058700000140140A4280020D9200020C4250020C5
:10588000E4250020DB2000206F6B0D0A00000000E3
:1058900072656164790D0A00042800204428002004
:1058A00029463046FFF7A3FD1DE029463046FFF7A5
:1058B0009EFD18E04FF40071F748FDF7B4FD4FF47A
:1058C0008071F648FDF7ADFD4FF48071F248FDF7A9
:1058D000AAFD2B4602224FF4FA713046FFF77EFDF7
:1058E00001E000E000BF00BF70BD70B506460D4688
:1058F00014462878642827D006DC01280BD002281B
:105900001AD0062844D11EE0652822D066282AD065
:10591000C8283DD13BE0A07C012805D10020A0741F
:105920000120DF49087006E0207D012803D1002016
:105930002075DB4908702CE02B460B2205213046F0
:10594000FFF74CFD25E024E029463046FFF74FFDE8
:105950001FE029463046FFF74AFD207F012801D18C
:105960006620287015E01021CE48FDF75CFD20214F
:10597000CC48FDF756FD0821CA48FDF754FD2B46DB
:1059800002224FF4FA713046FFF728FD01E000E0F3
:1059900000BF00BF70BD70B506460C4615462078A6
:1059A00065281DD004DC012807D0642838D112E016
:1059B00066281FD0C82833D131E0A87C012809D13E
:1059C0000020A874FCF767F8234601220221304624
:1059D000FFF704FD25E021463046FFF708FD20E0F3
:1059E00021463046FFF703FD287F012801D16620BC
:1059F000207016E00121AB48FDF715FD0221A948F2
:105A0000FDF70FFD4FF48051A348FDF70CFD234631
:105A100002224FF4FA713046FFF7E0FC01E000E0AB
:105A200000BF00BF70BD70B506460C461546207815
:105A3000012806D0642815D0652818D0C8281CD1A4
:105A40001AE0A87C01280CD10020A874FCF7CCFF38
:105A5000FCF7F0FE2346012240F252313046FFF7B8
:105A6000BDFC0BE021463046FFF7C1FC06E02146B5
:105A70003046FFF7BCFC01E000E000BF00BF70BD96
:105A800070B506460D46144628780B2833D007DC3F
:105A900007286ED2DFE800F08A112338525E6700D3
:105AA00066286DD004DC64285ED065287ED162E073
:105AB00067283BD0C82879D177E0A07C01280DD198
:105AC0000020A0744FF480617748FDF7AAFC2B46B4
:105AD000022240F252313046FFF780FC67E04FF47B
