:020000040800F2
:100000006830002015510008BF020008C102000836
:10001000C5020008C9020008CD0200080000000067
:10002000000000000000000000000000D1020008F5
:10003000D302000800000000D5020008D702000823
:100040002F5100082F5100082F5100082F51000890
:100050002F5100082F5100082F5100082F51000880
:100060002F5100082F5100082F5100082F51000870
:100070002F5100082F5100082F5100082F51000860
:100080002F5100082F5100082F5100082F51000850
:100090002F5100082F5100082F5100082F51000840
:1000A0002F5100082F5100082F5100082F51000830
:1000B0004D0B00082F5100082F5100082F51000848
:1000C0002F5100082F5100082F5100082F51000810
:1000D0002F510008BD0C00082F5100082F510008B7
:1000E0002F5100082F5100082F5100082F510008F0
:1000F0002F5100082F5100082F5100082F510008E0
:100100002F5100082F5100082F5100082F510008CF
:100110002F5100082F5100082F5100082F510008BF
:100120002F5100082F5100082F5100082F510008AF
:1001300000F002F800F0B4F80AA090E8000C824445
:100140008344AAF10107DA4501D100F0A9F8AFF222
:10015000090EBAE80F0013F0010F18BFFB1A43F0A5
:1001600001031847E47F00000480000010F8013B01
:100170000A4413F0030408BF10F8014B1D1108BF17
:1001800010F8015B641E05D010F8016B641E01F8C5
:10019000016BF9D1002D15D010F8014B03F00C03C1
:1001A0000C2BA1EB04040ABF10F8013BA4EB831451
:1001B000A4EB032405F1010314F8016B5B1E01F8A5
:1001C000016BF9D5914238BF10F8013BD1D370478C
:1001D0000023002400250026103A28BF78C1FBD850
:1001E000520728BF30C148BF0B6070476E2906F028
:1001F0004886702906F0B387662907F03787652996
:1002000007F03487672907F031876129AFF3008051
:1002100003681B0A28BF41F08001692906F05A844F
:10022000642906F05784752906F054846F2906F076
:100230004187782906F07F87E92906F0DB86E429E3
:1002400006F0D886F52906F0D586EF2906F03E8718
:10025000F82906F07E870368DB0928BF41F080019A
:10026000632906F04A86732906F04F86E32907F0D2
:10027000DD81F32907F0E281002070471FB507F008
:1002800033FA04000020002107F0DAFE401C606011
:100290000020002107F0BEFEE0601FBD10B510BDBC
:1002A00007F0F4F91146FFF7E9FF00F01AFC07F038
:1002B000CDFA03B4FFF7F2FF03BC00F09BFC7047DC
:1002C00000BFFEE700BFFEE700BFFEE700BFFEE79E
:1002D000704770477047704708B501214FF4FE70B2
:1002E00003F0D4F90121084603F0D0F9012169484F
:1002F00002F0C1FF4FF68010ADF8000048208DF8E5
:10030000030003208DF802006946634802F0E2FE14
:100310004FF40050ADF8000048208DF80300032092
:100320008DF8020069465D4802F0D4FE7E20ADF8EB
:10033000000010208DF8030003208DF802006946AC
:10034000554802F0C7FE4FF6FF70ADF800001020D0
:100350008DF8030003208DF802006946504802F032
:10036000B9FE4FF6FF70ADF8000010208DF80300C5
:1003700003208DF8020069464A4802F0ABFE4FF6B2
:10038000FF70ADF8000010208DF8030003208DF8F9
:1003900002006946444802F09DFE4FF6FF70ADF83A
:1003A000000010208DF8030003208DF8020069463C
:1003B0003E4802F08FFE4FF6FF70ADF800001020AF
:1003C0008DF8030003208DF802006946384802F0DA
:1003D00081FE4DF6FF70ADF8000010208DF803008F
:1003E00003208DF8020069462C4802F073FE4FF49A
:1003F0008041294802F01DFF4FF6FF71284802F0A6
:1004000016FF4FF6FF71274802F011FF4FF6FF71FC
:10041000254802F00CFF4FF6FF71244802F007FF59
:1004200041F6FF71224802F002FF43F6FF711B48BC
:1004300002F0FDFE4FF48041174802F0F8FE4FF441
:100440000061154802F0F3FE4FF48061134802F09A
:10045000F0FE4FF40061114802F0EBFE4FF48051C2
:100460000E4802F0E6FE08BD70B505460C4645F2A2
:10047000555002F07DFF284602F07DFF204602F035
:100480007DFF02F07EFF02F081FF70BD10B502F02B
:1004900078FF10BD0002300000080140002001403C
:1004A000000C014000100140001401400018014000
:1004B000001C014038B5FE48008800F400400028C8
:1004C0007ED0FC480078732818D1FA484078742808
:1004D00014D1F8488078612810D1F648C078722885
:1004E0000CD1F4480079742808D1F24840790D28DD
:1004F00004D10120F0498874F0490870ED48007873
:10050000722816D1EB484078652812D1E9488078E6
:1005100073280ED1E748C07865280AD1E5480079EC
:10052000742806D1E34840790D2802D10120E4491E
:100530008874E0480078742819D1DE48407865282E
:1005400015D1DC488078732811D1DA48C078742836
:100550000DD1D84800790D2809D1D64840790A280C
:1005600005D10120D7498874D7A006F041FAD148B7
:100570000078412815D1CF4840784E2811D1CD4878
:10058000807849280DD1D14A11681268521CCF4C8D
:100590002260CF4A10681268521CCD4C226000F0D5
:1005A00079FFC4480078732810D1C2484078652884
:1005B0000CD1C0488078662808D14FF47A7000E0EA
:1005C00075E1C4490860C4A006F012FAB948007881
:1005D000732811D1B748407865280DD1B548807887
:1005E000672809D1C1480068401CC0490860084616
:1005F0000168006801F008FAAE480078732811D14C
:10060000AC48407865280DD1AA488078682809D17F
:10061000B6480068401EB549086008460168006891
:1006200001F0F2F9A3480078732810D1A14840786E
:1006300065280CD19F488078692808D1AB480068AC
:10064000401CAA4A01461060802001F0DDF999485B
:10065000007873280CD197484078652808D19548D0
:1006600080786A2804D1A1480168006801F0CCF9BB
:100670009048007873280FD18E48407865280BD1B8
:100680008C4880786B2807D19848006814389749BF
:10069000086097A006F0ACF98648007873280DD161
:1006A00084484078652809D182488078612805D13E
:1006B0008E4801686431006801F0A6F97D48007831
:1006C00073280CD17B484078632808D1794880781A
:1006D000622804D189A006F08BF901F0F0FC75487E
:1006E000007873280BD173484078632807D171488C
:1006F0008078632803D19621652001F003F96D48C5
:10070000007873280BD16B484078632807D169487B
:100710008078642803D1C821972001F0F3F8654858
:100720000078612817D163484078642813D1614864
:10073000807864280FD15F48C07832280BD15D489B
:100740000079302807D16FA006F052F96748006899
:100750001430664908606EA1564806F0E3FA20B9E5
:1007600017226421082001F09CF86CA1514806F082
:10077000D9FA28B96DA006F03BF9704801F0DDF810
:100780006FA14C4806F0CEFA20B91522642108204A
:1007900001F0A4F86DA1474806F0C4FA10B96F48FB
:1007A00001F03DF8434800786A2809D14148407873
:1007B000372805D13F488078612801D101F040FFFA
:1007C0003C480078642815D13A484078652811D112
:1007D0003848807862280DD13648C078752809D10C
:1007E00034480079672805D100205D4908705DA074
:1007F00006F0FEF82F4800786A282AD12D48407864
:10080000372826D12B488078622822D159A006F0BB
:10081000EFF85BA05B4B5C4A5CA100905CA001F030
:100820007BF95CA05C4B5D4A5DA1009059A001F092
:1008300073F956A05B4B5C4A5CA100905CA001F090
:100840006BF952A05B4B5C4A4DA100905BA001F09C
:1008500063F918480078722815D116484078652841
:1008600011D11448807874280DD11248C0787528A9
:1008700009D1104800796E2805D100205049087030
:1008800050A006F0B5F80B4800786A280CD109484A
:100890004078362808D107488078612804D14EA0D6
:1008A00006F0A6F802F01EF800200149088038BDC5
:1008B0001800002060210020442600205B21002039
:1008C00064260020C42600206A6A00000C00002074
:1008D00008000020440000207365742074686520BF
:1008E000707574206C6F6E670000000010000020AF
:1008F00064656320323020776F726B0072756E63AF
:100900006170000069742077617320776F726B00EB
:1009100066696E64476E640D0A0000005343414EE1
:100920005369676E616C5F310D0A00007363616E1D
:100930007369676E616C5F3100000000101A00205F
:100940007866696E64676E640D0A00007866696E89
:10095000645369676E616C0D0A0000005019002035
:100960002500002073657420646562756720300D72
:100970000A000000746573746A37620D0A00000093
:1009800055314200AC0F00205C0B00204A31410081
:100990004A3741004A374200BC1600202C12002082
:1009A0004A3142008C0300204C00002055314100A8
:1009B0004A364100CC0800207C0500204A3642001F
:1009C0004C1900207365742072657475726E6F72B5
:1009D000203D300D0A000000746573746A36610DA5
:1009E0000A00000070470EB50121084602F05BFEC8
:1009F0000920ADF8040041F61F40ADF800000020CA
:100A0000ADF80600ADF8020069464FF0804002F0F4
:100A100075FF01221146900703F0E7FA01218807CC
:100A200003F0C8FA0EBD08B500214FF0006002F0D7
:100A300092F84FF4C06002F057F81C208DF80000C7
:100A400000208DF801008DF8020001208DF80300D0
:100A5000684602F04EF808BD10B502F0A9FC4FF44C
:100A6000803002F0C5FC02F002FD0446012C2FD1BB
:100A7000102003F095FF022003F07EFF002002F01B
:100A80003CFD002002F04BFDA00202F03FFD4FF4C0
:100A9000E011200402F014FD012002F01DFD00BF52
:100AA000392002F0C8FC0028FAD0022002F017FD1D
:100AB00000BF02F01DFD0828FBD1012002F01EFE40
:100AC0000121084602F0EFFD01213D2002F0DEFD8C
:100AD00010BD10B5FFF7C0FFFFF7A5FFFFF783FFBD
:100AE00010BDFFF7F6FF4FF4165000F095F8FFF732
:100AF000F3FB00F09DFF05F098FE04F0A5FB01203C
:100B00002449887424A005F073FF1EE004F02EFB36
:100B100005F087FA264A2749274804F0EAFDFFF73F
:100B2000C9FC264A2649274804F0B6FB194A26493B
:100B3000264804F0A5FC264A2649274804F02FFE43
:100B4000264A2749274804F072FEDFE710B5012145
:100B5000880703F0F8FC012812D10121800703F077
:100B600003FD21480068401C1F4908601F480068B9
:100B7000401C1E4908601E480068401C1C49086053
:100B800010BD0021184A116000BF17490968814251
:100B9000FBD37047642600200D0A207374617274C1
:100BA0002076657273696F6E2033210D0A00000094
:100BB00084260020422100207425002044260020A5
:100BC00040210020542500204121002064250020E0
:100BD000A42600204321002084250020C4260020D4
:100BE0004421002094250020000000203C2100200A
:100BF0005C21002000BF704770B504460D46A1B2CD
:100C00004A4803F0F1FD00BF8021484803F05AFE36
:100C10000028F9D0204670BD10B586B004460121E9
:100C200044F2040002F032FD4FF40070ADF81400FD
:100C300003208DF8160018208DF8170005A93C48F0
:100C400002F048FA4FF48060ADF8140004208DF8EB
:100C5000170005A9364802F03DFA25208DF800005E
:100C600003208DF801008DF8020001208DF80300AB
:100C7000684601F03EFF01940020ADF80800ADF891
:100C80000A00ADF80C00ADF810000C20ADF80E0015
:100C900001A9264803F0AFFC012240F22551234868
:100CA00003F041FD012240F22441204803F03BFDC6
:100CB00001211E4803F02BFD06B010BD10B500BF8A
:100CC00040F22551194803F013FE88B11748001D62
:100CD0000088C1B2174802880088401C154B188054
:100CE0001548815440F22551104803F0F8FD19E0F1
:100CF00040F224410D4803F0FBFD98B10F480088F5
:100D000040F400400D4908800A4800880C490880DA
:100D100000200849088005480088C4B20348001D27
:100D20000088C4B210BD0146704700000038014081
:100D3000000801401A000020602100201800002057
:100D40001C00002002464FF4347105E0024600E02A
:100D5000521E002AFCD1491E0029F7DC7047582991
:100D600061D108285DD2DFE800F004101B252F3A7E
:100D700045500122F74B1A600022F74BC3F894212B
:100D80000122F44B08331A604CE00122F14B1A6047
:100D9000F14BC3F894210022EE4B08331A6041E076
:100DA0000122EC4B1A60EC4BC3F89421E94B083359
:100DB0001A6037E00022E74B1A60E74BC3F8942132
:100DC000E44B08331A602DE00022E24B1A60012246
:100DD000E14BC3F89421DF4B08331A6022E0012273
:100DE000DC4B1A600022DC4BC3F89421D94B08334A
:100DF0001A6017E00022D74B1A60D74BC3F8942132
:100E00000122D44B08331A600CE00022D14B1A6047
:100E10000122D14BC3F894210022CE4B08331A6033
:100E200000E000BF00BF592969D1082865D2DFE87A
:100E300000F004111D28333F4B570122C54B0C3BDA
:100E40001A600022C44BC3F888210122C14B1B1F2A
:100E50001A6053E00122BF4B0C3B1A60BE4BC3F833
:100E600088210022BB4B1B1F1A6047E00122B94BAF
:100E70000C3B1A60B84BC3F88821B64B1B1F1A6095
:100E80003CE00022B34B0C3B1A60B34BC3F8882103
:100E9000B04B1B1F1A6031E00022AE4B0C3B1A60B6
:100EA0000122AD4BC3F88821AA4B1B1F1A6025E015
:100EB0000122A84B0C3B1A600022A74BC3F88821E3
:100EC000A44B1B1F1A6019E00022A24B0C3B1A60B6
:100ED000A14BC3F8882101229E4B1B1F1A600DE015
:100EE00000229C4B0C3B1A6001229B4BC3F88821CB
:100EF0000022984B1B1F1A6000E000BF00BF704724
:100F00000121964A1160964AC2F88411934A083228
:100F10001160121D1160121D1160121D1160121D51
:100F20001160121D1160121D1160121D11608D4A99
:100F30001160121D1160121D1160884A3432116057
:100F4000121D1160121D1160874A1160121D11607F
:100F5000121D1160121D1160121D1160121D116011
:100F6000121D1160121D1160121D1160121D116001
:100F7000121D1160121D1160121D1160121D1160F1
:100F8000121D1160121D1160784A1160121D11604E
:100F9000121D1160121D1160121D1160121D1160D1
:100FA000121D1160121D1160121D1160121D1160C1
:100FB0006F4A1160121D1160121D11602D286FD231
:100FC000DFE800F0171B20252A2F34393E43484C18
:100FD00051565B6065696F74797E83888D92979CAA
:100FE000A1A6ABB0B5B9BEC3D8DCE1E6F0F5FAFE18
:100FF000EB000021594A1160EDE00021574A121D13
:101000001160E8E00021554A08321160E3E0002158
:10101000524A0C321160DEE00021504A1032116059
:10102000D9E000214D4A14321160D4E000214B4A2E
:1010300018321160CFE00021484A1C321160CAE02A
:101040000021464A20321160C5E00021434A243283
:101050001160C0E00021434A1160BCE00021414A18
:10106000121D1160B7E000213E4A08321160B2E063
:1010700000213A4A34321160ADE00021374A38325B
:101080001160A8E00021354A3C321160A3E0002144
:10109000354A11609FE00021334A121D11609AE029
:1010A00098E00021304A0832116094E000212E4A75
:1010B0000C3211608FE000212B4A103211608AE05F
:1010C0000021294A1432116085E00021264A183295
:1010D000116080E00021244A1C3211607BE0002175
:1010E000214A2032116076E000211F4A243211602B
:1010F00071E000211C4A283211606CE000211A4A7C
:101100002C32116067E00021174A3032116062E032
:101110000021154A343211605DE00021124A383254
:10112000116058E00021104A3C32116053E0002168
:101130000E4A11604FE000210C4A121D11604AE076
:1011400000210A4A0832116045E00021074A0C32AA
:10115000116040E0900121420000214280012242C2
:1011600000002242948121428001234280012442D6
:10117000B48123420021FE4A11602CE00021FC4A88
:10118000121D116027E00021F94A0832116022E0A7
:101190000021F74A0C3211601DE016E010E00BE070
:1011A00005E0FFE70021F24A1032116013E0002150
:1011B000EF4A143211600EE00021EE4A11600AE09D
:1011C0000021EC4A121D116005E00021E94A0832B5
:1011D000116000E000BF00BF70470121E64A1160C6
:1011E000E64AC2F88411E44A08321160121D116007
:1011F000121D1160E24A1160121D1160121D116072
:10120000DD4A20321160121D1160121D1160121D85
:101210001160121D1160121D1160121D1160121D4E
:101220001160D84A1160121D1160121D1160121D4B
:101230001160121D1160121D1160121D1160121D2E
:101240001160121D1160121D1160121D1160121D1E
:101250001160121D1160121D1160121D1160121D0E
:101260001160C44A343A1160121D1160121D1160E0
:10127000121D1160121D1160121D1160121D1160EE
:10128000121D1160121D1160121D1160121D1160DE
:10129000121D1160121D11602D286FD2DFE800F0C1
:1012A000171B20252A2F33383D42474C51565B608F
:1012B00065696F74797E83888D92979CA1A6ABB087
:1012C000B5BABFC4C9CED3D8DDE2E7ECF200002145
:1012D000A94A1160DCE00021A74A121D1160D7E085
:1012E0000021A54A08321160D2E00021A24A0C3246
:1012F0001160CDE00021A04A10321160C8E0002149
:101300009F4A1160C4E000219D4A121D1160BFE098
:1013100000219B4A08321160BAE00021964A20322F
:101320001160B5E00021944A24321160B0E0002140
:10133000914A28321160ABE000218F4A2C321160B3
:10134000A6E000218C4A30321160A1E000218A4AD7
:10135000343211609CE00021874A3832116097E0F6
:101360000021854A3C32116092E00021854A1160DB
:101370008EE00021834A121D116089E087E0002180
:10138000804A0832116083E000217E4A0C321160ED
:101390007EE000217B4A1032116079E00021794A19
:1013A0001432116074E00021764A183211606FE047
:1013B0000021744A1C3211606AE00021714A203217
:1013C000116065E000216F4A2432116060E0002165
:1013D0006C4A283211605BE000216A4A2C321160AD
:1013E00056E00021674A3032116051E00021654A21
:1013F000343211604CE00021624A3832116047E01B
:101400000021604A3C32116042E00021594A343ADE
:1014100011603DE00021574A303A116038E0002168
:10142000544A2C3A116033E00021524A283A1160A4
:101430002EE000214F4A243A116029E000214D4A54
:10144000203A116024E000214A4A1C3A11601FE052
:101450000021484A183A11601AE00021454A143A1E
:10146000116015E00021434A103A116010E000219C
:10147000404A0C3A11600BE000213E4A083A1160E4
:1014800006E0FFE700213B4A121F116000E000BFA9
:1014900000BF70472DE9F84304460D46601EC11792
:1014A00000EB5171C910A0EBC106C11700EB5171DF
:1014B000CF10681EC11700EB5171C910A0EBC10815
:1014C000C11700EB51714FEAE1093846FFF718FDEB
:1014D00059213046FFF743FC4846FFF77EFE58216E
:1014E0004046FFF73CFC0320FFF72CFC04210020C2
:1014F00000F0F7FA24494880084640882B462246E7
:1015000022A10090274805F07FFA264805F064FAEA
:101510001D484088BDE8F8832DE9F04705460C4694
:101520002646681EC11700EB5171C910A0EBC10718
:10153000C11700EB51714FEAE108701EC11700EBB3
:101540005171C910A0EBC109C11700EB51714FEAED
:10155000E10A4046FFF7D4FC59213846FFF7FFFB6C
:101560005046FFF73AFE58214846FFF7F8FB1BE0CC
:1015700090012442B4812342808121420080214293
:10158000A8012242808122423C2200200D0A595BA0
:101590002533645D585B2533645D3A2535640D0A57
:1015A00000000000222500200A20FFF7CBFB0621C7
:1015B000002000F096FAF749488008464088B0F5C8
:1015C0007A7F16DD4046FFF79BFC59213846FFF72E
:1015D000C6FB5046FFF701FE58214846FFF7BFFB08
:1015E0001420FFF7AFFB0621002000F07AFAE9494A
:1015F00048804FF44870FFF783FCE6484088BDE818
:10160000F0872DE9F84F05460C462646681EC1179F
:1016100000EB5171C910A0EBC107C11700EB51716C
:101620004FEAE108701EC11700EB5171C910A0EB21
:10163000C109C11700EB51714FEAE10A4046FFF7BB
:101640005FFC59213846FFF78AFB5046FFF7C5FD7E
:1016500058214846FFF783FB1420FFF773FB062150
:10166000002000F03EFACB49488008464088B0F59B
:101670007A7F16DD4046FFF743FC59213846FFF7D5
:101680006EFB5046FFF7A9FD58214846FFF767FB60
:101690001420FFF757FB0621002000F022FABD4975
:1016A0004880BC48408823462A46BBA10090C348D6
:1016B00005F0AAF9C14805F08FF94FF44870FFF71B
:1016C0001FFCB4484088BDE8F88F2DE9F047054677
:1016D0000C462646681EC11700EB5171C910A0EBDD
:1016E000C107C11700EB51714FEAE108701EC11725
:1016F00000EB5171C910A0EBC109C11700EB51718A
:101700004FEAE10A4046FFF7FBFB59213846FFF755
:1017100026FB5046FFF761FD58214846FFF71FFBA7
:101720006420FFF70FFB0621002000F0DAF9994949
:10173000488008464088B0F57A7F16DD4046FFF7BE
:10174000DFFB59213846FFF70AFB5046FFF745FDFE
:1017500058214846FFF703FB1420FFF7F3FA062150
:10176000002000F0BEF98B4948808A484088BDE8D7
:10177000F0870246002070472DE9F04104460D46EF
:101780004FF000082E68276805E031462068FFF713
:10179000C3FE8046241D2068B0F5FA7FF5D105E030
:1017A00038462968FFF7B8FE80462D1D2868B0F539
:1017B000FA7FF5D1BDE8F081024605E00868904265
:1017C00001D101207047091D0868B0F5FA7FF5D1F5
:1017D0000020F7E72DE9F0470024002517266427AD
:1017E000B046B946A246344612E075492046FFF796
:1017F000E3FF012800D10AE0454605E029462046DE
:10180000FFF78AFE82466D1C4D45F7DD00BF641C64
:10181000BC42EADD6BA005F0EBF8BDE8F08710B53F
:10182000044668A005F0E4F810BD2DE9F047002457
:101830000025012632274FF00108B946A24634465A
:101840000AE0454605E029462046FFF765FE824648
:101850006D1C4D45F7DD641CBC42F2DD59A005F05E
:10186000C7F8BDE8F0872DE9F047002400250126E0
:1018700032274FF00108B946A24634460AE04546F1
:1018800005E029462046FFF747FE82466D1C4D4580
:10189000F7DD641CBC42F2DD4AA005F0A9F8BDE802
:1018A000F0872DE9F04105460E4617460024A04674
:1018B0002C460CE03946204600F09EFC8046B8F5E8
:1018C0007A7F03DA3946204600F096FC641CB44265
:1018D000F0DD45A005F08CF8BDE8F0812DE9F04180
:1018E00005460E46174600242C4604E0214638469D
:1018F00000F082FC641CB442F8DD3BA005F078F8EF
:10190000BDE8F0812DE9F04104460D460026002790
:10191000B04626460AE0274605E03946304600F044
:101920006BFC80467F1CAF42F7DD761CAE42F2DDD9
:1019300024A005F05DF8BDE8F08170B504462646A8
:10194000012500BF14E034460CE02068A84200D115
:101950000CE06068B0F5FA7F03D1294628A005F0B5
:1019600047F8241D2068B0F5FA7FEED100BF6D1C4A
:10197000642DE8DB70BD10B5044621462046FFF714
:10198000CBFD10BD10B504462146204600F034FCC6
:1019900010BD00003C2200202020202020202D2DE2
:1019A0002D2D2D2D2D2D202020595B2533645D58A4
:1019B0005B2533645D3A2535643B00002225002019
:1019C000101A002068657265206973206F75742095
:1019D00070757420616C6C206F6620726573756C15
:1019E0007420200D0A0000007363616E2074686526
:1019F00020676E64206F76657220200D0A0000005B
:101A00002533642C0000000070B504460D462946BD
:101A10002046FFF73FFD70BD10B5FFF706FFAFF2A0
:101A20005C0004F0E5FF10BD10B5FFF7F5FF10BD39
:101A300000B587B001214FF4017001F027FE4FF48B
:101A4000004001F087FD0120ADF8040000208DF872
:101A5000070001A92E4801F03DFB2E4801F0B2F825
:101A6000002002908DF80C008DF80D004FF46020DE
:101A700004900020059001208DF8180002A9254847
:101A800001F0C7F80121234801F0EFF8214801F0E7
:101A90000EF900BF1F4801F00FF90028FAD11D48C8
:101AA00001F014F900BF1B4801F015F90028FAD124
:101AB00007B000BD10B50446072301222146154892
:101AC00001F03FF90121134801F00FF900BF022195
:101AD000104801F07BFA0028F9D00E4801F098F97F
:101AE00010BD2DE9F04107460C460025002608E010
:101AF0003846FFF7DFFF05443220FFF723F9701C5B
:101B0000C6B2A642F4DBB5FBF4F080B2BDE8F081CA
:101B100000080140002401402DE9F04F85B08346C4
:101B20000E4615461F46D5F808800024A14604201D
:101B30000490032003904FF0000A0020029003203D
:101B40000490012438E007EB0412D26802EB08018C
:101B500007EB0412926802EB0800FFF7DDFC8146F8
:101B600040F24C40814511DDA24607EB041040686D
:101B7000CDE9006007EB04105A46F4A10368FA4867
:101B800004F042FFF84804F027FF14E00498401ED8
:101B90000490049878B907EB04104068CDE9006020
:101BA00007EB04105A46F1A10368EF4804F02CFF3C
:101BB000ED4804F011FF641C07EB04100068B0F559
:101BC000FA7FC0D103200390012400E0641C05EBE0
:101BD00004100068B0F5FA7FF8D1641C35E005EB1D
:101BE0000412D26802EB080105EB0412926802EBC2
:101BF0000800FFF706FD814640F2E240814510DD16
:101C000005EB04104068CDE9006005EB04105A466E
:101C1000CEA10368D44804F0F7FED34804F0DCFEFC
:101C200012E00398401E039005EB04104068CDE9D4
:101C3000006005EB04105A46CCA10368CA4804F0C2
:101C4000E3FEC94804F0C8FE641C05EB04100068FC
:101C500040F2F5118842C2D103200390012400E034
:101C6000641C05EB0410006840F2F5118842F7D1BE
:101C7000601C05EB00100068B0F5167F44D1641CB1
:101C80000294641C3AE005EB0412D368029A05EB57
:101C90000212D268991805EB0412926802EB080050
:101CA000FFF7AFFC814640F2E240814511DD05EBD4
:101CB000041040680E99CDE9001005EB04105A4657
:101CC000A2A10368A84804F09FFEA74804F084FE80
:101CD00013E00398401E039005EB041040680E9932
:101CE000CDE9001005EB04105A46A0A103689E48F8
:101CF00004F08AFE9C4804F06FFE641C05EB04109F
:101D00000068B0F5FB7FBED101249EE005EB041214
:101D1000D26802EB080105EB0412926802EB08009E
:101D2000FFF7FAFB814640F24C40814510DD05EBA0
:101D300004104068CDE9006005EB04105A4683A109
:101D40000368894804F060FE874804F045FE0FE010
:101D500005EB04104068CDE9006005EB04105A461D
:101D600082A10368804804F04FFE7F4804F034FEEF
:101D700007EB0A12D26802EB080105EB0412926825
:101D800002EB0800FFF7C8FB8146B9F5167F10DAB1
:101D900007EB0A104068CDE9006005EB04105A46D5
:101DA0006AA10368704804F02FFE6F4804F014FE27
:101DB0000FE007EB0A104068CDE9006005EB041066
:101DC0005A4671A10368684804F01EFE664804F094
:101DD00003FE601C05EB0010C068B0F5FA7F33D03D
:101DE000621C05EB0212D26802EB080105EB04123B
:101DF000926802EB0800FFF78FFB8146B9F5167F6A
:101E000011DA601C05EB00104068CDE9006005EBBD
:101E100004105A464DA10368534804F0F5FD52489A
:101E200004F0DAFD10E0601C05EB00104068CDE91D
:101E3000006005EB04105A4653A103684A4804F0B9
:101E4000E3FD494804F0C8FD641C05EB041000687C
:101E5000B0F5FA7F7FF45AAF484605B0BDE8F08F81
:101E60002DE9F04792B005460E469146402102A862
:101E700004F030FF00240027A046A24600BF0CE07B
:101E800005EBC40255F834005168FFF745FBB0F587
:101E9000966F01DD55F83470641C042CF0DB0024CF
:101EA0000EE006EBC40256F834005168FFF734FB2D
:101EB000B0F5966F03DD06EBC400D0F80480641C17
:101EC000042CEEDB43463A4636A1274804F09CFD3D
:101ED000254804F081FD17B1B8F1000F03D10020AF
:101EE00012B0BDE8F08700247CE041463846FFF799
:101EF000ECFB02A941F8240002A850F82400434654
:101F00003A462EA10090184804F07EFD164804F0D1
:101F100063FD0298B0F57A7F02DA4FF0010A63E0C0
:101F2000002C5EDD601E02A951F8201002A850F8B6
:101F300024001430814204DA02A850F82400FA2860
:101F40004CDA0E2C4DD14FF0010A4DE070617373E5
:101F50003A25735B2533645D25735B2533645D3AF5
:101F60006F6B0D0A00000000222500206661696C7D
:101F70003A25735B2533645D25735B2533645D3AD5
:101F80006F70656E0D0A00006661696C3A25735BBF
:101F90002533645D25735B2533645D3A73686F7226
:101FA000740D0A0077696C6C20636865636B205B55
:101FB0002533645D5B2533645D0D0A0077696C6CC5
:101FC00020636865636B205B2533645D5B25336448
:101FD0005D5B2533645D0D0A000000004FF0020ACE
:101FE00002E0641C102C80DB00BFBAF1010F1FD18E
:101FF0003BA1484604F096FE18B93AA1404804F0C7
:1020000003FD40A1484604F08DFE18B93EA13C48AE
:1020100004F0FAFC43A1484604F084FE18B943A139
:10202000374804F0F1FC364804F0D6FC012057E7AD
:10203000BAF1020F1FD12AA1484604F073FE18B965
:1020400041A12F4804F0E0FC2EA1484604F06AFEAE
:1020500018B944A12A4804F0D7FC32A1484604F03C
:1020600061FE18B947A1264804F0CEFC244804F0CC
:10207000B3FC002034E7002032E708B549A04A4B02
:102080004A4A4BA100904BA0FFF746FD45A04A4BA2
:102090004A4A4BA100904BA0FFF73EFD45A04A4B9A
:1020A0004A4A4BA100904BA0FFF736FD3DA04A4B9A
:1020B0004A4A4BA100904BA0FFF72EFD08BD10B57A
:1020C00007A249494948FFF7CBFE0EA246494848B6
:1020D000FFF7C6FE13A244494648FFF7C1FE10BDF4
:1020E00056313200706173733A4A37415B202034B5
:1020F0005D4A37425B2020355D3A6F6B0D0A000068
:102100002225002056330000706173733A4A37422B
:102110005B2031375D5531415B2037375D3A6F6B5E
:102120000D0A00005633415558000000706173736A
:102130003A4A37425B2032305D5531415B202032D4
:102140005D3A6F6B0D0A00006661696C3A4A37416F
:102150005B2020345D4A37425B355D3A73686F72AD
:10216000740D0A006661696C3A4A37425B20313768
:102170005D5531415B2037375D3A73686F72740D7E
:102180000A0000006661696C3A4A37425B203230CF
:102190005D5531415B2020325D3A73686F72740D7A
:1021A0000A0000004E4F0000AC0F00205C0B002026
:1021B0004A3141004A374100BC1600202C12002051
:1021C0004A3142004A3742008C0300204C00002074
:1021D000553141004A364100CC0800207C050020E2
:1021E000553142004A3642003C0B0020BC0A002018
:1021F000DC0A00200C0B00202DE9FE4F05460C46A2
:1022000026462746002C0FDD322C0DDC192C04DD70
:10221000A4F11900A4EB4000461C192C04DCC4F105
:10222000190004EB4000461C322C0FDD642C0DDC41
:102230004B2C04DDA4F14B00A4EB4000461C4B2CBE
:1022400004DCC4F14B0004EB4000461C002D0FDD04
:10225000322D0DDC192D04DDA5F11900A5EB400090
:10226000471C192D04DCC5F1190005EB4000471C83
:10227000322D0FDD642D0DDC4B2D04DDA5F14B005F
:10228000A5EB4000471C4B2D04DCC5F14B0005EBD2
:102290004000471C781EC11700EB5171C910A0EB1C
:1022A000C108C11700EB51714FEAE109701EC11757
:1022B00000EB5171C910A0EBC10AC11700EB5171BD
:1022C0004FEAE10B4846FEF71BFE59214046FEF758
:1022D00046FD5846FEF781FF58215046FEF73FFD68
:1022E0000520FEF72FFD06210020FFF7FAFBF64937
:1022F000488008464088F5490968884211DBF4485F
:10230000007801280DD1F048408823462A46F1A1E3
:10231000CDE901760090FB4804F076FBF94804F023
:102320005BFB4FF44870FEF7EBFDE7484088BDE8E3
:10233000FE8F2DE9FE4F05460C4626462746642CA7
:102340000FDD962C0DDC7D2C04DDA4F17D00A4EBCB
:102350004000461C7D2C04DCC4F17D0004EB4000F1
:10236000461C962C0FDDC82C0DDCAF2C04DDA4F12F
:10237000AF00A4EB4000461CAF2C04DCC4F1AF005E
:1023800004EB4000461C642D0FDD962D0DDC7D2DE9
:1023900004DDA5F17D00A5EB4000471C7D2D04DC8C
:1023A000C5F17D0005EB4000471C962D0FDDC82DC3
:1023B0000DDCAF2D04DDA5F1AF00A5EB4000471CFF
:1023C000AF2D04DCC5F1AF0005EB4000471C781EC3
:1023D000C11700EB5171C910A0EBC108C11700EB88
:1023E00051714FEAE109701EC11700EB5171C9101C
:1023F000A0EBC10AC11700EB51714FEAE10B48464F
:10240000FEF77EFD59214046FEF7A9FC5846FEF72F
:10241000E4FE58215046FEF7A2FC0520FEF792FC90
:102420000A210020FFF75DFBA74948800846408845
:10243000A6490968884211DBA548007801280DD11A
:10244000A148408823462A46A2A1CDE90176009002
:10245000AC4804F0D9FAAB4804F0BEFA4FF4487027
:10246000FEF74EFD98484088BDE8FE8F2DE9FE4FEF
:1024700005460C4626462746C82C0FDDFA2C0DDCF7
:10248000E12C04DDA4F1E100A4EB4000461CE12CAA
:1024900004DCC4F1E10004EB4000461CC82D0FDD54
:1024A000FA2D0DDCE12D04DDA5F1E100A5EB4000E6
:1024B000471CE12D04DCC5F1E10005EB4000471CA1
:1024C000781EC11700EB5171C910A0EBC108C117EC
:1024D00000EB51714FEAE109701EC11700EB517119
:1024E000C910A0EBC10AC11700EB51714FEAE10B13
:1024F0004846FEF705FD59214046FEF730FC584698
:10250000FEF76BFE58215046FEF729FC0520FEF72A
:1025100019FC0A210020FFF7E4FA6B4948800846BD
:1025200040886A490968884211DB694800780128B7
:102530000DD16548408823462A4666A1CDE901763B
:102540000090704804F060FA6E4804F045FA5E4866
:102550004088BDE8FE8F2DE9FE4F05460C46264615
:102560002746C82C0FDDFA2C0DDCE12C04DDA4F18C
:10257000E100A4EB4000461CE12C04DCC4F1E100C6
:1025800004EB4000461CC82D0FDDFA2D0DDCE12DBB
:1025900004DDA5F1E100A5EB4000471CE12D04DCC2
:1025A000C5F1E10005EB4000471C781EC11700EBA8
:1025B0005171C910A0EBC108C11700EB51714FEA6E
:1025C000E109701EC11700EB5171C910A0EBC10ADF
:1025D000C11700EB51714FEAE10B4846FEF790FC42
:1025E00059214046FEF7BBFB5846FEF7F6FD582141
:1025F0005046FEF7B4FB0520FEF7A4FB0A2100209D
:10260000FFF76FFA30494880084640882F4909682B
:10261000884211DB2E48007801280DD12A484088D5
:1026200023462A462BA1CDE901760090354804F0D7
:10263000EBF9344804F0D0F923484088BDE8FE8F18
:1026400070B5314C0025CEE021680846FFF7D4FD77
:102650000546B5F57A7F0EDA23681A462BA129487C
:1026600004F0D2F9274804F0B7F93048007801287F
:1026700001D1002070BD2E48007801280BD1B5F59E
:102680007A7F08DD23681A462AA11E4804F0BCF9A7
:102690001C4804F0A1F9D4E90001FFF7ADFD05469F
:1026A000B5F5487F68DD2068431C02462AA115481D
:1026B00004F0AAF9134804F08FF91C4800780128A7
:1026C0005AD10020D6E757E03C22002044000020E9
:1026D000250000200D0A595B2533645D585B2533C6
:1026E000645D3A2535643B2D2D2D7265616C49433F
:1026F00020706C61636520595B2533645D585B25F0
:1027000033645D0022250020501900206661696C49
:102710003A4A37415B2533645D4A31415B25336476
:102720005D3A6F70656E2E0D0A0000004C19002096
:10273000240000204A37415B2533645D4A31415B08
:102740002533645D3A434C4F534520544553542040
:102750004F4B2E0D0A0000006661696C3A4A374102
:102760005B2533645D4A31415B2533645D3A7368B0
:102770006F72742E0D0A00007748007801280CD182
:10278000B5F57A7F09DA2068431C024673A17C48BC
:1027900004F03AF97A4804F01FF915212068FFF790
:1027A0002BFD0546B5F5487F0DDD76A174482268FE
:1027B00004F02AF9724804F00FF97A4800780128E9
:1027C00001D1002056E76448007801280AD1B5F508
:1027D0007A7F07DA74A16A48226804F015F968481C
:1027E00004F0FAF8241D2068B0F5FA7F7FF42CAFCE
:1027F00001203FE72DE9F041744C0027B846002541
:10280000642668E0226891199019FFF792FD054649
:10281000B5F57A7F08DA23681A466DA1584804F0A6
:10282000F3F8574804F0D8F84B48007801280BD14A
:10283000B5F57A7F08DD23681A466DA1504804F08B
:10284000E3F84F4804F0C8F86268911922689019BB
:10285000FFF76FFD0546B5F5487F09DD2068431C8D
:1028600002466CA1464804F0CFF8454804F0B4F89D
:102870003948007801280CD1B5F57A7F09DA20684B
:10288000431C02466BA13E4804F0BEF83C4804F0ED
:10289000A3F806F1150122689019FFF74AFD0546D5
:1028A000B5F5487F07DD6CA13548226804F0ACF827
:1028B000334804F091F82848007801280AD1B5F58A
:1028C0007A7F07DA6CA12E48226804F09DF82C4824
:1028D00004F082F8241D2068B0F5FA7F92D101201F
:1028E000BDE8F0812DE9F0476C4C6D4D4FF00008CC
:1028F000C1460026C82728E02A68D1192268D019C5
:10290000FFF7B4FD0646B6F57A7F08DA2B6865A1B5
:102910001B48226804F078F8194804F05DF80E4866
:10292000007801280BD1B6F57A7F08DD2B6865A108
:102930001348226804F068F8114804F04DF8241D8B
:1029400000BF00BF2D1D00BF00BF2068B0F5FA7F9B
:10295000D2D10120BDE8F087240000204A37415B36
:102960002533645D4A31415B2533645D3A4F504500
:102970004E2054455354204F4B2E0D0A00000000AA
:10298000222500206661696C3A4A37415B25336431
:102990005D4A31415B2032315D3A73686F72742E4B
:1029A0000D0A00004C1900204A37415B2533645D55
:1029B0004A31415B2032315D3A4F50454E205445FB
:1029C0005354204F4B2E0D0A00000000381B0020EE
:1029D0006661696C3A4A37425B2533645D4A31422D
:1029E0005B2533645D3A6F70656E2E0D0A00000042
:1029F0004A37425B2533645D4A31425B2533645D6F
:102A00003A434C4F53452054455354204F4B2E0DC1
:102A10000A0000006661696C3A4A37425B253364FC
:102A20005D4A31425B2533645D3A73686F72742E80
:102A30000D0A00004A37425B2533645D4A31425B30
:102A40002533645D3A4F50454E2054455354204F32
:102A50004B2E0D0A000000006661696C3A4A37424D
:102A60005B2533645D4A31425B2032315D3A7368E5
:102A70006F72742E0D0A00004A37425B2533645D85
:102A80004A31425B2032315D3A4F50454E20544529
:102A90005354204F4B2E0D0A00000000C81E00208A
:102AA0005C1F00206661696C3A4A36415B253364DD
:102AB0005D5531415B2533645D3A6F70656E2E0D57
:102AC0000A0000004A36415B2533645D5531415BA5
:102AD0002533645D3A434C4F5345205445535420AD
:102AE0004F4B2E0D0A00000031490143314A11605D
:102AF000704770B5002100230F22C47804B32D4C19
:102B0000246804F4E064C4F5E064210AC1F104031C
:102B1000CA40447804FA03F184781440214309013F
:102B2000254C0678A155047804F01F050124AC401B
:102B300005786D11AD0005F1E025C5F8004109E00B
:102B4000047804F01F050124AC401C4D0678761172
:102B500045F8264070BD1A4A0A400243154B1B1F18
:102B60001A60704739B1134A121D12680243114BA3
:102B70001B1D1A6006E00F4A121D126882430D4B9E
:102B80001B1D1A607047042808D14FF0E021096925
:102B900041F004014FF0E022116107E04FF0E02125
:102BA000096921F004014FF0E02211617047000033
:102BB0000000FA050CED00E000E400E080E100E038
:102BC00080FFFF1F10B50446FA48844208D1012156
:102BD000401500F075FD0021601500F071FD17E053
:102BE000F548844208D10121001500F069FD00215B
:102BF000201500F065FD0BE0F048844208D101216A
:102C0000C80300F05DFD00214FF4004000F058FDC6
:102C100010BD30B50246002000235068E84C20402B
:102C20000D790C6844EA0524204350609068E54C17
:102C30002040D1E902542C434D7944EA4504204315
:102C40009060D06A20F470000C7C641EE4B22343D0
:102C500040EA0350D06230BD002101600171417132
:102C60008160C16001210174704721B1826842F026
:102C70000102826003E0826822F0010282607047F4
:102C800021B1826842F48072826003E0826822F49B
:102C900080728260704710B50023CBB21AB14468CD
:102CA0001C43446002E044689C43446010BD81685A
:102CB00041F0080181607047014600208A6802F0F7
:102CC00008020AB1012000E000207047816841F04D
:102CD000040181607047014600208A6802F0040206
:102CE0000AB1012000E00020704721B1826842F45F
:102CF000A002826003E0826822F4A0028260704732
:102D0000014600208A6802F480020AB1012000E036
:102D10000020704710B50A4600210023416821F4C5
:102D20006041531E41EA4331416010BD21B1426808
:102D300042F40062426003E0426822F400624260B2
:102D40007047F0B504460D4600200021092D11DD25
:102D5000E068A5F10A0606EB4607072606FA07F122
:102D60008843A5F10A0606EB460603FA06F1084376
:102D7000E0600CE0206905EB4507072606FA07F13D
:102D8000884305EB450603FA06F108432061072A4C
:102D90000FDA606B561E06EB86071F2606FA07F150
:102DA0008843561E06EB860605FA06F10843606363
:102DB00022E00D2A0FDA206BD61F06EB86071F26AE
:102DC00006FA07F18843D61F06EB860605FA06F1D8
:102DD0000843206310E0E06AA2F10D0606EB8607C7
:102DE0001F2606FA07F18843A2F10D0606EB8606B8
:102DF00005FA06F10843E062F0BD21B1826842F4B1
:102E00008012826003E0826822F480128260704740
:102E10000146C86C80B2704766484C300068704705
:102E200021B1426842F48062426003E0426822F4C9
:102E300080624260704721B1426842F48052426031
:102E400003E0426822F48052426070470A46002143
:102E5000816821F4E04111438160704721B18268AB
:102E600042F40042826003E0826822F40042826001
:102E7000704721B1826842F40212826003E08268E6
:102E800022F4021282607047014600208A6802F430
:102E900000120AB1012000E000207047F0B504469E
:102EA0001546002000220026092911DDE068A1F165
:102EB0000A0707EB470C072707FA0CF29043A1F12A
:102EC0000A0707EB470703FA07F21043E0600CE03C
:102ED000206901EB410C072707FA0CF2904301EB44
:102EE000410703FA07F210432061A06BC0F30156BB
:102EF000EF1C06F1010CA7EB0C0707EB870C1F2753
:102F000007FA0CF29043EF1C06F1010CA7EB0C073B
:102F100007EB870701FA07F21043A063F0BD10B575
:102F20000A4600210023816B21F44011531E41EA1F
:102F30000351816310BD08B5002300930090009BEE
:102F40000B440093009B1A6008BD08B502460020A0
:102F50000090009201F12800009B18440090009816
:102F6000006880B208BD0A4600214168164B19402E
:102F70001143416070474162826270470A460021F6
:102F8000416821F01F0111434160704740B1094978
:102F90000831096841F40001064A0832116007E06F
:102FA00004490831096821F40001024A083211601D
:102FB000704700000024014000280140003C01400F
:102FC000FFFEF0FFFDF7F1FFFFFD3FFF024600208F
:102FD00013680B400BB1012000E000207047CA438A
:102FE0000260704770B502460020002300240B12D7
:102FF0005568CEB205EA060415681D4015B10CB13E
:10300000012000E0002070BD00220A12D3430360BB
:103010007047000010B50446CC48844208D1012115
:10302000042000F04DFB0021042000F049FB46E0A5
:10303000C748844208D10121082000F041FB00214B
:10304000082000F03DFB3AE0C248844208D101214B
:10305000102000F035FB0021102000F031FB2EE0A5
:10306000BD48844208D10121202000F029FB002125
:10307000202000F025FB22E0B848844208D101213D
:10308000402000F01DFB0021402000F019FB16E05D
:10309000B348844208D10121802000F011FB0021B7
:1030A000802000F00DFB0AE0AE48844207D10121E8
:1030B000801500F005FB0021A01500F001FB10BDFC
:1030C00010B50121084600F0FBFA0021012000F0B4
:1030D000F7FA10BD2DE9F041024600250026002038
:1030E00000230024002791F803C00CF00F0591F88D
:1030F00003C00CF0100CBCF1000F03D091F802C01B
:103100004CEA050591F800C0BCF1000F31D01468FD
:1031100000202BE04FF0010C0CFA00F3B1F800C0D6
:103120000CEA03069E4220D183004FF00F0C0CFAEC
:1031300003F7BC4305FA03FC4CEA040491F803C00E
:10314000BCF1280F06D14FF0010C0CFA00FCC2F8BC
:1031500014C00AE091F803C0BCF1480F05D14FF04C
:10316000010C0CFA00FCC2F810C0401C0828D1D396
:103170001460B1F800C0BCF1FF0F34DD54680020CA
:103180002EE000F1080C4FF0010808FA0CF3B1F83A
:1031900000C00CEA03069E4221D183004FF00F0CC1
:1031A0000CFA03F7BC4305FA03FC4CEA040491F85B
:1031B00003C0BCF1280F05D100F1080C08FA0CF887
:1031C000C2F8148091F803C0BCF1480F07D100F198
:1031D000080C4FF0010808FA0CF8C2F81080401CE7
:1031E0000828CED35460BDE8F0814FF6FF7101800E
:1031F000022181700421C17070470246002093684B
:103200000B400BB1012000E00020704701468868A8
:1032100080B2704702460020D3680B400BB10120FA
:1032200000E0002070470146C86880B27047016125
:103230007047416170470AB1016100E04161704728
:10324000C16070474FF480320A43826181618261BC
:1032500082698269704702460020434B18684FF626
:103260008073184040EA021008433F4B18607047D3
:103270003E49C8617047F0B50A460023002400218A
:10328000002500F00046B6F1004F02D1364EF1693C
:1032900001E0354E7168C0F3034583B200F4401677
:1032A000B6F5401F08D121F070612F4E766826F0E8
:1032B00070662D4F7E6012E000F48016B6F5801F18
:1032C00006D1032606FA05F4A14341F0706106E039
:1032D000460D360103FA06F6B14341F0706122B1A2
:1032E000460D360103FA06F6314300F00046B6F10A
:1032F000004F02D11C4EF16101E01B4E7160F0BD28
:1033000030B500228B071C0F0F2303FA04F2164B73
:1033100008338C1053F824309343134C08348D1029
:1033200044F8253023468C1053F824308C07240FA2
:1033300000FA04F423430C4C08348D1044F8253073
:1033400030BD0A49DC3108607047000000080140C8
:10335000000C014000100140001401400018014021
:10336000001C0140002001400000014000002042FC
:103370000E49086070470D49486070470B498860E6
:1033800070474AF6AA200949086070474CF6CC40BD
:1033900006490860704701460020044AD2680A4086
:1033A0000AB1012000E0002070470000003000401A
:1033B000DF48006840F00100DD49086008464068C9
:1033C000DC490840DA49486008460068DA490840A4
:1033D000D74908600846006820F480200860084645
:1033E000406820F4FE0048604FF41F00886070477A
:1033F000CF49096821F48031CD4A1160114609682E
:1034000021F480211160B0F5803F03D0B0F5802F0A
:103410000ED106E0C649096841F48031C44A116002
:1034200007E0C349096841F4A021C14A116000E0E6
:1034300000BF00BF704710B50146002200230020E6
:103440004A11012A02D1BA4C236806E0022A02D1AD
:10345000B74C236A01E0B64C636A01F01F020124F5
:1034600094401C400CB1012000E0002010BD38B594
:10347000002000900024002500BF3120FFF7DBFF73
:1034800005460098401C00900098B0F5A06F01D050
:10349000002DF2D03120FFF7CEFF08B1012400E06B
:1034A0000024204638BD01460020A14A106820F0C3
:1034B000F80040EAC10010607047A04908607047FA
:1034C000024600209A4B586820F47C1042EA01031F
:1034D0001843974B586070479849086670470146F3
:1034E0000020934A506820F0030008435060704762
:1034F0008F48406800F00C007047014600208C4A5D
:10350000506820F0F00008435060704701460020EA
:10351000874A506820F4E0600843506070470146D5
:103520000020834A506820F4605040EAC100506097
:10353000704729B17E4A527A02437D4B5A7204E0A9
:103540007B4A527A82437A4B5A7270477B49D83110
:103550000860704701460020754A506820F44040DA
:103560000843506070470021714A20321170704A40
:1035700082F82010012802D004280AD104E0012199
:103580006B4A2032117005E00521694A2032117022
:1035900000E000BF00BF7047694908607047644998
:1035A000096A0143624A11627047654944390860FB
:1035B000704730B500210022002400235C4D6D6867
:1035C00005F00C0121B1042905D0082923D105E01B
:1035D0005C4D056022E05B4D05601FE0544D6D6859
:1035E00005F47012524D6D6805F48034022505EB28
:1035F00092421CB9544D554305600BE04C4D6D682B
:1036000005F400351DB1504D5543056002E04D4DA8
:103610005543056002E04B4D056000BF00BF444DBF
:103620006D6805F0F0010909484D6B5C0568DD40E7
:1036300045603F4D6D6805F4E061090A434D6B5CE0
:103640004568DD4085603A4D6D6805F46051C90AF2
:103650003E4D6B5C4568DD40C560354D6D6805F4D9
:103660004041890B3A4D6B5CC568B5FBF3F50561CC
:1036700030BD29B12E4A526902432D4B5A6104E0F4
:103680002B4A526982432A4B5A61704729B1284A12
:1036900092690243264B9A6104E0254A926982436B
:1036A000234B9A61704729B1214AD2690243204BCA
:1036B000DA6104E01E4AD26982431D4BDA61704729
:1036C00029B11B4AD2680243194BDA6004E0184A58
:1036D000D2688243164BDA60704729B1144A1269E6
:1036E0000243134B1A6104E0114A12698243104BE2
:1036F0001A61704712494039086070470F49C86421
:1037000070470B49C87170470948406A40F08070A3
:1037100007494862704701460020054A92680A40FE
:103720000AB1012000E0002070470149887270470B
:10373000001002400000FFF8FFFFF6FE00004242CA
:103740008004424200127A0000093D00142100204A
:103750002421002010B50446FE48844208D10121EE
:10376000C014FFF7ADFF0021E014FFF7A9FFC4E08C
:10377000B4F1804F08D101210846FFF7AEFF0021C8
:103780000120FFF7AAFFB8E0F348844208D10121E5
:103790000220FFF7A2FF00210220FFF79EFFACE00E
:1037A000EE48844208D101210420FFF796FF002152
:1037B0000420FFF792FFA0E0E948844208D10121EC
:1037C0000820FFF78AFF00210820FFF786FF94E01A
:1037D000E448844208D101211020FFF77EFF002138
:1037E0001020FFF77AFF88E0DF48844208D10121EA
:1037F0002020FFF772FF00212020FFF76EFF7CE002
:10380000DA48844208D101214014FFF759FF002112
:103810006014FFF755FF70E0D548844209D10121BB
:10382000C804FFF74DFF00214FF40020FFF748FFC9
:1038300063E0D048844209D101210805FFF740FF29
:1038400000214FF48010FFF73BFF56E0CA48844246
:1038500009D101214805FFF733FF00214FF4001083
:10386000FFF72EFF49E0C548844208D101214020DE
:10387000FFF733FF00214020FFF72FFF3DE0C04856
:10388000844208D101218020FFF727FF00218020FA
:10389000FFF723FF31E0BB48844208D101218015A6
:1038A000FFF71BFF0021A015FFF717FF25E0B64823
:1038B000844209D101210804FFF702FF00214FF4DF
:1038C0008030FFF7FDFE18E0B048844209D10121A5
:1038D0004804FFF7F5FE00214FF40030FFF7F0FE3B
:1038E0000BE0AB48844208D101218804FFF7E8FED1
:1038F00000214FF48020FFF7E3FE10BD0022028874
:10390000944B98420ED0994B98420BD0B0F1804F17
:1039100008D0914B984205D0904B984202D0904BE2
:10392000984204D14FF68F731A404B881A438D4B3F
:10393000984207D08C4B984204D04FF6FF431A4070
:10394000CB881A4302808B8883850B880385814B43
:1039500098420BD0854B984208D08B4B984205D0AB
:103960008A4B984202D08A4B984201D10B7A038647
:1039700001238382704770B5002400220023058C48
:103980004FF6FE7635400584028C8388048B4FF613
:103990008F752C40B51E2C400D882C43751E2A4077
:1039A0000D892A434D882A436A4DA8420BD06F4D9A
:1039B000A84208D0744DA84205D0744DA84202D048
:1039C000734DA84213D14FF6F7752A404D892A430B
:1039D0004FF6FB752A408D882A434FF6FF652B4032
:1039E0004FF6FF552B408D892B43CD892B43838088
:1039F0000483CD888586028470BD70B500240022C2
:103A00000023058C4FF6EF7635400584028C8388C1
:103A1000048B48F6FF752C404FF6FF452C400D886F
:103A20004FF6FF7606EA05252C434FF6DF752A4050
:103A30000D8906EA05152A434D8806EA05152A432D
:103A4000444DA84202D0494DA8421DD14FF67F7582
:103A50002A404D894FF6FF7606EA05152A434FF6B0
:103A6000BF752A408D8806EA05152A434FF6FF35B3
:103A70002B404FF2FF752B408D8906EA85052B43BD
:103A8000CD8906EA85052B4383800483CD8805878D
:103A9000028470BD70B5002400220023058C4FF60F
:103AA000FF6635400584028C8388848B4FF68F75C2
:103AB0002C404FF6FC752C400D882C434FF6FF55DB
:103AC0002A400D894FF6FF7606EA05252A434D88E0
:103AD00006EA05252A431F4DA84202D0234DA842DD
:103AE0001DD14FF2FF752A404D894FF6FF7606EA49
:103AF00005252A434FF6FF352A408D8806EA05251D
:103B00002A434EF6FF752B404DF6FF752B408D89ED
:103B100006EA05152B43CD8906EA05152B4383805C
:103B20008483CD888587028470BD70B50022002310
:103B30000024058C4EF6FF7635400584038C84887E
:103B4000828B48F6FF752A404FF6FF452A400D88C4
:103B500020E00000002C014000040040000800406C
:103B6000000C0040001000400014004000340140F0
:103B7000004C01400050014000540140001800403A
:103B8000001C004000200040004001400044014073
:103B9000004801404FF6FF7606EA05252A434DF618
:103BA000FF752B400D8906EA05352B434D8806EA43
:103BB00005352B43FA4DA84202D0FA4DA84208D150
:103BC0004BF6FF752C408D894FF6FF7606EA85157A
:103BD0002C4384808283CD88A0F84050038470BD3C
:103BE000828B4FF2FF331A408283828B4FF6FF7332
:103BF00003EA01231A4382837047F0B50C46154649
:103C0000002200210026078C4EF6FF7C07EA0C07F5
:103C10000784828B018C4FF6FF7707EA043640F663
:103C2000FF473A404FF6FF7707EA05273A434FF63A
:103C3000FF7707EA03373A43D94FB8420ED0D94F3E
:103C4000B8420BD0B0F1804F08D0D74FB84205D062
:103C5000D64FB84202D0D64FB84206D14DF6FF77C4
:103C6000394046F48057394305E047F6FF5739405D
:103C700044F48057394382830184F0BD828B4FF630
:103C8000F3731A408283828B0A4382837047F0B5B4
:103C90000C461546002200210026078C4FF6FF6CCB
:103CA00007EA0C070784828B018C4FF6FF7707EA3F
:103CB00004264FF60C773A404FF6FF7707EA0317D2
:103CC0002F433A43B64FB8420ED0B64FB8420BD04E
:103CD000B0F1804F08D0B44FB84205D0B34FB842CE
:103CE00002D0B34FB84206D14FF6FF57394046F4E1
:103CF0008077394305E04FF2FF57394044F480772D
:103D0000394382830184F0BD028B4FF2FF331A40A6
:103D10000283028B4FF6FF7303EA01231A430283E7
:103D20007047F0B50C461546002200210026078C8E
:103D30004FF6EF7C07EA0C070784028B018C4FF6E5
:103D4000FF7707EA041640F6FF473A404FF6FF7741
:103D500007EA03373A434FF6FF7707EA05273A4366
:103D60008F4FB8420ED08F4FB8420BD0B0F1804F7A
:103D700008D08D4FB84205D08C4FB84202D08C4F3E
:103D8000B84206D14FF6DF77394046F01007394385
:103D900005E04FF65F77394044F01007394302835E
:103DA0000184F0BD028B4FF6F3731A400283028B3D
:103DB0000A4302837047F0B50C46154600220021E5
:103DC000068C4FF6FE773E400684028B018C4FF640
:103DD0000C7632407E1C06EA03162E433243704EA8
:103DE000B0420ED06F4EB0420BD0B0F1804F08D031
:103DF0006D4EB04205D06D4EB04202D06C4EB04216
:103E000006D14FF6FD76314044F00106314305E01E
:103E10004FF6F576314044F00106314302830184C8
:103E2000F0BD70B505460C465D4885420ED05D4834
:103E300085420BD0B5F1804F08D05B48854205D054
:103E40005A48854202D05A48854200D100E000BF5E
:103E5000208850B92389A28861882846FFF7ABFFE4
:103E6000E1882846FFF79EFF25E0208804280AD134
:103E70002389A28861882846FFF753FFE1882846F6
:103E8000FFF742FF17E0208808280AD12389A2887B
:103E900061882846FFF7FBFEE1882846FFF7EEFE23
:103EA00009E02389A28861882846FFF7A6FEE188F9
:103EB0002846FFF795FE70BD2DE9F04105460C46FA
:103EC00000260127608808B9022600E00026A088A5
:103ED000012801D1022700E001272088A0B9238909
:103EE000A28861882846FFF766FFE1882846FFF729
:103EF00059FF23893A4631462846FFF712FFE188E9
:103F00002846FFF701FF13E02389A288618828462D
:103F1000FFF707FFE1882846FFF7F6FE23893A46B8
:103F200031462846FFF747FFE1882846FFF73AFF6A
:103F3000BDE8F0810A884B881A438B881A43CB88E6
:103F40001A430B891A434B891A438B891A43A0F8E9
:103F5000442070474FF6FF71818000210180C180AD
:103F60004180017270470021018041808180C180C1
:103F7000018141818181C18170470021018041809F
:103F8000012181800021C1800181704700210180D1
:103F900041808180C1800181418181817047000021
:103FA000002C0140003401400004004000080040A3
:103FB000000C004021B1028842F00102028004E0BE
:103FC00002884FF6FE731A400280704731B1B0F894
:103FD000442042F40042A0F8442005E0B0F8442018
:103FE000C2F30E02A0F8442070471AB183890B4334
:103FF000838102E083898B4383817047818270478C
:1040000041EA0203A0F8483070471AB183890B4394
:10401000838102E083898B438381704701894FF656
:10402000F8721140018170470A46002101894FF65C
:104030008F73194011430181704730B504460D4616
:1040400029462046FFF7F0FF208940F00700208135
:1040500030BD2DE9F04104460D4616461F46602D41
:1040600006D13B46012231462046FFF75AFE05E0C5
:104070003B46012231462046FFF79DFE2946204659
:10408000FFF7D2FF208940F007002081BDE8F081D2
:1040900030B50C4600210189C9B24FF6FF7505EA1B
:1040A0000325154325432943018130BD2DE9F04106
:1040B00005460E4617469846002443463A46314682
:1040C0002846FFF7E5FF2C894FF6F870044044F0CE
:1040D00007044FF68F70044044F070042C81BDE853
:1040E000F081F0B504460D4616461F463B46324663
:1040F00029462046FFF7CCFF208940F480402081EC
:10410000F0BD0185828270470A46002101884FF682
:104110008F731940114301807047F0B50C46154666
:104120001E460021002200230189028B038C4FF6DA
:10413000F877394021434FF6FC473A4040F20117E7
:104140003A434FF6DD773B404FF6FF7707EA061715
:104150002F433B43018102830384F0BD0A460021C3
:10416000018B4FF68F7319401143018370470A4644
:104170000021018B48F6FF7319404FF6FF7303EAE5
:1041800002231943018370470A460021818B4FF6B1
:104190008F7319401143818370470A460021818B38
:1041A00048F6FF7319404FF6FF7303EA02231943E1
:1041B0008183704721B1028842F08002028004E0CE
:1041C00002884FF67F731A400280704721B18288BF
:1041D00042F00402828004E082884FF6FB731A40AA
:1041E0008280704721B1828842F00802828004E018
:1041F00082884FF6F7731A408280704721B1828817
:1042000042F00102828004E082884FF6FE731A4079
:10421000828070470A460021018B4FF6F7731940E0
:104220001143018370470A460021018B4FF2FF734F
:1042300019404FF6FF7303EA0223194301837047C5
:104240000A460021818B4FF6F77319401143818391
:1042500070470A460021818B4FF2FF7319404FF6D9
:10426000FF7303EA02231943818370470A46002142
:10427000018B4FF6FB7319401143018370470A46C7
:104280000021018B4FF6FF3319404FF6FF7303EA0D
:1042900002231943018370470A460021818B4FF6A0
:1042A000FB7319401143818370470A460021818BBB
:1042B0004FF6FF3319404FF6FF7303EA0223194309
:1042C000818370470A460021018B4FF67F731940A6
:1042D0001143018370470A460021018BC1F30E018F
:1042E0004FF6FF7303EA02231943018370470A461E
:1042F0000021818B4FF67F731940114381837047F2
:104300000A460021818BC1F30E014FF6FF7303EAC9
:1043100002231943818370470A460021018C4FF61E
:10432000FD7319401143018470470A460021018C36
:104330004FF6F77319401143018470470A46002174
:10434000018C4FF6DF7319404FF6FF7303EA021337
:104350001943018470470A460021018C4FF67F7390
:1043600019404FF6FF7303EA0213194301847047A3
:104370000A460021018C4FF6FF5319404FF6FF7398
:1043800003EA02231943018470470A460021018C85
:104390004FF2FF7319404FF6FF7303EA02231943EC
:1043A000018470470A460021018C4DF6FF731940C5
:1043B0004FF6FF7303EA023319430184704730B5A7
:1043C000002301248C40A3B2048C9C430484048CFD
:1043D00002FA01F5ADB22C43048430BD30B50023A0
:1043E00004248C40A3B2048C9C430484048C02FA01
:1043F00001F5ADB22C43048430BD70B503460020F6
:1044000000241846183001258D40ACB21D8CA54300
:104410001D8409B1082909D100EB6100056825F068
:10442000700505600568154305600EE00D1FC5F3B6
:104430004E052844056825F4E045056005684FF6FB
:10444000FF7606EA02263543056070BD21B1028879
:1044500042F00202028004E002884FF6FD731A4027
:104460000280704721B1028842F00402028004E019
:1044700002884FF6FB731A400280704721B1828890
:1044800042F08002828004E082884FF67F731A40F7
:104490008280704702884FF6F7731A4002800288C4
:1044A0000A430280704782884FF68F731A408280D9
:1044B00082880A438280704702894FF6F8731A4057
:1044C000028102890A430281704702894FF67F7395
:1044D0001A40028102890A43028170478184704731
:1044E0008185704781867047018770478187704753
:1044F000A0F84010704702884FF6FF431A40028030
:1045000002880A43028070470146888E7047014640
:10451000088F70470146888F70470146B1F8400008
:1045200070470146888C70470146088D70470246E7
:104530000020138A0B400BB1012000E000207047DF
:10454000CA430282704730B502460020002300248F
:10455000158A05EA0103958905EA010413B10CB136
:10456000012000E0002030BDCA43028270470000F5
:1045700010B50446FB48844209D101218803FFF7A6
:104580009FF800214FF48040FFF79AF832E0F64898
:10459000844209D101214804FFF79FF800214FF41C
:1045A0000030FFF79AF825E0F048844209D1012154
:1045B0008804FFF792F800214FF48020FFF78DF870
:1045C00018E0EB48844209D10121C804FFF785F8BF
:1045D00000214FF40020FFF780F80BE0E54884420B
:1045E00008D101210805FFF778F800214FF4801069
:1045F000FFF773F810BD2DE9F04786B005460E466B
:104600000024A24600BFA1460027B08900B100BF28
:104610002F462C8A4CF6FF700440F08804432C820D
:10462000AC894EF6F3100440B08831890843718993
:1046300008430443AC81AC8A4FF6FF400440B08984
:104640000443AC8201A8FEF7B4FFC648874202D1FA
:10465000DDF810A001E0DDF80CA0A88900F400400E
:1046600040B10AEBCA0000EB0A1031684900B0FB08
:10467000F1F807E00AEBCA0000EB0A103168890084
:10468000B0FBF1F86420B8FBF0F0040120096421CC
:1046900001FB1089A88900F4004040B1322000EBF2
:1046A000C900B0FBF1F000F00700044308E032203D
:1046B00000EB09106421B0FBF1F000F00F0004439F
:1046C0002C8106B0BDE8F0874FF41651016000213F
:1046D0008180C18001810C2141810021818170474D
:1046E00010B502460020108A4FF2FF0318400B88D5
:1046F0004C8823438C882343CC882343184310825F
:1047000010BD0021018041808180C180704721B1AE
:10471000828942F40052828104E082894DF6FF735F
:104720001A4082817047F0B5034600240026002518
:10473000002040F66A17B94200D100BF1846C1F305
:10474000421401F01F06012707FA06F5012C01D1DA
:104750000C3004E0022C01D1103000E014301AB10A
:1047600007682F43076002E00768AF430760F0BDAA
:104770001AB1838A0B43838202E0838A8B4383824C
:104780007047028A4FF6F0731A400282028A0A4387
:104790000282704782894FF2FF731A4082818289B8
:1047A0000A438281704721B1828942F002028281EC
:1047B00004E082894FF6FD731A4082817047028AB5
:1047C0004FF6DF731A400282028A0A430282704760
:1047D00021B1028A42F48042028204E0028A4BF64E
:1047E000FF731A4002827047C1F30802828070474B
:1047F00001468888C0F308007047818941F00101B3
:1048000081817047028BD2B20283028B42EA01227D
:1048100002837047028B02F47F420283028B0A43B9
:104820000283704721B1828A42F02002828204E032
:10483000828A4FF6DF731A408282704721B1828AE2
:1048400042F01002828204E0828A4FF6EF731A402F
:104850008282704721B1828A42F00802828204E09B
:10486000828A4FF6F7731A408282704721B182899B
:1048700042F40042828103E08289C2F30E02828107
:10488000704721B1828A42F40062828204E0828A07
:104890004FF2FF731A4082827047828A4FF6FB7391
:1048A0001A408282828A0A438282704721B1828AB8
:1048B00042F00202828204E0828A4FF6FD731A40BF
:1048C0008282704702460020B1F5007F00D100BF10
:1048D00013880B400BB1012000E00020704701F469
:1048E0000072B2F5007F00D100BFCA43028070475A
:1048F00070B50246002400230025002040F66A1609
:10490000B14200D100BFC1F3421501F01F030126DF
:1049100006FA03F3012D02D19689334006E0022DF9
:1049200002D1168A334001E0968A33400C120126E8
:1049300006FA04F41688344013B10CB1012000E0EB
:10494000002070BD10B50022002340F66A14A14279
:1049500000D100BF0A1201249440A3B2DC430480BA
:1049600010BD0000003801400044004000480040F5
:10497000004C00400050004001460020FE4A1068F4
:1049800000F03800084310607047FB49096821F0C7
:104990000801F94A11601146096801431160704726
:1049A000F549096821F01001F34A116011460968C0
:1049B000014311607047F148EF494860F048486092
:1049C0007047EE48EC494860ED4848607047EA4857
:1049D000006940F08000E84908617047E6480069D6
:1049E00040F08000E449086170470420E249C9684A
:1049F00001F0010109B101200EE0DF49C96801F0B1
:104A0000040109B1022007E0DB49C96801F0100187
:104A100009B1032000E00420704700B502460423DA
:104A2000FFF7E3FF034603E0FFF7DFFF0346521EF5
:104A3000012B01D1002AF7D102B90523184600BD88
:104A400030B5044604254FF43020FFF7E6FF054655
:104A5000042D17D1C848006940F00200C64908611A
:104A600008464461006940F0400008614FF430207E
:104A7000FFF7D3FF0546C048006941F6FD710840C5
:104A8000BD490861284630BD10B504244FF43020DC
:104A9000FFF7C3FF0446042C16D1B748006940F065
:104AA0000400B54908610846006940F0400008610B
:104AB0004FF43020FFF7B1FF0446AF48006941F6DC
:104AC000FB710840AC490861204610BD00B50246A4
:104AD0000423FFF78AFF034603E0FFF786FF034640
:104AE000521E012B01D1002AF7D102B90523184625
:104AF00000BD10B504244FF43020FFF7E7FF044653
:104B0000042C16D19C48006940F004009A490861C1
:104B10000846006940F0400008614FF43020FFF77C
:104B2000D5FF04469448006941F6FB71084092495C
:104B30000861204610BD00208F49C96901F00201BB
:104B400009B1012000E00020704730B5A5250424FC
:104B5000FFF7F1FF00B100254FF43020FFF75DFFB4
:104B60000446042C3AD1854883498860844888608B
:104B70000846006940F0200008610846006940F0DE
:104B8000400008614FF43020FFF747FF0446042C33
:104B90001BD17948006941F6DF7108407649086108
:104BA0000846006940F01000086176480580E00280
:104BB000FFF733FF0446052C10D06F48006941F61B
:104BC000EF7108406C49086108E0052C06D06A487E
:104BD000006941F6EF71084067490861204630BD21
:104BE00078B506460C46042500200090E802FFF741
:104BF00014FF0546042D24D15F48006940F00100F0
:104C00005D4908613480E802FFF707FF0546042D7F
:104C100010D1B01C0090200C00990880E802FFF72A
:104C2000FCFE05465448006941F6FE7108405249B1
:104C3000086106E05048006941F6FE7108404E499F
:104C40000861284678BD70B504460D460426F0027A
:104C5000FFF7E3FE0646042E11D14748006940F0F5
:104C60000100454908612580F002FFF7D6FE06469F
:104C70004148006941F6FE7108403F4908613046ED
:104C800070BD70B505460E460424E002FFF7C5FE70
:104C90000446042C17D13948374988603848886061
:104CA0000846006940F0100008612E80E002FFF71E
:104CB000B4FE0446052C06D02F48006941F6EF717A
:104CC00008402D490861204670BD2DE9F043044697
:104CD0004FF6FF763746B046B1460425E443E6B2C8
:104CE000C4F30727C4F307484FEA1469E802FFF743
:104CF00094FE0546042D49D120481F49886020486C
:104D000088600846006940F010000861FF2E06D058
:104D10001C4808300680E802FFF77FFE0546042D98
:104D200008D1FF2F06D017480A300780E802FFF7A6
:104D300074FE0546042D0AD1B8F1FF0F07D01148C3
:104D40000C30A0F80080E802FFF767FE0546042D4E
:104D50000AD1B9F1FF0F07D00A480E30A0F8009031
:104D6000E802FFF75AFE0546052D0FD002480069FC
:104D700041F6EF71084007E000200240230167453B
:104D8000AB89EFCD00F8FF1F664908612846BDE8F2
:104D9000F08330B5054604244FF43020FFF73DFE84
:104DA0000446042C41D160485E4988605F488860B1
:104DB0000846006940F0200008610846006940F09C
:104DC000400008614FF43020FFF727FE0446042C12
:104DD00022D15448006941F6DF7108405149086109
:104DE0000846006940F0100008611DB100205049DC
:104DF000088002E0A5204E4908804FF43020FFF7DC
:104E00000CFE0446052C10D04648006941F6EF71AF
:104E100008404449086108E0052C06D04148006973
:104E200041F6DF7108403F490861204630BDF0B5CA
:104E300005460E46174604243B483A4988603B48DD
:104E40008860E002FFF7E9FD0446042C19D13548DB
:104E5000006940F010003349086147F0F800304322
:104E600028433349891C0880E002FFF7D6FD044639
:104E7000052C06D02B48006941F6EF7108402949FE
:104E800008612046F0BD2748C06980087047254862
:104E9000006A704700202349096801F0200109B128
:104EA000012000E00020704729B11E4A1269024328
:104EB0001C4B1A6104E01B4A12698243194B1A61A8
:104EC000704701460020012908D1164AD26902F034
:104ED00001020AB1012008E0002006E0114AD26870
:104EE0000A400AB1012000E0002070470D49C86067
:104EF000704704200B49C96801F0010109B1012084
:104F00000EE00849C96801F0040109B1022007E078
:104F10000449C96801F0100109B1032000E0042030
:104F2000704700000020024023016745AB89EFCDA8
:104F300000F8FF1F0CB50020019000906C4800683D
:104F400040F480306A49086000BF6948006800F496
:104F5000003000900198401C0190009818B9019809
:104F6000B0F5A06FF1D16248006800F4003010B1D4
:104F70000120009001E0002000900098012843D11A
:104F80005C48006840F010005A4908600846006814
:104F900020F0030008600846006840F00200086046
:104FA000534840685249486008464068486008468F
:104FB000406840F4806048600846406820F47C10F7
:104FC00048600846406840F4E810486008460068B9
:104FD00040F08070086000BF4548006800F0007035
:104FE0000028F9D04248406820F00300404948605A
:104FF0000846406840F00200486000BF3C484068F6
:1050000000F00C000828F9D10CBD10B5FFF792FF95
:1050100010BD10B53648006840F001003449086002
:1050200008464068344908403149486008460068ED
:10503000324908402E4908600846006820F4802064
:1050400008600846406820F4FE0048604FF41F00E6
:105050008860FFF7DAFF4FF000602949086010BD53
:1050600010B5002100200022214B5B6803F00C01E9
:1050700021B1042906D0082928D107E0214B224C70
:10508000236027E01F4B204C236023E0184B5B6814
:1050900003F47010164B5B6803F48032022303EBB9
:1050A000904022B9194B4343174C23600DE0104B3D
:1050B0005B6803F4003323B1144B4343124C236069
:1050C00003E0104B4343104C236003E00D4B0E4CA8
:1050D000236000BF00BF064B5B68C3F303130C4C97
:1050E000E15C094B1B68CB40074C236010BD0000FE
:1050F00000100240002002400000FFF8FFFFF6FE13
:1051000008ED00E000127A002821002000093D008F
:105110002C2100200948804709480047FEE7FEE7A8
:10512000FEE7FEE7FEE7FEE7FEE7FEE7FEE7FEE757
:1051300004480549054A064B704700001350000813
:1051400031010008682A002068300020682C002007
:10515000682C00204168491C4160D0E9012191423E
:1051600003D10121016000214160704700B526484C
:10517000006878B30020244908602448FFF7EAFF5C
:105180002348FFF7E7FF2348FFF7E4FF2248FFF734
:10519000E1FF2248FFF7DEFF2148FFF7DBFF214850
:1051A000FFF7D8FF2048FFF7D5FF2048FFF7D2FFD1
:1051B0001F48FFF7CFFF1F48FFF7CCFF1E48FFF740
:1051C000C9FF1E48FFF7C6FF1D48FFF7C3FF1D4874
:1051D000FFF7C0FF00BD10B500240460446081608B
:1051E000C26065241C7010BD10B5002404604460CA
:1051F0008160C26064241C7010BD0268012A01D164
:10520000027B0A70704700003C21002054250020DA
:10521000642500207425002084250020942500208A
:10522000A4250020B4250020C4250020D42500207A
:10523000E4250020F4250020042600201426002068
:1052400024260020342600200120F7490870F74961
:105250000870F7490870F7490870F7490870F7496E
:105260000870F7490870F7490870F7490870F7495E
:105270000870F7490870F7490870F7490870F7494E
:105280000870F74908700020F649C87001200870BE
:10529000487000208870704770B506460C46154669
:1052A0002078342837D007DC082871D2DFE800F0F6
:1052B000E5154357728AABBA38286AD006DC352820
:1052C00046D0362858D0372862D16FE0642877D08E
:1052D000652876D0C828F7D1CEE0A87C012819D15E
:1052E000E1480078012815D10020A8744FF400612E
:1052F000DE48FDF79CFF4FF48051DC48FDF799FF35
:105300000020DB498874234634224FF4FA7130467A
:10531000FFF76AFFB2E0D648807C01280AD1C102BB
:10532000D248FDF786FF234602224FF4167130461D
:10533000FFF75AFFA2E04FF40041CC48FDF777FF9A
:10534000234635224FF416713046FFF74DFF95E0A6
:105350002346032202213046FFF746FF8EE04FF43A
:105360008061C248FDF763FF234636224FF4167171
:105370003046FFF739FF81E04FF48041BB48FDF72D
:1053800056FF2346042202213046FFF72DFF75E029
:1053900073E02EE04FF48061B448FDF748FF2346E8
:1053A000072203213046FFF71FFF67E00020B149C5
:1053B00088742346052202213046FFF715FF5DE081
:1053C00050E054E0AB48807C012811D12021AA484C
:1053D000FDF72FFF0421A848FDF729FF0020A7496A
:1053E0008874234638224FF416713046FFF7FCFECE
:1053F00044E00020A1498874234606220221304659
:10540000FFF7F2FE3AE09D48807C012809D1042193
:105410009948FDF70EFF2346072202213046FFF789
:10542000E3FE2BE0002090490870012094490870A9
:10543000002094498874944988749448007801281D
:1054400006D193A001F0D4FA00209049087002E040
:1054500091A001F0CDFA2346012202213046FFF748
:10546000C3FE0BE021463046FFF7C7FE06E02146AB
:105470003046FFF7C2FE01E000E000BF00BF70BD94
:1054800070B506460D4614462878092870D007DC0A
:105490006FD2DFE800F06E162C334047545B70008B
:1054A000642867D006DC0A2876D00B2875D014282B
:1054B0005FD1A3E0652871D0662870D0C828F7D1E5
:1054C00013E1A07C012811D16D48007801280DD18D
:1054D0000020A0744FF480416448FDF7AAFE2B46DB
:1054E00002224FF416713046FFF77EFEFFE02B4696
:1054F000032202213046FFF777FEF8E04FF4806187
:105500005A48FDF796FE2B4604224FF4167130469A
:10551000FFF76AFEEBE02B46052202213046FFF73B
:1055200063FEE4E04FF400415048FDF782FE2B4655
:1055300006224FF416713046FFF756FED7E02B4691
:10554000072202213046FFF74FFED0E04FF4805192
:105550004648FDF76CFE4FF400614448FDF769FED4
:105560002B4608224FF416713046FFF73DFEBEE091
:1055700016E0BBE098E04FF400613C48FDF759FEAF
:105580004FF480513948FDF754FE2B461422022176
:105590003046FFF729FEAAE017E020E089E08DE021
:1055A0003F48807C01280FD101033048FDF741FEC0
:1055B0004FF400712D48FDF73AFE2B460A224FF4B6
:1055C00016713046FFF710FE91E0002035498874CF
:1055D0002B460B2202213046FFF706FE87E03148BA
:1055E000807C012809D141022048FDF722FE2B468C
:1055F000142202213046FFF7F7FD78E001201A4916
:10560000087000201E490870A0741E4988741E4945
:1056100088741FA001F0ECF92B46012202213046CC
:10562000FFF7E2FD63E0000040210020412100205F
:105630004221002043210020442100204521002058
:105640004621002047210020482100204921002038
:105650004A2100204B2100204C2100204D21002018
:105660004E210020552100205A2100200020014019
:1056700084290020E428002000140140242900206F
:105680005921002044260020642600205B210020B0
:105690006F6B0D0A0000000072656164790D0A00ED
:1056A00084280020C428002029463046FFF7A5FDA5
:1056B0001DE029463046FFF7A0FD18E04FF40071C9
:1056C000F748FDF7B6FD4FF48071F648FDF7AFFDE2
:1056D0004FF48071F248FDF7ACFD2B4602224FF4E7
:1056E000FA713046FFF780FD01E000E000BF00BF27
:1056F00070BD70B506460D4614462878642827D03C
:1057000006DC01280BD002281AD0062844D11EE05E
:10571000652822D066282AD0C8283DD13BE0A07C4D
:10572000012805D10020A0740120DF49087006E09F
:10573000207D012803D100202075DB4908702CE072
:105740002B460B2205213046FFF74EFD25E024E0D5
:1057500029463046FFF751FD1FE029463046FFF746
:105760004CFD207F012801D16620287015E0102112
:10577000CE48FDF75EFD2021CC48FDF758FD0821FD
:10578000CA48FDF756FD2B4602224FF4FA71304607
:10579000FFF72AFD01E000E000BF00BF70BD70B55B
:1057A00006460C461546207865281DD004DC0128E5
:1057B00007D0642838D112E066281FD0C82833D11A
:1057C00031E0A87C012809D10020A874FCF724F955
:1057D0002346012202213046FFF706FD25E021463F
:1057E0003046FFF70AFD20E021463046FFF705FD71
:1057F000287F012801D16620207016E00121AB48E6
:10580000FDF717FD0221A948FDF711FD4FF4805166
:10581000A348FDF70EFD234602224FF4FA713046ED
:10582000FFF7E2FC01E000E000BF00BF70BD70B513
:1058300006460C4615462078012806D0642815D067
:10584000652818D0C8281CD11AE0A87C01280CD1E2
:105850000020A874FCF7CEFFFCF7F2FE23460122DD
:1058600040F252313046FFF7BFFC0BE02146304694
:10587000FFF7C3FC06E021463046FFF7BEFC01E01F
:1058800000E000BF00BF70BD70B506460D4614466F
:1058900028780B2833D007DC07286ED2DFE800F029
:1058A0008A112338525E670066286DD004DC6428B4
:1058B0005ED065287ED162E067283BD0C82879D1C8
:1058C00077E0A07C01280DD10020A0744FF4806106
:1058D0007748FDF7ACFC2B46022240F252313046AD
:1058E000FFF782FC67E04FF480617148FDF7A1FC8F
:1058F0002B460B2205213046FFF776FC5BE00020AB
:10590000A0742B46032202213046FFF76DFC52E0C3
:10591000A07C01280DD10020A07420774FF40071E5
:105920006348FDF784FC2B46672202213046FFF7CF
:105930005BFC40E02B46042240F252313046FFF738
:105940004AFC38E04FF400715948FDF772FC2B46D1
:10595000052232213046FFF747FC2CE00020A074DE
:105960002B46012232213046FFF73EFC23E022E0A5
:1059700029463046FFF741FC1DE01BE004E02946C4
:105980003046FFF73AFC16E04FF480714848FDF7C7
:1059900050FC40214248FDF74AFC80214448FDF775
:1059A00048FC2B4602224FF4FA713046FFF71CFCEC
:1059B00001E000E000BF00BF70BD70B506460D46B7
:1059C000144628780B2833D007DC072872D2DFE88A
:1059D00000F095112338525E7400662878D004DCFC
:1059E00064286BD0652865D16DE067283BD0C82856
:1059F000F9D182E0A07C01280DD10020A0744FF4E1
:105A000000612B48FDF713FC2B46022240F2523175
:105A10003046FFF7E9FB72E04FF400612448FDF7E0
:105A200008FC2B460B2205213046FFF7DDFB66E024
:105A30000020A0742B46032202213046FFF7D4FB3E
:105A40005DE0A07C01280DD10020A07420774FF4E8
:105A500080511748FDF7EBFB2B46672202213046A9
:105A6000FFF7C2FB4BE02B46042240F25231304696
:105A7000FFF7B1FB43E04FF480510D48FDF7D9FB30
:105A80002B46052232213046FFF7AEFB37E00020DF
:105A9000A0742B46012232213046FFF7A5FB2EE0F1
:105AA0000010014000080140542100200014014072
:105AB0000020014022E00BE000E020E029463046D3
:105AC000FFF79BFB1BE029463046FFF796FB16E0ED
:105AD0000421FC48FDF7ADFB0821FA48FDF7A7FBC0
